{
  "contractName": "GNSPairInfosV6_1",
  "abi": [
    {
      "inputs": [
        {
          "internalType": "contract StorageInterfaceV5",
          "name": "_storageT",
          "type": "address"
        }
      ],
      "stateMutability": "nonpayable",
      "type": "constructor"
    },
    {
      "anonymous": false,
      "inputs": [
        {
          "indexed": false,
          "internalType": "uint256",
          "name": "pairIndex",
          "type": "uint256"
        },
        {
          "indexed": false,
          "internalType": "int256",
          "name": "valueLong",
          "type": "int256"
        },
        {
          "indexed": false,
          "internalType": "int256",
          "name": "valueShort",
          "type": "int256"
        }
      ],
      "name": "AccFundingFeesStored",
      "type": "event"
    },
    {
      "anonymous": false,
      "inputs": [
        {
          "indexed": false,
          "internalType": "uint256",
          "name": "pairIndex",
          "type": "uint256"
        },
        {
          "indexed": false,
          "internalType": "uint256",
          "name": "value",
          "type": "uint256"
        }
      ],
      "name": "AccRolloverFeesStored",
      "type": "event"
    },
    {
      "anonymous": false,
      "inputs": [
        {
          "indexed": false,
          "internalType": "uint256",
          "name": "pairIndex",
          "type": "uint256"
        },
        {
          "indexed": false,
          "internalType": "bool",
          "name": "long",
          "type": "bool"
        },
        {
          "indexed": false,
          "internalType": "uint256",
          "name": "collateral",
          "type": "uint256"
        },
        {
          "indexed": false,
          "internalType": "uint256",
          "name": "leverage",
          "type": "uint256"
        },
        {
          "indexed": false,
          "internalType": "int256",
          "name": "percentProfit",
          "type": "int256"
        },
        {
          "indexed": false,
          "internalType": "uint256",
          "name": "rolloverFees",
          "type": "uint256"
        },
        {
          "indexed": false,
          "internalType": "int256",
          "name": "fundingFees",
          "type": "int256"
        }
      ],
      "name": "FeesCharged",
      "type": "event"
    },
    {
      "anonymous": false,
      "inputs": [
        {
          "indexed": false,
          "internalType": "uint256",
          "name": "pairIndex",
          "type": "uint256"
        },
        {
          "indexed": false,
          "internalType": "uint256",
          "name": "value",
          "type": "uint256"
        }
      ],
      "name": "FundingFeePerBlockPUpdated",
      "type": "event"
    },
    {
      "anonymous": false,
      "inputs": [
        {
          "indexed": false,
          "internalType": "address",
          "name": "value",
          "type": "address"
        }
      ],
      "name": "ManagerUpdated",
      "type": "event"
    },
    {
      "anonymous": false,
      "inputs": [
        {
          "indexed": false,
          "internalType": "uint256",
          "name": "value",
          "type": "uint256"
        }
      ],
      "name": "MaxNegativePnlOnOpenPUpdated",
      "type": "event"
    },
    {
      "anonymous": false,
      "inputs": [
        {
          "indexed": false,
          "internalType": "uint256",
          "name": "pairIndex",
          "type": "uint256"
        },
        {
          "indexed": false,
          "internalType": "uint256",
          "name": "valueAbove",
          "type": "uint256"
        },
        {
          "indexed": false,
          "internalType": "uint256",
          "name": "valueBelow",
          "type": "uint256"
        }
      ],
      "name": "OnePercentDepthUpdated",
      "type": "event"
    },
    {
      "anonymous": false,
      "inputs": [
        {
          "indexed": false,
          "internalType": "uint256",
          "name": "pairIndex",
          "type": "uint256"
        },
        {
          "components": [
            {
              "internalType": "uint256",
              "name": "onePercentDepthAbove",
              "type": "uint256"
            },
            {
              "internalType": "uint256",
              "name": "onePercentDepthBelow",
              "type": "uint256"
            },
            {
              "internalType": "uint256",
              "name": "rolloverFeePerBlockP",
              "type": "uint256"
            },
            {
              "internalType": "uint256",
              "name": "fundingFeePerBlockP",
              "type": "uint256"
            }
          ],
          "indexed": false,
          "internalType": "struct GNSPairInfosV6_1.PairParams",
          "name": "value",
          "type": "tuple"
        }
      ],
      "name": "PairParamsUpdated",
      "type": "event"
    },
    {
      "anonymous": false,
      "inputs": [
        {
          "indexed": false,
          "internalType": "uint256",
          "name": "pairIndex",
          "type": "uint256"
        },
        {
          "indexed": false,
          "internalType": "uint256",
          "name": "value",
          "type": "uint256"
        }
      ],
      "name": "RolloverFeePerBlockPUpdated",
      "type": "event"
    },
    {
      "anonymous": false,
      "inputs": [
        {
          "indexed": false,
          "internalType": "address",
          "name": "trader",
          "type": "address"
        },
        {
          "indexed": false,
          "internalType": "uint256",
          "name": "pairIndex",
          "type": "uint256"
        },
        {
          "indexed": false,
          "internalType": "uint256",
          "name": "index",
          "type": "uint256"
        },
        {
          "indexed": false,
          "internalType": "uint256",
          "name": "rollover",
          "type": "uint256"
        },
        {
          "indexed": false,
          "internalType": "int256",
          "name": "funding",
          "type": "int256"
        }
      ],
      "name": "TradeInitialAccFeesStored",
      "type": "event"
    },
    {
      "inputs": [],
      "name": "manager",
      "outputs": [
        {
          "internalType": "address",
          "name": "",
          "type": "address"
        }
      ],
      "stateMutability": "view",
      "type": "function"
    },
    {
      "inputs": [],
      "name": "maxNegativePnlOnOpenP",
      "outputs": [
        {
          "internalType": "uint256",
          "name": "",
          "type": "uint256"
        }
      ],
      "stateMutability": "view",
      "type": "function"
    },
    {
      "inputs": [
        {
          "internalType": "uint256",
          "name": "",
          "type": "uint256"
        }
      ],
      "name": "pairFundingFees",
      "outputs": [
        {
          "internalType": "int256",
          "name": "accPerOiLong",
          "type": "int256"
        },
        {
          "internalType": "int256",
          "name": "accPerOiShort",
          "type": "int256"
        },
        {
          "internalType": "uint256",
          "name": "lastUpdateBlock",
          "type": "uint256"
        }
      ],
      "stateMutability": "view",
      "type": "function"
    },
    {
      "inputs": [
        {
          "internalType": "uint256",
          "name": "",
          "type": "uint256"
        }
      ],
      "name": "pairParams",
      "outputs": [
        {
          "internalType": "uint256",
          "name": "onePercentDepthAbove",
          "type": "uint256"
        },
        {
          "internalType": "uint256",
          "name": "onePercentDepthBelow",
          "type": "uint256"
        },
        {
          "internalType": "uint256",
          "name": "rolloverFeePerBlockP",
          "type": "uint256"
        },
        {
          "internalType": "uint256",
          "name": "fundingFeePerBlockP",
          "type": "uint256"
        }
      ],
      "stateMutability": "view",
      "type": "function"
    },
    {
      "inputs": [
        {
          "internalType": "uint256",
          "name": "",
          "type": "uint256"
        }
      ],
      "name": "pairRolloverFees",
      "outputs": [
        {
          "internalType": "uint256",
          "name": "accPerCollateral",
          "type": "uint256"
        },
        {
          "internalType": "uint256",
          "name": "lastUpdateBlock",
          "type": "uint256"
        }
      ],
      "stateMutability": "view",
      "type": "function"
    },
    {
      "inputs": [
        {
          "internalType": "address",
          "name": "",
          "type": "address"
        },
        {
          "internalType": "uint256",
          "name": "",
          "type": "uint256"
        },
        {
          "internalType": "uint256",
          "name": "",
          "type": "uint256"
        }
      ],
      "name": "tradeInitialAccFees",
      "outputs": [
        {
          "internalType": "uint256",
          "name": "rollover",
          "type": "uint256"
        },
        {
          "internalType": "int256",
          "name": "funding",
          "type": "int256"
        },
        {
          "internalType": "bool",
          "name": "openedAfterUpdate",
          "type": "bool"
        }
      ],
      "stateMutability": "view",
      "type": "function"
    },
    {
      "inputs": [
        {
          "internalType": "address",
          "name": "_manager",
          "type": "address"
        }
      ],
      "name": "setManager",
      "outputs": [],
      "stateMutability": "nonpayable",
      "type": "function"
    },
    {
      "inputs": [
        {
          "internalType": "uint256",
          "name": "value",
          "type": "uint256"
        }
      ],
      "name": "setMaxNegativePnlOnOpenP",
      "outputs": [],
      "stateMutability": "nonpayable",
      "type": "function"
    },
    {
      "inputs": [
        {
          "internalType": "uint256",
          "name": "pairIndex",
          "type": "uint256"
        },
        {
          "components": [
            {
              "internalType": "uint256",
              "name": "onePercentDepthAbove",
              "type": "uint256"
            },
            {
              "internalType": "uint256",
              "name": "onePercentDepthBelow",
              "type": "uint256"
            },
            {
              "internalType": "uint256",
              "name": "rolloverFeePerBlockP",
              "type": "uint256"
            },
            {
              "internalType": "uint256",
              "name": "fundingFeePerBlockP",
              "type": "uint256"
            }
          ],
          "internalType": "struct GNSPairInfosV6_1.PairParams",
          "name": "value",
          "type": "tuple"
        }
      ],
      "name": "setPairParams",
      "outputs": [],
      "stateMutability": "nonpayable",
      "type": "function"
    },
    {
      "inputs": [
        {
          "internalType": "uint256[]",
          "name": "indices",
          "type": "uint256[]"
        },
        {
          "components": [
            {
              "internalType": "uint256",
              "name": "onePercentDepthAbove",
              "type": "uint256"
            },
            {
              "internalType": "uint256",
              "name": "onePercentDepthBelow",
              "type": "uint256"
            },
            {
              "internalType": "uint256",
              "name": "rolloverFeePerBlockP",
              "type": "uint256"
            },
            {
              "internalType": "uint256",
              "name": "fundingFeePerBlockP",
              "type": "uint256"
            }
          ],
          "internalType": "struct GNSPairInfosV6_1.PairParams[]",
          "name": "values",
          "type": "tuple[]"
        }
      ],
      "name": "setPairParamsArray",
      "outputs": [],
      "stateMutability": "nonpayable",
      "type": "function"
    },
    {
      "inputs": [
        {
          "internalType": "uint256",
          "name": "pairIndex",
          "type": "uint256"
        },
        {
          "internalType": "uint256",
          "name": "valueAbove",
          "type": "uint256"
        },
        {
          "internalType": "uint256",
          "name": "valueBelow",
          "type": "uint256"
        }
      ],
      "name": "setOnePercentDepth",
      "outputs": [],
      "stateMutability": "nonpayable",
      "type": "function"
    },
    {
      "inputs": [
        {
          "internalType": "uint256[]",
          "name": "indices",
          "type": "uint256[]"
        },
        {
          "internalType": "uint256[]",
          "name": "valuesAbove",
          "type": "uint256[]"
        },
        {
          "internalType": "uint256[]",
          "name": "valuesBelow",
          "type": "uint256[]"
        }
      ],
      "name": "setOnePercentDepthArray",
      "outputs": [],
      "stateMutability": "nonpayable",
      "type": "function"
    },
    {
      "inputs": [
        {
          "internalType": "uint256",
          "name": "pairIndex",
          "type": "uint256"
        },
        {
          "internalType": "uint256",
          "name": "value",
          "type": "uint256"
        }
      ],
      "name": "setRolloverFeePerBlockP",
      "outputs": [],
      "stateMutability": "nonpayable",
      "type": "function"
    },
    {
      "inputs": [
        {
          "internalType": "uint256[]",
          "name": "indices",
          "type": "uint256[]"
        },
        {
          "internalType": "uint256[]",
          "name": "values",
          "type": "uint256[]"
        }
      ],
      "name": "setRolloverFeePerBlockPArray",
      "outputs": [],
      "stateMutability": "nonpayable",
      "type": "function"
    },
    {
      "inputs": [
        {
          "internalType": "uint256",
          "name": "pairIndex",
          "type": "uint256"
        },
        {
          "internalType": "uint256",
          "name": "value",
          "type": "uint256"
        }
      ],
      "name": "setFundingFeePerBlockP",
      "outputs": [],
      "stateMutability": "nonpayable",
      "type": "function"
    },
    {
      "inputs": [
        {
          "internalType": "uint256[]",
          "name": "indices",
          "type": "uint256[]"
        },
        {
          "internalType": "uint256[]",
          "name": "values",
          "type": "uint256[]"
        }
      ],
      "name": "setFundingFeePerBlockPArray",
      "outputs": [],
      "stateMutability": "nonpayable",
      "type": "function"
    },
    {
      "inputs": [
        {
          "internalType": "address",
          "name": "trader",
          "type": "address"
        },
        {
          "internalType": "uint256",
          "name": "pairIndex",
          "type": "uint256"
        },
        {
          "internalType": "uint256",
          "name": "index",
          "type": "uint256"
        },
        {
          "internalType": "bool",
          "name": "long",
          "type": "bool"
        }
      ],
      "name": "storeTradeInitialAccFees",
      "outputs": [],
      "stateMutability": "nonpayable",
      "type": "function"
    },
    {
      "inputs": [
        {
          "internalType": "uint256",
          "name": "pairIndex",
          "type": "uint256"
        }
      ],
      "name": "getPendingAccRolloverFees",
      "outputs": [
        {
          "internalType": "uint256",
          "name": "",
          "type": "uint256"
        }
      ],
      "stateMutability": "view",
      "type": "function"
    },
    {
      "inputs": [
        {
          "internalType": "uint256",
          "name": "pairIndex",
          "type": "uint256"
        }
      ],
      "name": "getPendingAccFundingFees",
      "outputs": [
        {
          "internalType": "int256",
          "name": "valueLong",
          "type": "int256"
        },
        {
          "internalType": "int256",
          "name": "valueShort",
          "type": "int256"
        }
      ],
      "stateMutability": "view",
      "type": "function"
    },
    {
      "inputs": [
        {
          "internalType": "uint256",
          "name": "openPrice",
          "type": "uint256"
        },
        {
          "internalType": "uint256",
          "name": "pairIndex",
          "type": "uint256"
        },
        {
          "internalType": "bool",
          "name": "long",
          "type": "bool"
        },
        {
          "internalType": "uint256",
          "name": "tradeOpenInterest",
          "type": "uint256"
        }
      ],
      "name": "getTradePriceImpact",
      "outputs": [
        {
          "internalType": "uint256",
          "name": "priceImpactP",
          "type": "uint256"
        },
        {
          "internalType": "uint256",
          "name": "priceAfterImpact",
          "type": "uint256"
        }
      ],
      "stateMutability": "view",
      "type": "function"
    },
    {
      "inputs": [
        {
          "internalType": "uint256",
          "name": "openPrice",
          "type": "uint256"
        },
        {
          "internalType": "bool",
          "name": "long",
          "type": "bool"
        },
        {
          "internalType": "uint256",
          "name": "startOpenInterest",
          "type": "uint256"
        },
        {
          "internalType": "uint256",
          "name": "tradeOpenInterest",
          "type": "uint256"
        },
        {
          "internalType": "uint256",
          "name": "onePercentDepth",
          "type": "uint256"
        }
      ],
      "name": "getTradePriceImpactPure",
      "outputs": [
        {
          "internalType": "uint256",
          "name": "priceImpactP",
          "type": "uint256"
        },
        {
          "internalType": "uint256",
          "name": "priceAfterImpact",
          "type": "uint256"
        }
      ],
      "stateMutability": "pure",
      "type": "function"
    },
    {
      "inputs": [
        {
          "internalType": "address",
          "name": "trader",
          "type": "address"
        },
        {
          "internalType": "uint256",
          "name": "pairIndex",
          "type": "uint256"
        },
        {
          "internalType": "uint256",
          "name": "index",
          "type": "uint256"
        },
        {
          "internalType": "uint256",
          "name": "collateral",
          "type": "uint256"
        }
      ],
      "name": "getTradeRolloverFee",
      "outputs": [
        {
          "internalType": "uint256",
          "name": "",
          "type": "uint256"
        }
      ],
      "stateMutability": "view",
      "type": "function"
    },
    {
      "inputs": [
        {
          "internalType": "uint256",
          "name": "accRolloverFeesPerCollateral",
          "type": "uint256"
        },
        {
          "internalType": "uint256",
          "name": "endAccRolloverFeesPerCollateral",
          "type": "uint256"
        },
        {
          "internalType": "uint256",
          "name": "collateral",
          "type": "uint256"
        }
      ],
      "name": "getTradeRolloverFeePure",
      "outputs": [
        {
          "internalType": "uint256",
          "name": "",
          "type": "uint256"
        }
      ],
      "stateMutability": "pure",
      "type": "function"
    },
    {
      "inputs": [
        {
          "internalType": "address",
          "name": "trader",
          "type": "address"
        },
        {
          "internalType": "uint256",
          "name": "pairIndex",
          "type": "uint256"
        },
        {
          "internalType": "uint256",
          "name": "index",
          "type": "uint256"
        },
        {
          "internalType": "bool",
          "name": "long",
          "type": "bool"
        },
        {
          "internalType": "uint256",
          "name": "collateral",
          "type": "uint256"
        },
        {
          "internalType": "uint256",
          "name": "leverage",
          "type": "uint256"
        }
      ],
      "name": "getTradeFundingFee",
      "outputs": [
        {
          "internalType": "int256",
          "name": "",
          "type": "int256"
        }
      ],
      "stateMutability": "view",
      "type": "function"
    },
    {
      "inputs": [
        {
          "internalType": "int256",
          "name": "accFundingFeesPerOi",
          "type": "int256"
        },
        {
          "internalType": "int256",
          "name": "endAccFundingFeesPerOi",
          "type": "int256"
        },
        {
          "internalType": "uint256",
          "name": "collateral",
          "type": "uint256"
        },
        {
          "internalType": "uint256",
          "name": "leverage",
          "type": "uint256"
        }
      ],
      "name": "getTradeFundingFeePure",
      "outputs": [
        {
          "internalType": "int256",
          "name": "",
          "type": "int256"
        }
      ],
      "stateMutability": "pure",
      "type": "function"
    },
    {
      "inputs": [
        {
          "internalType": "address",
          "name": "trader",
          "type": "address"
        },
        {
          "internalType": "uint256",
          "name": "pairIndex",
          "type": "uint256"
        },
        {
          "internalType": "uint256",
          "name": "index",
          "type": "uint256"
        },
        {
          "internalType": "uint256",
          "name": "openPrice",
          "type": "uint256"
        },
        {
          "internalType": "bool",
          "name": "long",
          "type": "bool"
        },
        {
          "internalType": "uint256",
          "name": "collateral",
          "type": "uint256"
        },
        {
          "internalType": "uint256",
          "name": "leverage",
          "type": "uint256"
        }
      ],
      "name": "getTradeLiquidationPrice",
      "outputs": [
        {
          "internalType": "uint256",
          "name": "",
          "type": "uint256"
        }
      ],
      "stateMutability": "view",
      "type": "function"
    },
    {
      "inputs": [
        {
          "internalType": "uint256",
          "name": "openPrice",
          "type": "uint256"
        },
        {
          "internalType": "bool",
          "name": "long",
          "type": "bool"
        },
        {
          "internalType": "uint256",
          "name": "collateral",
          "type": "uint256"
        },
        {
          "internalType": "uint256",
          "name": "leverage",
          "type": "uint256"
        },
        {
          "internalType": "uint256",
          "name": "rolloverFee",
          "type": "uint256"
        },
        {
          "internalType": "int256",
          "name": "fundingFee",
          "type": "int256"
        }
      ],
      "name": "getTradeLiquidationPricePure",
      "outputs": [
        {
          "internalType": "uint256",
          "name": "",
          "type": "uint256"
        }
      ],
      "stateMutability": "pure",
      "type": "function"
    },
    {
      "inputs": [
        {
          "internalType": "address",
          "name": "trader",
          "type": "address"
        },
        {
          "internalType": "uint256",
          "name": "pairIndex",
          "type": "uint256"
        },
        {
          "internalType": "uint256",
          "name": "index",
          "type": "uint256"
        },
        {
          "internalType": "bool",
          "name": "long",
          "type": "bool"
        },
        {
          "internalType": "uint256",
          "name": "collateral",
          "type": "uint256"
        },
        {
          "internalType": "uint256",
          "name": "leverage",
          "type": "uint256"
        },
        {
          "internalType": "int256",
          "name": "percentProfit",
          "type": "int256"
        },
        {
          "internalType": "uint256",
          "name": "closingFee",
          "type": "uint256"
        }
      ],
      "name": "getTradeValue",
      "outputs": [
        {
          "internalType": "uint256",
          "name": "amount",
          "type": "uint256"
        }
      ],
      "stateMutability": "nonpayable",
      "type": "function"
    },
    {
      "inputs": [
        {
          "internalType": "uint256",
          "name": "collateral",
          "type": "uint256"
        },
        {
          "internalType": "int256",
          "name": "percentProfit",
          "type": "int256"
        },
        {
          "internalType": "uint256",
          "name": "rolloverFee",
          "type": "uint256"
        },
        {
          "internalType": "int256",
          "name": "fundingFee",
          "type": "int256"
        },
        {
          "internalType": "uint256",
          "name": "closingFee",
          "type": "uint256"
        }
      ],
      "name": "getTradeValuePure",
      "outputs": [
        {
          "internalType": "uint256",
          "name": "",
          "type": "uint256"
        }
      ],
      "stateMutability": "pure",
      "type": "function"
    },
    {
      "inputs": [
        {
          "internalType": "uint256[]",
          "name": "indices",
          "type": "uint256[]"
        }
      ],
      "name": "getPairInfos",
      "outputs": [
        {
          "components": [
            {
              "internalType": "uint256",
              "name": "onePercentDepthAbove",
              "type": "uint256"
            },
            {
              "internalType": "uint256",
              "name": "onePercentDepthBelow",
              "type": "uint256"
            },
            {
              "internalType": "uint256",
              "name": "rolloverFeePerBlockP",
              "type": "uint256"
            },
            {
              "internalType": "uint256",
              "name": "fundingFeePerBlockP",
              "type": "uint256"
            }
          ],
          "internalType": "struct GNSPairInfosV6_1.PairParams[]",
          "name": "",
          "type": "tuple[]"
        },
        {
          "components": [
            {
              "internalType": "uint256",
              "name": "accPerCollateral",
              "type": "uint256"
            },
            {
              "internalType": "uint256",
              "name": "lastUpdateBlock",
              "type": "uint256"
            }
          ],
          "internalType": "struct GNSPairInfosV6_1.PairRolloverFees[]",
          "name": "",
          "type": "tuple[]"
        },
        {
          "components": [
            {
              "internalType": "int256",
              "name": "accPerOiLong",
              "type": "int256"
            },
            {
              "internalType": "int256",
              "name": "accPerOiShort",
              "type": "int256"
            },
            {
              "internalType": "uint256",
              "name": "lastUpdateBlock",
              "type": "uint256"
            }
          ],
          "internalType": "struct GNSPairInfosV6_1.PairFundingFees[]",
          "name": "",
          "type": "tuple[]"
        }
      ],
      "stateMutability": "view",
      "type": "function"
    },
    {
      "inputs": [
        {
          "internalType": "uint256",
          "name": "pairIndex",
          "type": "uint256"
        }
      ],
      "name": "getOnePercentDepthAbove",
      "outputs": [
        {
          "internalType": "uint256",
          "name": "",
          "type": "uint256"
        }
      ],
      "stateMutability": "view",
      "type": "function"
    },
    {
      "inputs": [
        {
          "internalType": "uint256",
          "name": "pairIndex",
          "type": "uint256"
        }
      ],
      "name": "getOnePercentDepthBelow",
      "outputs": [
        {
          "internalType": "uint256",
          "name": "",
          "type": "uint256"
        }
      ],
      "stateMutability": "view",
      "type": "function"
    },
    {
      "inputs": [
        {
          "internalType": "uint256",
          "name": "pairIndex",
          "type": "uint256"
        }
      ],
      "name": "getRolloverFeePerBlockP",
      "outputs": [
        {
          "internalType": "uint256",
          "name": "",
          "type": "uint256"
        }
      ],
      "stateMutability": "view",
      "type": "function"
    },
    {
      "inputs": [
        {
          "internalType": "uint256",
          "name": "pairIndex",
          "type": "uint256"
        }
      ],
      "name": "getFundingFeePerBlockP",
      "outputs": [
        {
          "internalType": "uint256",
          "name": "",
          "type": "uint256"
        }
      ],
      "stateMutability": "view",
      "type": "function"
    },
    {
      "inputs": [
        {
          "internalType": "uint256",
          "name": "pairIndex",
          "type": "uint256"
        }
      ],
      "name": "getAccRolloverFees",
      "outputs": [
        {
          "internalType": "uint256",
          "name": "",
          "type": "uint256"
        }
      ],
      "stateMutability": "view",
      "type": "function"
    },
    {
      "inputs": [
        {
          "internalType": "uint256",
          "name": "pairIndex",
          "type": "uint256"
        }
      ],
      "name": "getAccRolloverFeesUpdateBlock",
      "outputs": [
        {
          "internalType": "uint256",
          "name": "",
          "type": "uint256"
        }
      ],
      "stateMutability": "view",
      "type": "function"
    },
    {
      "inputs": [
        {
          "internalType": "uint256",
          "name": "pairIndex",
          "type": "uint256"
        }
      ],
      "name": "getAccFundingFeesLong",
      "outputs": [
        {
          "internalType": "int256",
          "name": "",
          "type": "int256"
        }
      ],
      "stateMutability": "view",
      "type": "function"
    },
    {
      "inputs": [
        {
          "internalType": "uint256",
          "name": "pairIndex",
          "type": "uint256"
        }
      ],
      "name": "getAccFundingFeesShort",
      "outputs": [
        {
          "internalType": "int256",
          "name": "",
          "type": "int256"
        }
      ],
      "stateMutability": "view",
      "type": "function"
    },
    {
      "inputs": [
        {
          "internalType": "uint256",
          "name": "pairIndex",
          "type": "uint256"
        }
      ],
      "name": "getAccFundingFeesUpdateBlock",
      "outputs": [
        {
          "internalType": "uint256",
          "name": "",
          "type": "uint256"
        }
      ],
      "stateMutability": "view",
      "type": "function"
    },
    {
      "inputs": [
        {
          "internalType": "address",
          "name": "trader",
          "type": "address"
        },
        {
          "internalType": "uint256",
          "name": "pairIndex",
          "type": "uint256"
        },
        {
          "internalType": "uint256",
          "name": "index",
          "type": "uint256"
        }
      ],
      "name": "getTradeInitialAccRolloverFeesPerCollateral",
      "outputs": [
        {
          "internalType": "uint256",
          "name": "",
          "type": "uint256"
        }
      ],
      "stateMutability": "view",
      "type": "function"
    },
    {
      "inputs": [
        {
          "internalType": "address",
          "name": "trader",
          "type": "address"
        },
        {
          "internalType": "uint256",
          "name": "pairIndex",
          "type": "uint256"
        },
        {
          "internalType": "uint256",
          "name": "index",
          "type": "uint256"
        }
      ],
      "name": "getTradeInitialAccFundingFeesPerOi",
      "outputs": [
        {
          "internalType": "int256",
          "name": "",
          "type": "int256"
        }
      ],
      "stateMutability": "view",
      "type": "function"
    },
    {
      "inputs": [
        {
          "internalType": "address",
          "name": "trader",
          "type": "address"
        },
        {
          "internalType": "uint256",
          "name": "pairIndex",
          "type": "uint256"
        },
        {
          "internalType": "uint256",
          "name": "index",
          "type": "uint256"
        }
      ],
      "name": "getTradeOpenedAfterUpdate",
      "outputs": [
        {
          "internalType": "bool",
          "name": "",
          "type": "bool"
        }
      ],
      "stateMutability": "view",
      "type": "function"
    }
  ],
  "bytecode": "0x60a0604052620000166402540be40060286200005b565b6001553480156200002657600080fd5b506040516200313738038062003137833981016040819052620000499162000089565b6001600160a01b0316608052620000bb565b60008160001904831182151516156200008457634e487b7160e01b600052601160045260246000fd5b500290565b6000602082840312156200009c57600080fd5b81516001600160a01b0381168114620000b457600080fd5b9392505050565b60805161303d620000fa60003960008181610898015281816113510152818161172501528181611d79015281816120e301526121b4015261303d6000f3fe608060405234801561001057600080fd5b50600436106102de5760003560e01c80636f6af69711610186578063bf1db1f6116100e3578063ee52e5fe11610097578063f6c50efe11610071578063f6c50efe146107db578063fcc37c87146107ee578063fe3cfd8c1461080157600080fd5b8063ee52e5fe14610785578063f0270f33146107a5578063f6960654146107c857600080fd5b8063c2cc670d116100c8578063c2cc670d1461073f578063cfc23e9e14610752578063d0ebdbe71461077257600080fd5b8063bf1db1f614610705578063c22ff7bf1461072c57600080fd5b80639cf9c9391161013a578063a77e8e2a1161011f578063a77e8e2a146106cc578063ab21a05c146106df578063b74243ba146106f257600080fd5b80639cf9c9391461066f578063a49e8788146106b957600080fd5b80637ea95f321161016b5780637ea95f321461064057806380f6cfc2146106535780639c625e1e1461065c57600080fd5b80636f6af6971461061a5780637884274f1461062d57600080fd5b8063338139ad1161023f578063481c6a75116101f35780636bc84d59116101cd5780636bc84d59146105e15780636bcbe860146105f45780636ceaca671461060757600080fd5b8063481c6a751461052957806358f796bc1461056e5780635ed5804e1461058157600080fd5b80633df7fd72116102245780633df7fd721461046e57806342dee1ad1461048157806346dbab36146104d857600080fd5b8063338139ad14610437578063351533e71461045b57600080fd5b806312fdefd9116102965780632b180a7d1161027b5780632b180a7d146103de5780632d15e4e01461040157806331556d2f1461042457600080fd5b806312fdefd91461039357806321adc48f146103bb57600080fd5b80630e6bc39a116102c75780630e6bc39a1461033c5780630ea777701461035157806312b6566e1461037357600080fd5b80630dd34f57146102e35780630e0052fc1461030b575b600080fd5b6102f66102f13660046123fe565b61084f565b60405190151581526020015b60405180910390f35b61032e610319366004612433565b60009081526004602052604090206001015490565b604051908152602001610302565b61034f61034a366004612461565b610896565b005b61036461035f3660046125b6565b610ada565b6040516103029392919061263c565b61032e610381366004612433565b60009081526004602052604090205490565b6103a66103a13660046126f7565b610d89565b60408051928352602083019190915201610302565b61032e6103c9366004612433565b60009081526003602052604090206001015490565b61032e6103ec366004612433565b60009081526002602052604090206001015490565b61032e61040f366004612433565b60009081526003602052604090206002015490565b61034f6104323660046127a3565b610e3a565b61032e610445366004612433565b6000908152600260208190526040909120015490565b61034f610469366004612869565b610f85565b61034f61047c3660046128f1565b6110f8565b6104b861048f366004612433565b600260208190526000918252604090912080546001820154928201546003909201549092919084565b604080519485526020850193909352918301526060820152608001610302565b61032e6104e63660046123fe565b73ffffffffffffffffffffffffffffffffffffffff8316600090815260056020908152604080832085845282528083208484529091529020600101549392505050565b6000546105499073ffffffffffffffffffffffffffffffffffffffff1681565b60405173ffffffffffffffffffffffffffffffffffffffff9091168152602001610302565b61032e61057c36600461291e565b6111fc565b6105c461058f3660046123fe565b600560209081526000938452604080852082529284528284209052825290208054600182015460029092015490919060ff1683565b604080519384526020840192909252151590820152606001610302565b61032e6105ef366004612959565b61128a565b61032e6106023660046129be565b6112b9565b61032e610615366004612a0c565b61134d565b61034f610628366004612a78565b611518565b61034f61063b366004612433565b61165e565b6103a661064e366004612adc565b61171b565b61032e60015481565b61032e61066a366004612b19565b61182d565b61069e61067d366004612433565b60036020526000908152604090208054600182015460029092015490919083565b60408051938452602084019290925290820152606001610302565b61034f6106c7366004612a78565b611857565b61032e6106da366004612b45565b61199d565b61032e6106ed366004612433565b6119db565b61034f610700366004612b77565b611a4e565b6103a6610713366004612433565b6004602052600090815260409020805460019091015482565b61032e61073a366004612b99565b611b91565b61034f61074d366004612b77565b611c35565b61032e610760366004612433565b60009081526002602052604090205490565b61034f610780366004612bd4565b611d77565b61032e610793366004612433565b60009081526003602052604090205490565b61032e6107b3366004612433565b60009081526002602052604090206003015490565b61034f6107d6366004612b19565b611f0d565b61032e6107e9366004612bf1565b611fee565b6103a66107fc366004612433565b612095565b61032e61080f3660046123fe565b73ffffffffffffffffffffffffffffffffffffffff8316600090815260056020908152604080832085845282528083208484529091529020549392505050565b73ffffffffffffffffffffffffffffffffffffffff83166000908152600560209081526040808320858452825280832084845290915290206002015460ff165b9392505050565b7f000000000000000000000000000000000000000000000000000000000000000073ffffffffffffffffffffffffffffffffffffffff1662b127836040518163ffffffff1660e01b8152600401602060405180830381865afa158015610900573d6000803e3d6000fd5b505050506040513d601f19601f820116820180604052508101906109249190612c4b565b73ffffffffffffffffffffffffffffffffffffffff163373ffffffffffffffffffffffffffffffffffffffff16146109bd576040517f08c379a000000000000000000000000000000000000000000000000000000000815260206004820152600e60248201527f43414c4c4241434b535f4f4e4c5900000000000000000000000000000000000060448201526064015b60405180910390fd5b6109c68361231f565b73ffffffffffffffffffffffffffffffffffffffff8416600090815260056020908152604080832086845282528083208584529091529020610a07846119db565b815581610a2557600084815260036020526040902060010154610a35565b6000848152600360205260409020545b60018281018290556002830180547fffffffffffffffffffffffffffffffffffffffffffffffffffffffffffffff0016909117905581546040805173ffffffffffffffffffffffffffffffffffffffff8916815260208101889052908101869052606081019190915260808101919091527f4e58eed9e01cebfd4256725d6d1ce9fa694faa7ac5312e75af02360f453d048e9060a00160405180910390a15050505050565b60608060606000845167ffffffffffffffff811115610afb57610afb6124a9565b604051908082528060200260200182016040528015610b5757816020015b610b446040518060800160405280600081526020016000815260200160008152602001600081525090565b815260200190600190039081610b195790505b5090506000855167ffffffffffffffff811115610b7657610b766124a9565b604051908082528060200260200182016040528015610bbb57816020015b6040805180820190915260008082526020820152815260200190600190039081610b945790505b5090506000865167ffffffffffffffff811115610bda57610bda6124a9565b604051908082528060200260200182016040528015610c2f57816020015b610c1c60405180606001604052806000815260200160008152602001600081525090565b815260200190600190039081610bf85790505b50905060005b8751811015610d7b576000888281518110610c5257610c52612c68565b6020026020010151905060026000828152602001908152602001600020604051806080016040529081600082015481526020016001820154815260200160028201548152602001600382015481525050858381518110610cb457610cb4612c68565b60200260200101819052506004600082815260200190815260200160002060405180604001604052908160008201548152602001600182015481525050848381518110610d0357610d03612c68565b6020026020010181905250600360008281526020019081526020016000206040518060600160405290816000820154815260200160018201548152602001600282015481525050838381518110610d5c57610d5c612c68565b6020026020010181905250508080610d7390612cc6565b915050610c35565b509196909550909350915050565b60008082600003610d9f57506000905085610e30565b82670de0b6b3a76400006402540be400610dba600288612d2d565b610dc49089612d41565b610dce9190612d59565b610dd89190612d2d565b610de29190612d2d565b9150600060646402540be400610df88a86612d59565b610e029190612d2d565b610e0c9190612d2d565b905086610e2257610e1d8189612d96565b610e2c565b610e2c8189612d41565b9150505b9550959350505050565b60005473ffffffffffffffffffffffffffffffffffffffff163314610ebb576040517f08c379a000000000000000000000000000000000000000000000000000000000815260206004820152600c60248201527f4d414e414745525f4f4e4c59000000000000000000000000000000000000000060448201526064016109b4565b8051825114610f26576040517f08c379a000000000000000000000000000000000000000000000000000000000815260206004820152600c60248201527f57524f4e475f4c454e475448000000000000000000000000000000000000000060448201526064016109b4565b60005b8251811015610f8057610f6e838281518110610f4757610f47612c68565b6020026020010151838381518110610f6157610f61612c68565b60200260200101516110f8565b80610f7881612cc6565b915050610f29565b505050565b60005473ffffffffffffffffffffffffffffffffffffffff163314611006576040517f08c379a000000000000000000000000000000000000000000000000000000000815260206004820152600c60248201527f4d414e414745525f4f4e4c59000000000000000000000000000000000000000060448201526064016109b4565b81518351148015611018575080518351145b61107e576040517f08c379a000000000000000000000000000000000000000000000000000000000815260206004820152600c60248201527f57524f4e475f4c454e475448000000000000000000000000000000000000000060448201526064016109b4565b60005b83518110156110f2576110e084828151811061109f5761109f612c68565b60200260200101518483815181106110b9576110b9612c68565b60200260200101518484815181106110d3576110d3612c68565b6020026020010151611f0d565b806110ea81612cc6565b915050611081565b50505050565b60005473ffffffffffffffffffffffffffffffffffffffff163314611179576040517f08c379a000000000000000000000000000000000000000000000000000000000815260206004820152600c60248201527f4d414e414745525f4f4e4c59000000000000000000000000000000000000000060448201526064016109b4565b61118282612382565b61118b8261231f565b6000828152600260208181526040928390208451815590840151600182015582840151918101919091556060830151600390910155517f901e66575b0aecca6e394d488bfe990ff28995f6da67ef2fe1d6c900b6573a03906111f09084908490612dad565b60405180910390a15050565b73ffffffffffffffffffffffffffffffffffffffff84166000908152600560209081526040808320868452825280832085845282528083208151606081018352815481526001820154938101939093526002015460ff161515908201819052611269576000915050611282565b805161127e90611278876119db565b8561182d565b9150505b949350505050565b60006112ad8585858561129f8d8d8d8b6111fc565b6106028e8e8e8d8d8d611fee565b98975050505050505050565b6000808486848660646112cd605a85612d59565b6112d79190612d2d565b6112e19190612de2565b6112eb9190612de2565b6112f5908b612e56565b6112ff9190612f12565b6113099190612f12565b90506000876113215761131c828a612f7a565b61132b565b61132b828a612de2565b90506000811361133c57600061133e565b805b925050505b9695505050505050565b60007f000000000000000000000000000000000000000000000000000000000000000073ffffffffffffffffffffffffffffffffffffffff1662b127836040518163ffffffff1660e01b8152600401602060405180830381865afa1580156113b9573d6000803e3d6000fd5b505050506040513d601f19601f820116820180604052508101906113dd9190612c4b565b73ffffffffffffffffffffffffffffffffffffffff163373ffffffffffffffffffffffffffffffffffffffff1614611471576040517f08c379a000000000000000000000000000000000000000000000000000000000815260206004820152600e60248201527f43414c4c4241434b535f4f4e4c5900000000000000000000000000000000000060448201526064016109b4565b61147a8861231f565b60006114888a8a8a896111fc565b9050600061149a8b8b8b8b8b8b611fee565b90506114a98786848488611b91565b604080518c81528a15156020820152908101899052606081018890526080810187905260a0810184905260c081018390529093507f3a484d35e7358ad950e494938ebbac2c1319c2b76d162112f51d66752244dde39060e00160405180910390a1505098975050505050505050565b60005473ffffffffffffffffffffffffffffffffffffffff163314611599576040517f08c379a000000000000000000000000000000000000000000000000000000000815260206004820152600c60248201527f4d414e414745525f4f4e4c59000000000000000000000000000000000000000060448201526064016109b4565b8051825114611604576040517f08c379a000000000000000000000000000000000000000000000000000000000815260206004820152600c60248201527f57524f4e475f4c454e475448000000000000000000000000000000000000000060448201526064016109b4565b60005b8251811015610f805761164c83828151811061162557611625612c68565b602002602001015183838151811061163f5761163f612c68565b6020026020010151611a4e565b8061165681612cc6565b915050611607565b60005473ffffffffffffffffffffffffffffffffffffffff1633146116df576040517f08c379a000000000000000000000000000000000000000000000000000000000815260206004820152600c60248201527f4d414e414745525f4f4e4c59000000000000000000000000000000000000000060448201526064016109b4565b60018190556040518181527f5ba729b89796f40d260b117b8654dc301b1d9f7ec17a1e378ae31e4c70b6d2c0906020015b60405180910390a150565b60008061182086857f000000000000000000000000000000000000000000000000000000000000000073ffffffffffffffffffffffffffffffffffffffff166328daca21898961176c57600161176f565b60005b6040517fffffffff0000000000000000000000000000000000000000000000000000000060e085901b168152600481019290925260ff166024820152604401602060405180830381865afa1580156117cb573d6000803e3d6000fd5b505050506040513d601f19601f820116820180604052508101906117ef9190612fee565b868861180c5760008a815260026020526040902060010154610d89565b60008a815260026020526040902054610d89565b9097909650945050505050565b6000670de0b6b3a7640000826118438686612d96565b61184d9190612d59565b6112829190612d2d565b60005473ffffffffffffffffffffffffffffffffffffffff1633146118d8576040517f08c379a000000000000000000000000000000000000000000000000000000000815260206004820152600c60248201527f4d414e414745525f4f4e4c59000000000000000000000000000000000000000060448201526064016109b4565b8051825114611943576040517f08c379a000000000000000000000000000000000000000000000000000000000815260206004820152600c60248201527f57524f4e475f4c454e475448000000000000000000000000000000000000000060448201526064016109b4565b60005b8251811015610f805761198b83828151811061196457611964612c68565b602002602001015183838151811061197e5761197e612c68565b6020026020010151611c35565b8061199581612cc6565b915050611946565b6000670de0b6b3a764000082846119b48888612de2565b6119be9190612e56565b6119c89190612e56565b6119d29190612f12565b95945050505050565b60008181526004602090815260408083206002928390529083209091015460018201546064916402540be40091611a129043612d96565b611a1c9190612d59565b611a2e90670de0b6b3a7640000612d59565b611a389190612d2d565b611a429190612d2d565b815461088f9190612d41565b60005473ffffffffffffffffffffffffffffffffffffffff163314611acf576040517f08c379a000000000000000000000000000000000000000000000000000000000815260206004820152600c60248201527f4d414e414745525f4f4e4c59000000000000000000000000000000000000000060448201526064016109b4565b63017d7840811115611b3d576040517f08c379a000000000000000000000000000000000000000000000000000000000815260206004820152600860248201527f544f4f5f4849474800000000000000000000000000000000000000000000000060448201526064016109b4565b611b4682612382565b60008281526002602081815260409283902090910183905581518481529081018390527f048ce436ab4f2632f2aac62af26be3383ebdf5efc9a63f0bbeb6d6c9762d708991016111f0565b600080838560646402540be400611ba88a8c612e56565b611bb29190612f12565b611bbc9190612f12565b611bc6908a612f7a565b611bd09190612de2565b611bda9190612de2565b90506064611be9605a82612d96565b611bf39089612e56565b611bfd9190612f12565b8113611c0d5760009150506119d2565b611c178382612de2565b905060008113611c28576000611c2a565b805b979650505050505050565b60005473ffffffffffffffffffffffffffffffffffffffff163314611cb6576040517f08c379a000000000000000000000000000000000000000000000000000000000815260206004820152600c60248201527f4d414e414745525f4f4e4c59000000000000000000000000000000000000000060448201526064016109b4565b62989680811115611d23576040517f08c379a000000000000000000000000000000000000000000000000000000000815260206004820152600860248201527f544f4f5f4849474800000000000000000000000000000000000000000000000060448201526064016109b4565b611d2c8261231f565b60008281526002602090815260409182902060030183905581518481529081018390527fbe762e88e6ff669d272010f163dfb3c6d389b16831c73e10f95860b2e4f1529891016111f0565b7f000000000000000000000000000000000000000000000000000000000000000073ffffffffffffffffffffffffffffffffffffffff166312d43a516040518163ffffffff1660e01b8152600401602060405180830381865afa158015611de2573d6000803e3d6000fd5b505050506040513d601f19601f82011682018060405250810190611e069190612c4b565b73ffffffffffffffffffffffffffffffffffffffff163373ffffffffffffffffffffffffffffffffffffffff1614611e9a576040517f08c379a000000000000000000000000000000000000000000000000000000000815260206004820152600860248201527f474f565f4f4e4c5900000000000000000000000000000000000000000000000060448201526064016109b4565b600080547fffffffffffffffffffffffff00000000000000000000000000000000000000001673ffffffffffffffffffffffffffffffffffffffff83169081179091556040519081527f2c1c11af44aa5608f1dca38c00275c30ea091e02417d36e70e9a1538689c433d90602001611710565b60005473ffffffffffffffffffffffffffffffffffffffff163314611f8e576040517f08c379a000000000000000000000000000000000000000000000000000000000815260206004820152600c60248201527f4d414e414745525f4f4e4c59000000000000000000000000000000000000000060448201526064016109b4565b6000838152600260209081526040918290208481556001810184905582518681529182018590529181018390527f1daeaff85d4d7cfda495ef83720a04b81df77e38711ca570061e16efa6ffa2759060600160405180910390a150505050565b73ffffffffffffffffffffffffffffffffffffffff86166000908152600560209081526040808320888452825280832087845282528083208151606081018352815481526001820154938101939093526002015460ff16151590820181905261205b576000915050611343565b60008061206789612095565b9150915061208783602001518861207e5782612080565b835b888861199d565b9a9950505050505050505050565b6000818152600360205260408082208054600182015492517f28daca2100000000000000000000000000000000000000000000000000000000815260048101869052602481018590529093907f000000000000000000000000000000000000000000000000000000000000000073ffffffffffffffffffffffffffffffffffffffff16906328daca2190604401602060405180830381865afa15801561213f573d6000803e3d6000fd5b505050506040513d601f19601f820116820180604052508101906121639190612fee565b6040517f28daca21000000000000000000000000000000000000000000000000000000008152600481018790526001602482015290915060009073ffffffffffffffffffffffffffffffffffffffff7f000000000000000000000000000000000000000000000000000000000000000016906328daca2190604401602060405180830381865afa1580156121fb573d6000803e3d6000fd5b505050506040513d601f19601f8201168201806040525081019061221f9190612fee565b9050600060646402540be400600260008a8152602001908152602001600020600301548660020154436122529190612d96565b61225c8688612de2565b6122669190612e56565b6122709190612e56565b61227a9190612f12565b6122849190612f12565b905060008313156122b957826122a282670de0b6b3a7640000612e56565b6122ac9190612f12565b6122b69087612f7a565b95505b600082131561231657816122d582670de0b6b3a7640000612e56565b6122ff907fffffffffffffffffffffffffffffffffffffffffffffffffffffffffffffffff612e56565b6123099190612f12565b6123139086612f7a565b94505b50505050915091565b600081815260036020526040902061233682612095565b600183018190558183554360028401556040805185815260208101939093528201527fc08ace100a8e3b7186ad5fcb68a0b9e7e0bd60aa466cdba34932fa0513353c64906060016111f0565b6000818152600460205260409020612399826119db565b8082554360018301556040805184815260208101929092527f66ae41afb9d1762b0b5f1a431a9e5c767128a1bec9ecb20e1ef9dba7dc3663d691016111f0565b73ffffffffffffffffffffffffffffffffffffffff811681146123fb57600080fd5b50565b60008060006060848603121561241357600080fd5b833561241e816123d9565b95602085013595506040909401359392505050565b60006020828403121561244557600080fd5b5035919050565b8035801515811461245c57600080fd5b919050565b6000806000806080858703121561247757600080fd5b8435612482816123d9565b9350602085013592506040850135915061249e6060860161244c565b905092959194509250565b7f4e487b7100000000000000000000000000000000000000000000000000000000600052604160045260246000fd5b604051601f82017fffffffffffffffffffffffffffffffffffffffffffffffffffffffffffffffe016810167ffffffffffffffff8111828210171561251f5761251f6124a9565b604052919050565b600067ffffffffffffffff821115612541576125416124a9565b5060051b60200190565b600082601f83011261255c57600080fd5b8135602061257161256c83612527565b6124d8565b82815260059290921b8401810191818101908684111561259057600080fd5b8286015b848110156125ab5780358352918301918301612594565b509695505050505050565b6000602082840312156125c857600080fd5b813567ffffffffffffffff8111156125df57600080fd5b6112828482850161254b565b600081518084526020808501945080840160005b8381101561263157815180518852838101518489015260409081015190880152606090960195908201906001016125ff565b509495945050505050565b60608082528451908201819052600090608090818401906020808901855b8381101561269e5761268e858351805182526020810151602083015260408101516040830152606081015160608301525050565b938501939082019060010161265a565b5050858303818701528751808452928101935087810192915060005b828110156126e15783518051865282015182860152604090940193928101926001016126ba565b50505050828103604084015261127e81856125eb565b600080600080600060a0868803121561270f57600080fd5b8535945061271f6020870161244c565b94979496505050506040830135926060810135926080909101359150565b60006080828403121561274f57600080fd5b6040516080810181811067ffffffffffffffff82111715612772576127726124a9565b8060405250809150823581526020830135602082015260408301356040820152606083013560608201525092915050565b600080604083850312156127b657600080fd5b823567ffffffffffffffff808211156127ce57600080fd5b6127da8683870161254b565b93506020915081850135818111156127f157600080fd5b85019050601f8101861361280457600080fd5b803561281261256c82612527565b81815260079190911b8201830190838101908883111561283157600080fd5b928401925b8284101561285a57612848898561273d565b82528482019150608084019350612836565b80955050505050509250929050565b60008060006060848603121561287e57600080fd5b833567ffffffffffffffff8082111561289657600080fd5b6128a28783880161254b565b945060208601359150808211156128b857600080fd5b6128c48783880161254b565b935060408601359150808211156128da57600080fd5b506128e78682870161254b565b9150509250925092565b60008060a0838503121561290457600080fd5b82359150612915846020850161273d565b90509250929050565b6000806000806080858703121561293457600080fd5b843561293f816123d9565b966020860135965060408601359560600135945092505050565b600080600080600080600060e0888a03121561297457600080fd5b873561297f816123d9565b96506020880135955060408801359450606088013593506129a26080890161244c565b925060a0880135915060c0880135905092959891949750929550565b60008060008060008060c087890312156129d757600080fd5b863595506129e76020880161244c565b95989597505050506040840135936060810135936080820135935060a0909101359150565b600080600080600080600080610100898b031215612a2957600080fd5b8835612a34816123d9565b97506020890135965060408901359550612a5060608a0161244c565b979a969950949760808101359660a0820135965060c0820135955060e0909101359350915050565b60008060408385031215612a8b57600080fd5b823567ffffffffffffffff80821115612aa357600080fd5b612aaf8683870161254b565b93506020850135915080821115612ac557600080fd5b50612ad28582860161254b565b9150509250929050565b60008060008060808587031215612af257600080fd5b8435935060208501359250612b096040860161244c565b9396929550929360600135925050565b600080600060608486031215612b2e57600080fd5b505081359360208301359350604090920135919050565b60008060008060808587031215612b5b57600080fd5b5050823594602084013594506040840135936060013592509050565b60008060408385031215612b8a57600080fd5b50508035926020909101359150565b600080600080600060a08688031215612bb157600080fd5b505083359560208501359550604085013594606081013594506080013592509050565b600060208284031215612be657600080fd5b813561088f816123d9565b60008060008060008060c08789031215612c0a57600080fd5b8635612c15816123d9565b95506020870135945060408701359350612c316060880161244c565b92506080870135915060a087013590509295509295509295565b600060208284031215612c5d57600080fd5b815161088f816123d9565b7f4e487b7100000000000000000000000000000000000000000000000000000000600052603260045260246000fd5b7f4e487b7100000000000000000000000000000000000000000000000000000000600052601160045260246000fd5b60007fffffffffffffffffffffffffffffffffffffffffffffffffffffffffffffffff8203612cf757612cf7612c97565b5060010190565b7f4e487b7100000000000000000000000000000000000000000000000000000000600052601260045260246000fd5b600082612d3c57612d3c612cfe565b500490565b60008219821115612d5457612d54612c97565b500190565b6000817fffffffffffffffffffffffffffffffffffffffffffffffffffffffffffffffff0483118215151615612d9157612d91612c97565b500290565b600082821015612da857612da8612c97565b500390565b82815260a0810161088f6020830184805182526020810151602083015260408101516040830152606081015160608301525050565b6000808312837f800000000000000000000000000000000000000000000000000000000000000001831281151615612e1c57612e1c612c97565b837f7fffffffffffffffffffffffffffffffffffffffffffffffffffffffffffffff018313811615612e5057612e50612c97565b50500390565b60007f7fffffffffffffffffffffffffffffffffffffffffffffffffffffffffffffff600084136000841385830485118282161615612e9757612e97612c97565b7f80000000000000000000000000000000000000000000000000000000000000006000871286820588128184161615612ed257612ed2612c97565b60008712925087820587128484161615612eee57612eee612c97565b87850587128184161615612f0457612f04612c97565b505050929093029392505050565b600082612f2157612f21612cfe565b7fffffffffffffffffffffffffffffffffffffffffffffffffffffffffffffffff83147f800000000000000000000000000000000000000000000000000000000000000083141615612f7557612f75612c97565b500590565b6000808212827f7fffffffffffffffffffffffffffffffffffffffffffffffffffffffffffffff03841381151615612fb457612fb4612c97565b827f8000000000000000000000000000000000000000000000000000000000000000038412811615612fe857612fe8612c97565b50500190565b60006020828403121561300057600080fd5b505191905056fea264697066735822122003ac18185dc61bf1f366f0378b7f47296d2fd3c4f7e9b797908482c5449a679664736f6c634300080e0033",
  "immutableReferences": {
    "5": [
      {
        "length": 32,
        "start": 2200
      },
      {
        "length": 32,
        "start": 4945
      },
      {
        "length": 32,
        "start": 5925
      },
      {
        "length": 32,
        "start": 7545
      },
      {
        "length": 32,
        "start": 8419
      },
      {
        "length": 32,
        "start": 8628
      }
    ]
  },
  "source": "// SPDX-License-Identifier: MIT\nimport './interfaces/StorageInterfaceV5.sol';\npragma solidity 0.8.14;\n\ncontract GNSPairInfosV6_1 {\n\n    // Addresses\n    StorageInterfaceV5 immutable storageT;\n    address public manager;\n\n    // Constant parameters\n    uint constant PRECISION = 1e10;     // 10 decimals\n    uint constant LIQ_THRESHOLD_P = 90; // -90% (of collateral)\n\n    // Adjustable parameters\n    uint public maxNegativePnlOnOpenP = 40 * PRECISION; // PRECISION (%)\n\n    // Pair parameters\n    struct PairParams{\n        uint onePercentDepthAbove; // DAI\n        uint onePercentDepthBelow; // DAI\n        uint rolloverFeePerBlockP; // PRECISION (%)\n        uint fundingFeePerBlockP;  // PRECISION (%)\n    }\n\n    mapping(uint => PairParams) public pairParams;\n\n    // Pair acc funding fees\n    struct PairFundingFees{\n        int accPerOiLong;  // 1e18 (DAI)\n        int accPerOiShort; // 1e18 (DAI)\n        uint lastUpdateBlock;\n    }\n\n    mapping(uint => PairFundingFees) public pairFundingFees;\n\n    // Pair acc rollover fees\n    struct PairRolloverFees{\n        uint accPerCollateral; // 1e18 (DAI)\n        uint lastUpdateBlock;\n    }\n\n    mapping(uint => PairRolloverFees) public pairRolloverFees;\n\n    // Trade initial acc fees\n    struct TradeInitialAccFees{\n        uint rollover; // 1e18 (DAI)\n        int funding;   // 1e18 (DAI)\n        bool openedAfterUpdate;\n    }\n\n    mapping(\n        address => mapping(\n            uint => mapping(\n                uint => TradeInitialAccFees\n            )\n        )\n    ) public tradeInitialAccFees;\n\n    // Events\n    event ManagerUpdated(address value);\n    event MaxNegativePnlOnOpenPUpdated(uint value);\n    \n    event PairParamsUpdated(uint pairIndex, PairParams value);\n    event OnePercentDepthUpdated(uint pairIndex, uint valueAbove, uint valueBelow);\n    event RolloverFeePerBlockPUpdated(uint pairIndex, uint value);\n    event FundingFeePerBlockPUpdated(uint pairIndex, uint value);\n\n    event TradeInitialAccFeesStored(\n        address trader,\n        uint pairIndex,\n        uint index,\n        uint rollover,\n        int funding\n    );\n\n    event AccFundingFeesStored(uint pairIndex, int valueLong, int valueShort);\n    event AccRolloverFeesStored(uint pairIndex, uint value);\n\n    event FeesCharged(\n        uint pairIndex,\n        bool long,\n        uint collateral,   // 1e18 (DAI)\n        uint leverage,\n        int percentProfit, // PRECISION (%)\n        uint rolloverFees, // 1e18 (DAI)\n        int fundingFees    // 1e18 (DAI)\n    );\n\n    constructor(StorageInterfaceV5 _storageT){\n        storageT = _storageT;\n    }\n\n    // Modifiers\n    modifier onlyGov(){\n        require(msg.sender == storageT.gov(), \"GOV_ONLY\");\n        _;\n    }\n    modifier onlyManager(){\n        require(msg.sender == manager, \"MANAGER_ONLY\");\n        _;\n    }\n    modifier onlyCallbacks(){\n        require(msg.sender == storageT.callbacks(), \"CALLBACKS_ONLY\");\n        _;\n    }\n\n    // Set manager address\n    function setManager(address _manager) external onlyGov{\n        manager = _manager;\n\n        emit ManagerUpdated(_manager);\n    }\n\n    // Set max negative PnL % on trade opening\n    function setMaxNegativePnlOnOpenP(uint value) external onlyManager{\n        maxNegativePnlOnOpenP = value;\n\n        emit MaxNegativePnlOnOpenPUpdated(value);\n    }\n\n    // Set parameters for pair\n    function setPairParams(uint pairIndex, PairParams memory value) public onlyManager{\n        storeAccRolloverFees(pairIndex);\n        storeAccFundingFees(pairIndex);\n\n        pairParams[pairIndex] = value;\n\n        emit PairParamsUpdated(pairIndex, value);\n    }\n    function setPairParamsArray(\n        uint[] memory indices,\n        PairParams[] memory values\n    ) external onlyManager{\n        require(indices.length == values.length, \"WRONG_LENGTH\");\n\n        for(uint i = 0; i < indices.length; i++){\n            setPairParams(indices[i], values[i]);\n        }\n    }\n\n    // Set one percent depth for pair\n    function setOnePercentDepth(\n        uint pairIndex,\n        uint valueAbove,\n        uint valueBelow\n    ) public onlyManager{\n        PairParams storage p = pairParams[pairIndex];\n\n        p.onePercentDepthAbove = valueAbove;\n        p.onePercentDepthBelow = valueBelow;\n        \n        emit OnePercentDepthUpdated(pairIndex, valueAbove, valueBelow);\n    }\n    function setOnePercentDepthArray(\n        uint[] memory indices,\n        uint[] memory valuesAbove,\n        uint[] memory valuesBelow\n    ) external onlyManager{\n        require(indices.length == valuesAbove.length\n            && indices.length == valuesBelow.length, \"WRONG_LENGTH\");\n\n        for(uint i = 0; i < indices.length; i++){\n            setOnePercentDepth(indices[i], valuesAbove[i], valuesBelow[i]);\n        }\n    }\n\n    // Set rollover fee for pair\n    function setRolloverFeePerBlockP(uint pairIndex, uint value) public onlyManager{\n        require(value <= 25000000, \"TOO_HIGH\"); //  100% per day\n\n        storeAccRolloverFees(pairIndex);\n\n        pairParams[pairIndex].rolloverFeePerBlockP = value;\n        \n        emit RolloverFeePerBlockPUpdated(pairIndex, value);\n    }\n    function setRolloverFeePerBlockPArray(\n        uint[] memory indices,\n        uint[] memory values\n    ) external onlyManager{\n        require(indices.length == values.length, \"WRONG_LENGTH\");\n\n        for(uint i = 0; i < indices.length; i++){\n            setRolloverFeePerBlockP(indices[i], values[i]);\n        }\n    }\n\n    // Set funding fee for pair\n    function setFundingFeePerBlockP(uint pairIndex, uint value) public onlyManager{\n        require(value <= 10000000, \"TOO_HIGH\"); //  40% per day\n\n        storeAccFundingFees(pairIndex);\n\n        pairParams[pairIndex].fundingFeePerBlockP = value;\n        \n        emit FundingFeePerBlockPUpdated(pairIndex, value);\n    }\n    function setFundingFeePerBlockPArray(\n        uint[] memory indices,\n        uint[] memory values\n    ) external onlyManager{\n        require(indices.length == values.length, \"WRONG_LENGTH\");\n\n        for(uint i = 0; i < indices.length; i++){\n            setFundingFeePerBlockP(indices[i], values[i]);\n        }\n    }\n\n    // Store trade details when opened (acc fee values)\n    function storeTradeInitialAccFees(\n        address trader,\n        uint pairIndex,\n        uint index,\n        bool long\n    ) external onlyCallbacks{\n        storeAccFundingFees(pairIndex);\n\n        TradeInitialAccFees storage t = tradeInitialAccFees[trader][pairIndex][index];\n\n        t.rollover = getPendingAccRolloverFees(pairIndex);\n\n        t.funding = long ? \n            pairFundingFees[pairIndex].accPerOiLong :\n            pairFundingFees[pairIndex].accPerOiShort;\n\n        t.openedAfterUpdate = true;\n\n        emit TradeInitialAccFeesStored(trader, pairIndex, index, t.rollover, t.funding);\n    }\n\n    // Acc rollover fees (store right before fee % update)\n    function storeAccRolloverFees(uint pairIndex) private{\n        PairRolloverFees storage r = pairRolloverFees[pairIndex];\n\n        r.accPerCollateral = getPendingAccRolloverFees(pairIndex);\n        r.lastUpdateBlock = block.number;\n\n        emit AccRolloverFeesStored(pairIndex, r.accPerCollateral);\n    }\n    function getPendingAccRolloverFees(\n        uint pairIndex\n    ) public view returns(uint){ // 1e18 (DAI)\n        PairRolloverFees storage r = pairRolloverFees[pairIndex];\n        \n        return r.accPerCollateral +\n            (block.number - r.lastUpdateBlock)\n            * pairParams[pairIndex].rolloverFeePerBlockP\n            * 1e18 / PRECISION / 100;\n    }\n\n    // Acc funding fees (store right before trades opened / closed and fee % update)\n    function storeAccFundingFees(uint pairIndex) private{\n        PairFundingFees storage f = pairFundingFees[pairIndex];\n\n        (f.accPerOiLong, f.accPerOiShort) = getPendingAccFundingFees(pairIndex);\n        f.lastUpdateBlock = block.number;\n\n        emit AccFundingFeesStored(pairIndex, f.accPerOiLong, f.accPerOiShort);\n    }\n    function getPendingAccFundingFees(uint pairIndex) public view returns(\n        int valueLong,\n        int valueShort\n    ){\n        PairFundingFees storage f = pairFundingFees[pairIndex];\n\n        valueLong = f.accPerOiLong;\n        valueShort = f.accPerOiShort;\n\n        int openInterestDaiLong = int(storageT.openInterestDai(pairIndex, 0));\n        int openInterestDaiShort = int(storageT.openInterestDai(pairIndex, 1));\n\n        int fundingFeesPaidByLongs = (openInterestDaiLong - openInterestDaiShort)\n            * int(block.number - f.lastUpdateBlock)\n            * int(pairParams[pairIndex].fundingFeePerBlockP)\n            / int(PRECISION) / 100;\n\n        if(openInterestDaiLong > 0){\n            valueLong += fundingFeesPaidByLongs * 1e18\n                / openInterestDaiLong;\n        }\n\n        if(openInterestDaiShort > 0){\n            valueShort += fundingFeesPaidByLongs * 1e18 * (-1)\n                / openInterestDaiShort;\n        }\n    }\n\n    // Dynamic price impact value on trade opening\n    function getTradePriceImpact(\n        uint openPrice,        // PRECISION\n        uint pairIndex,\n        bool long,\n        uint tradeOpenInterest // 1e18 (DAI)\n    ) external view returns(\n        uint priceImpactP,     // PRECISION (%)\n        uint priceAfterImpact  // PRECISION\n    ){\n        (priceImpactP, priceAfterImpact) = getTradePriceImpactPure(\n            openPrice,\n            long,\n            storageT.openInterestDai(pairIndex, long ? 0 : 1),\n            tradeOpenInterest,\n            long ?\n                pairParams[pairIndex].onePercentDepthAbove :\n                pairParams[pairIndex].onePercentDepthBelow\n        );\n    }\n    function getTradePriceImpactPure(\n        uint openPrice,         // PRECISION\n        bool long,\n        uint startOpenInterest, // 1e18 (DAI)\n        uint tradeOpenInterest, // 1e18 (DAI)\n        uint onePercentDepth\n    ) public pure returns(\n        uint priceImpactP,      // PRECISION (%)\n        uint priceAfterImpact   // PRECISION\n    ){\n        if(onePercentDepth == 0){\n            return (0, openPrice);\n        }\n\n        priceImpactP = (startOpenInterest + tradeOpenInterest / 2)\n            * PRECISION / 1e18 / onePercentDepth;\n        \n        uint priceImpact = priceImpactP * openPrice / PRECISION / 100;\n\n        priceAfterImpact = long ? openPrice + priceImpact : openPrice - priceImpact;\n    }\n\n    // Rollover fee value\n    function getTradeRolloverFee(\n        address trader,\n        uint pairIndex,\n        uint index,\n        uint collateral // 1e18 (DAI)\n    ) public view returns(uint){ // 1e18 (DAI)\n        TradeInitialAccFees memory t = tradeInitialAccFees[trader][pairIndex][index];\n\n        if(!t.openedAfterUpdate){\n            return 0;\n        }\n\n        return getTradeRolloverFeePure(\n            t.rollover,\n            getPendingAccRolloverFees(pairIndex),\n            collateral\n        );\n    }\n    function getTradeRolloverFeePure(\n        uint accRolloverFeesPerCollateral,\n        uint endAccRolloverFeesPerCollateral,\n        uint collateral // 1e18 (DAI)\n    ) public pure returns(uint){ // 1e18 (DAI)\n        return (endAccRolloverFeesPerCollateral - accRolloverFeesPerCollateral)\n            * collateral / 1e18;\n    }\n\n    // Funding fee value\n    function getTradeFundingFee(\n        address trader,\n        uint pairIndex,\n        uint index,\n        bool long,\n        uint collateral, // 1e18 (DAI)\n        uint leverage\n    ) public view returns(\n        int // 1e18 (DAI) | Positive => Fee, Negative => Reward\n    ){\n        TradeInitialAccFees memory t = tradeInitialAccFees[trader][pairIndex][index];\n\n        if(!t.openedAfterUpdate){\n            return 0;\n        }\n\n        (int pendingLong, int pendingShort) = getPendingAccFundingFees(pairIndex);\n\n        return getTradeFundingFeePure(\n            t.funding,\n            long ? pendingLong : pendingShort,\n            collateral,\n            leverage\n        );\n    }\n    function getTradeFundingFeePure(\n        int accFundingFeesPerOi,\n        int endAccFundingFeesPerOi,\n        uint collateral, // 1e18 (DAI)\n        uint leverage\n    ) public pure returns(\n        int // 1e18 (DAI) | Positive => Fee, Negative => Reward\n    ){\n        return (endAccFundingFeesPerOi - accFundingFeesPerOi)\n            * int(collateral) * int(leverage) / 1e18;\n    }\n\n    // Liquidation price value after rollover and funding fees\n    function getTradeLiquidationPrice(\n        address trader,\n        uint pairIndex,\n        uint index,\n        uint openPrice,  // PRECISION\n        bool long,\n        uint collateral, // 1e18 (DAI)\n        uint leverage\n    ) external view returns(uint){ // PRECISION\n        return getTradeLiquidationPricePure(\n            openPrice,\n            long,\n            collateral,\n            leverage,\n            getTradeRolloverFee(trader, pairIndex, index, collateral),\n            getTradeFundingFee(trader, pairIndex, index, long, collateral, leverage)\n        );\n    }\n    function getTradeLiquidationPricePure(\n        uint openPrice,   // PRECISION\n        bool long,\n        uint collateral,  // 1e18 (DAI)\n        uint leverage,\n        uint rolloverFee, // 1e18 (DAI)\n        int fundingFee    // 1e18 (DAI)\n    ) public pure returns(uint){ // PRECISION\n        int liqPriceDistance = int(openPrice) * (\n                int(collateral * LIQ_THRESHOLD_P / 100)\n                - int(rolloverFee) - fundingFee\n            ) / int(collateral) / int(leverage);\n\n        int liqPrice = long ?\n            int(openPrice) - liqPriceDistance :\n            int(openPrice) + liqPriceDistance;\n\n        return liqPrice > 0 ? uint(liqPrice) : 0;\n    }\n\n    // Dai sent to trader after PnL and fees\n    function getTradeValue(\n        address trader,\n        uint pairIndex,\n        uint index,\n        bool long,\n        uint collateral,   // 1e18 (DAI)\n        uint leverage,\n        int percentProfit, // PRECISION (%)\n        uint closingFee    // 1e18 (DAI)\n    ) external onlyCallbacks returns(uint amount){ // 1e18 (DAI)\n        storeAccFundingFees(pairIndex);\n\n        uint r = getTradeRolloverFee(trader, pairIndex, index, collateral);\n        int f = getTradeFundingFee(trader, pairIndex, index, long, collateral, leverage);\n\n        amount = getTradeValuePure(collateral, percentProfit, r, f, closingFee);\n\n        emit FeesCharged(pairIndex, long, collateral, leverage, percentProfit, r, f);\n    }\n    function getTradeValuePure(\n        uint collateral,   // 1e18 (DAI)\n        int percentProfit, // PRECISION (%)\n        uint rolloverFee,  // 1e18 (DAI)\n        int fundingFee,    // 1e18 (DAI)\n        uint closingFee    // 1e18 (DAI)\n    ) public pure returns(uint){ // 1e18 (DAI)\n        int value = int(collateral)\n            + int(collateral) * percentProfit / int(PRECISION) / 100\n            - int(rolloverFee) - fundingFee;\n\n        if(value <= int(collateral) * int(100 - LIQ_THRESHOLD_P) / 100){\n            return 0;\n        }\n\n        value -= int(closingFee);\n\n        return value > 0 ? uint(value) : 0;\n    }\n\n    // Useful getters\n    function getPairInfos(uint[] memory indices) external view returns(\n        PairParams[] memory,\n        PairRolloverFees[] memory,\n        PairFundingFees[] memory\n    ){\n        PairParams[] memory params = new PairParams[](indices.length);\n        PairRolloverFees[] memory rolloverFees = new PairRolloverFees[](indices.length);\n        PairFundingFees[] memory fundingFees = new PairFundingFees[](indices.length);\n\n        for(uint i = 0; i < indices.length; i++){\n            uint index = indices[i];\n\n            params[i] = pairParams[index];\n            rolloverFees[i] = pairRolloverFees[index];\n            fundingFees[i] = pairFundingFees[index];\n        }\n\n        return (params, rolloverFees, fundingFees);\n    }\n    function getOnePercentDepthAbove(uint pairIndex) external view returns(uint){\n        return pairParams[pairIndex].onePercentDepthAbove;\n    }\n    function getOnePercentDepthBelow(uint pairIndex) external view returns(uint){\n        return pairParams[pairIndex].onePercentDepthBelow;\n    }\n    function getRolloverFeePerBlockP(uint pairIndex) external view returns(uint){\n        return pairParams[pairIndex].rolloverFeePerBlockP;\n    }\n    function getFundingFeePerBlockP(uint pairIndex) external view returns(uint){\n        return pairParams[pairIndex].fundingFeePerBlockP;\n    }\n    function getAccRolloverFees(uint pairIndex) external view returns(uint){\n        return pairRolloverFees[pairIndex].accPerCollateral;\n    }\n    function getAccRolloverFeesUpdateBlock(uint pairIndex) external view returns(uint){\n        return pairRolloverFees[pairIndex].lastUpdateBlock;\n    }\n    function getAccFundingFeesLong(uint pairIndex) external view returns(int){\n        return pairFundingFees[pairIndex].accPerOiLong;\n    }\n    function getAccFundingFeesShort(uint pairIndex) external view returns(int){\n        return pairFundingFees[pairIndex].accPerOiShort;\n    }\n    function getAccFundingFeesUpdateBlock(uint pairIndex) external view returns(uint){\n        return pairFundingFees[pairIndex].lastUpdateBlock;\n    }\n    function getTradeInitialAccRolloverFeesPerCollateral(\n        address trader,\n        uint pairIndex,\n        uint index\n    ) external view returns(uint){\n        return tradeInitialAccFees[trader][pairIndex][index].rollover;\n    }\n    function getTradeInitialAccFundingFeesPerOi(\n        address trader,\n        uint pairIndex,\n        uint index\n    ) external view returns(int){\n        return tradeInitialAccFees[trader][pairIndex][index].funding;\n    }\n    function getTradeOpenedAfterUpdate(\n        address trader,\n        uint pairIndex,\n        uint index\n    ) external view returns(bool){\n        return tradeInitialAccFees[trader][pairIndex][index].openedAfterUpdate;\n    }\n}",
  "sourcePath": "/Users/jnai/clones/gTrade-v6.1/contracts/GNSPairInfosV6_1.sol",
  "compiler": {
    "name": "solc",
    "version": "0.8.14+commit.80d49f37.Emscripten.clang"
  },
  "schemaVersion": "3.4.16",
  "updatedAt": "2024-06-11T10:08:40.199Z",
  "devdoc": {
    "kind": "dev",
    "methods": {},
    "version": 1
  },
  "userdoc": {
    "kind": "user",
    "methods": {},
    "version": 1
  }
}