{
  "contractName": "GNSTradingCallbacksV6_1",
  "abi": [
    {
      "inputs": [
        {
          "internalType": "contract StorageInterfaceV5",
          "name": "_storageT",
          "type": "address"
        },
        {
          "internalType": "contract GNSPairInfosInterfaceV6",
          "name": "_pairInfos",
          "type": "address"
        }
      ],
      "stateMutability": "nonpayable",
      "type": "constructor"
    },
    {
      "anonymous": false,
      "inputs": [
        {
          "indexed": false,
          "internalType": "string",
          "name": "name",
          "type": "string"
        },
        {
          "indexed": false,
          "internalType": "address",
          "name": "a",
          "type": "address"
        }
      ],
      "name": "AddressUpdated",
      "type": "event"
    },
    {
      "anonymous": false,
      "inputs": [
        {
          "indexed": false,
          "internalType": "bool",
          "name": "done",
          "type": "bool"
        }
      ],
      "name": "Done",
      "type": "event"
    },
    {
      "anonymous": false,
      "inputs": [
        {
          "indexed": false,
          "internalType": "uint256",
          "name": "orderId",
          "type": "uint256"
        },
        {
          "indexed": false,
          "internalType": "uint256",
          "name": "limitIndex",
          "type": "uint256"
        },
        {
          "components": [
            {
              "internalType": "address",
              "name": "trader",
              "type": "address"
            },
            {
              "internalType": "uint256",
              "name": "pairIndex",
              "type": "uint256"
            },
            {
              "internalType": "uint256",
              "name": "index",
              "type": "uint256"
            },
            {
              "internalType": "uint256",
              "name": "initialPosToken",
              "type": "uint256"
            },
            {
              "internalType": "uint256",
              "name": "positionSizeDai",
              "type": "uint256"
            },
            {
              "internalType": "uint256",
              "name": "openPrice",
              "type": "uint256"
            },
            {
              "internalType": "bool",
              "name": "buy",
              "type": "bool"
            },
            {
              "internalType": "uint256",
              "name": "leverage",
              "type": "uint256"
            },
            {
              "internalType": "uint256",
              "name": "tp",
              "type": "uint256"
            },
            {
              "internalType": "uint256",
              "name": "sl",
              "type": "uint256"
            }
          ],
          "indexed": false,
          "internalType": "struct StorageInterfaceV5.Trade",
          "name": "t",
          "type": "tuple"
        },
        {
          "indexed": false,
          "internalType": "address",
          "name": "nftHolder",
          "type": "address"
        },
        {
          "indexed": false,
          "internalType": "enum StorageInterfaceV5.LimitOrder",
          "name": "orderType",
          "type": "uint8"
        },
        {
          "indexed": false,
          "internalType": "uint256",
          "name": "price",
          "type": "uint256"
        },
        {
          "indexed": false,
          "internalType": "uint256",
          "name": "priceImpactP",
          "type": "uint256"
        },
        {
          "indexed": false,
          "internalType": "uint256",
          "name": "positionSizeDai",
          "type": "uint256"
        },
        {
          "indexed": false,
          "internalType": "int256",
          "name": "percentProfit",
          "type": "int256"
        },
        {
          "indexed": false,
          "internalType": "uint256",
          "name": "daiSentToTrader",
          "type": "uint256"
        }
      ],
      "name": "LimitExecuted",
      "type": "event"
    },
    {
      "anonymous": false,
      "inputs": [
        {
          "indexed": false,
          "internalType": "uint256",
          "name": "orderId",
          "type": "uint256"
        },
        {
          "indexed": false,
          "internalType": "address",
          "name": "trader",
          "type": "address"
        },
        {
          "indexed": false,
          "internalType": "uint256",
          "name": "pairIndex",
          "type": "uint256"
        },
        {
          "indexed": false,
          "internalType": "uint256",
          "name": "index",
          "type": "uint256"
        }
      ],
      "name": "MarketCloseCanceled",
      "type": "event"
    },
    {
      "anonymous": false,
      "inputs": [
        {
          "indexed": false,
          "internalType": "uint256",
          "name": "orderId",
          "type": "uint256"
        },
        {
          "components": [
            {
              "internalType": "address",
              "name": "trader",
              "type": "address"
            },
            {
              "internalType": "uint256",
              "name": "pairIndex",
              "type": "uint256"
            },
            {
              "internalType": "uint256",
              "name": "index",
              "type": "uint256"
            },
            {
              "internalType": "uint256",
              "name": "initialPosToken",
              "type": "uint256"
            },
            {
              "internalType": "uint256",
              "name": "positionSizeDai",
              "type": "uint256"
            },
            {
              "internalType": "uint256",
              "name": "openPrice",
              "type": "uint256"
            },
            {
              "internalType": "bool",
              "name": "buy",
              "type": "bool"
            },
            {
              "internalType": "uint256",
              "name": "leverage",
              "type": "uint256"
            },
            {
              "internalType": "uint256",
              "name": "tp",
              "type": "uint256"
            },
            {
              "internalType": "uint256",
              "name": "sl",
              "type": "uint256"
            }
          ],
          "indexed": false,
          "internalType": "struct StorageInterfaceV5.Trade",
          "name": "t",
          "type": "tuple"
        },
        {
          "indexed": false,
          "internalType": "bool",
          "name": "open",
          "type": "bool"
        },
        {
          "indexed": false,
          "internalType": "uint256",
          "name": "price",
          "type": "uint256"
        },
        {
          "indexed": false,
          "internalType": "uint256",
          "name": "priceImpactP",
          "type": "uint256"
        },
        {
          "indexed": false,
          "internalType": "uint256",
          "name": "positionSizeDai",
          "type": "uint256"
        },
        {
          "indexed": false,
          "internalType": "int256",
          "name": "percentProfit",
          "type": "int256"
        },
        {
          "indexed": false,
          "internalType": "uint256",
          "name": "daiSentToTrader",
          "type": "uint256"
        }
      ],
      "name": "MarketExecuted",
      "type": "event"
    },
    {
      "anonymous": false,
      "inputs": [
        {
          "indexed": false,
          "internalType": "uint256",
          "name": "orderId",
          "type": "uint256"
        },
        {
          "indexed": false,
          "internalType": "address",
          "name": "trader",
          "type": "address"
        },
        {
          "indexed": false,
          "internalType": "uint256",
          "name": "pairIndex",
          "type": "uint256"
        }
      ],
      "name": "MarketOpenCanceled",
      "type": "event"
    },
    {
      "anonymous": false,
      "inputs": [
        {
          "indexed": false,
          "internalType": "string",
          "name": "name",
          "type": "string"
        },
        {
          "indexed": false,
          "internalType": "uint256",
          "name": "value",
          "type": "uint256"
        }
      ],
      "name": "NumberUpdated",
      "type": "event"
    },
    {
      "anonymous": false,
      "inputs": [
        {
          "indexed": false,
          "internalType": "bool",
          "name": "paused",
          "type": "bool"
        }
      ],
      "name": "Pause",
      "type": "event"
    },
    {
      "anonymous": false,
      "inputs": [
        {
          "indexed": false,
          "internalType": "uint256",
          "name": "orderId",
          "type": "uint256"
        },
        {
          "indexed": false,
          "internalType": "address",
          "name": "trader",
          "type": "address"
        },
        {
          "indexed": false,
          "internalType": "uint256",
          "name": "pairIndex",
          "type": "uint256"
        },
        {
          "indexed": false,
          "internalType": "uint256",
          "name": "index",
          "type": "uint256"
        }
      ],
      "name": "SlCanceled",
      "type": "event"
    },
    {
      "anonymous": false,
      "inputs": [
        {
          "indexed": false,
          "internalType": "uint256",
          "name": "orderId",
          "type": "uint256"
        },
        {
          "indexed": false,
          "internalType": "address",
          "name": "trader",
          "type": "address"
        },
        {
          "indexed": false,
          "internalType": "uint256",
          "name": "pairIndex",
          "type": "uint256"
        },
        {
          "indexed": false,
          "internalType": "uint256",
          "name": "index",
          "type": "uint256"
        },
        {
          "indexed": false,
          "internalType": "uint256",
          "name": "newSl",
          "type": "uint256"
        }
      ],
      "name": "SlUpdated",
      "type": "event"
    },
    {
      "inputs": [],
      "name": "isDone",
      "outputs": [
        {
          "internalType": "bool",
          "name": "",
          "type": "bool"
        }
      ],
      "stateMutability": "view",
      "type": "function"
    },
    {
      "inputs": [],
      "name": "isPaused",
      "outputs": [
        {
          "internalType": "bool",
          "name": "",
          "type": "bool"
        }
      ],
      "stateMutability": "view",
      "type": "function"
    },
    {
      "inputs": [],
      "name": "vaultFeeP",
      "outputs": [
        {
          "internalType": "uint256",
          "name": "",
          "type": "uint256"
        }
      ],
      "stateMutability": "view",
      "type": "function"
    },
    {
      "inputs": [
        {
          "internalType": "uint256",
          "name": "_vaultFeeP",
          "type": "uint256"
        }
      ],
      "name": "setVaultFeeP",
      "outputs": [],
      "stateMutability": "nonpayable",
      "type": "function"
    },
    {
      "inputs": [],
      "name": "pause",
      "outputs": [],
      "stateMutability": "nonpayable",
      "type": "function"
    },
    {
      "inputs": [],
      "name": "done",
      "outputs": [],
      "stateMutability": "nonpayable",
      "type": "function"
    },
    {
      "inputs": [
        {
          "components": [
            {
              "internalType": "uint256",
              "name": "orderId",
              "type": "uint256"
            },
            {
              "internalType": "uint256",
              "name": "price",
              "type": "uint256"
            },
            {
              "internalType": "uint256",
              "name": "spreadP",
              "type": "uint256"
            }
          ],
          "internalType": "struct GNSTradingCallbacksV6_1.AggregatorAnswer",
          "name": "a",
          "type": "tuple"
        }
      ],
      "name": "openTradeMarketCallback",
      "outputs": [],
      "stateMutability": "nonpayable",
      "type": "function"
    },
    {
      "inputs": [
        {
          "components": [
            {
              "internalType": "uint256",
              "name": "orderId",
              "type": "uint256"
            },
            {
              "internalType": "uint256",
              "name": "price",
              "type": "uint256"
            },
            {
              "internalType": "uint256",
              "name": "spreadP",
              "type": "uint256"
            }
          ],
          "internalType": "struct GNSTradingCallbacksV6_1.AggregatorAnswer",
          "name": "a",
          "type": "tuple"
        }
      ],
      "name": "closeTradeMarketCallback",
      "outputs": [],
      "stateMutability": "nonpayable",
      "type": "function"
    },
    {
      "inputs": [
        {
          "components": [
            {
              "internalType": "uint256",
              "name": "orderId",
              "type": "uint256"
            },
            {
              "internalType": "uint256",
              "name": "price",
              "type": "uint256"
            },
            {
              "internalType": "uint256",
              "name": "spreadP",
              "type": "uint256"
            }
          ],
          "internalType": "struct GNSTradingCallbacksV6_1.AggregatorAnswer",
          "name": "a",
          "type": "tuple"
        }
      ],
      "name": "executeNftOpenOrderCallback",
      "outputs": [],
      "stateMutability": "nonpayable",
      "type": "function"
    },
    {
      "inputs": [
        {
          "components": [
            {
              "internalType": "uint256",
              "name": "orderId",
              "type": "uint256"
            },
            {
              "internalType": "uint256",
              "name": "price",
              "type": "uint256"
            },
            {
              "internalType": "uint256",
              "name": "spreadP",
              "type": "uint256"
            }
          ],
          "internalType": "struct GNSTradingCallbacksV6_1.AggregatorAnswer",
          "name": "a",
          "type": "tuple"
        }
      ],
      "name": "executeNftCloseOrderCallback",
      "outputs": [],
      "stateMutability": "nonpayable",
      "type": "function"
    },
    {
      "inputs": [
        {
          "components": [
            {
              "internalType": "uint256",
              "name": "orderId",
              "type": "uint256"
            },
            {
              "internalType": "uint256",
              "name": "price",
              "type": "uint256"
            },
            {
              "internalType": "uint256",
              "name": "spreadP",
              "type": "uint256"
            }
          ],
          "internalType": "struct GNSTradingCallbacksV6_1.AggregatorAnswer",
          "name": "a",
          "type": "tuple"
        }
      ],
      "name": "updateSlCallback",
      "outputs": [],
      "stateMutability": "nonpayable",
      "type": "function"
    }
  ],
  "bytecode": "0x60c0604052600a6000553480156200001657600080fd5b5060405162005f3038038062005f3083398101604081905262000039916200006a565b6001600160a01b039182166080521660a052620000a9565b6001600160a01b03811681146200006757600080fd5b50565b600080604083850312156200007e57600080fd5b82516200008b8162000051565b60208401519092506200009e8162000051565b809150509250929050565b60805160a051615cb66200027a6000396000818161084301528181610a1b01528181611e97015281816129fb01528181612c2e015281816148480152614c8e01526000818161019f01528181610347015281816103c50152818161051d01528181610591015281816106460152818161072601528181610bdc01528181610d9201528181610e0001528181610f72015281816110d401528181611215015281816113c70152818161159c0152818161173f01528181611814015281816118860152818161199001528181611a4501528181611b1f015281816122cf01528181612477015281816124e60152818161264e015281816127bf0152818161296201528181612cc601528181612cf501528181612d1b01528181612f9901528181613008015281816131ab0152818161328f0152818161335e015281816133cf015281816135420152818161360a0152818161396701528181613a1701528181613b3101528181613bb001528181613e0a01528181613ef401528181613fe10152818161428301528181614355015281816143f001528181614671015281816147100152818161496001528181614ad501528181614b7901528181614db601528181614eb6015261507b0152615cb66000f3fe608060405234801561001057600080fd5b50600436106100c95760003560e01c80638f06222711610081578063b5228d131161005b578063b5228d1314610160578063c4493e3714610173578063e2f537101461018a57600080fd5b80638f06222714610124578063ae8421e11461014b578063b187bd261461015357600080fd5b80632e905d6e116100b25780632e905d6e146100f657806380d670eb146101095780638456cb591461011c57600080fd5b806302982635146100ce5780631d98d0d0146100e3575b600080fd5b6100e16100dc3660046152f7565b61019d565b005b6100e16100f13660046152f7565b610dfe565b6100e161010436600461537a565b6113c5565b6100e16101173660046152f7565b61159a565b6100e16124e4565b60015461013690610100900460ff1681565b60405190151581526020015b60405180910390f35b6100e161264c565b6001546101369060ff1681565b6100e161016e3660046152f7565b6127bd565b61017c60005481565b604051908152602001610142565b6100e16101983660046152f7565b613006565b7f00000000000000000000000000000000000000000000000000000000000000006001600160a01b0316633078fff56040518163ffffffff1660e01b8152600401602060405180830381865afa1580156101fb573d6000803e3d6000fd5b505050506040513d601f19601f8201168201806040525081019061021f91906153a8565b6001600160a01b0316336001600160a01b03161461029e576040517f08c379a000000000000000000000000000000000000000000000000000000000815260206004820152600f60248201527f41474752454741544f525f4f4e4c59000000000000000000000000000000000060448201526064015b60405180910390fd5b600154610100900460ff1615610312576040517f08c379a00000000000000000000000000000000000000000000000000000000081526004016102959060208082526004908201527f444f4e4500000000000000000000000000000000000000000000000000000000604082015260600190565b80516040517f99794d350000000000000000000000000000000000000000000000000000000081526000916001600160a01b037f000000000000000000000000000000000000000000000000000000000000000016916399794d359161037e9160040190815260200190565b60c060405180830381865afa15801561039b573d6000803e3d6000fd5b505050506040513d601f19601f820116820180604052508101906103bf91906153dc565b905060007f00000000000000000000000000000000000000000000000000000000000000006001600160a01b0316633078fff56040518163ffffffff1660e01b8152600401602060405180830381865afa158015610421573d6000803e3d6000fd5b505050506040513d601f19601f8201168201806040525081019061044591906153a8565b6001600160a01b0316635ad9f9936040518163ffffffff1660e01b8152600401602060405180830381865afa158015610482573d6000803e3d6000fd5b505050506040513d601f19601f820116820180604052508101906104a691906153a8565b60015490915060ff161580156104bf5750602083015115155b801561058857506040808301516060840151608085015192517fdcdf339a0000000000000000000000000000000000000000000000000000000081526001600160a01b039283166004820152602481019190915260448101929092527f0000000000000000000000000000000000000000000000000000000000000000169063dcdf339a90606401602060405180830381865afa158015610564573d6000803e3d6000fd5b505050506040513d601f19601f820116820180604052508101906105889190615464565b80156106c757507f00000000000000000000000000000000000000000000000000000000000000006001600160a01b031663f8d24b486040518163ffffffff1660e01b8152600401602060405180830381865afa1580156105ed573d6000803e3d6000fd5b505050506040513d601f19601f82011682018060405250810190610611919061547f565b60208301516040517faa3b7d7700000000000000000000000000000000000000000000000000000000815260048101919091527f00000000000000000000000000000000000000000000000000000000000000006001600160a01b03169063aa3b7d7790602401602060405180830381865afa158015610695573d6000803e3d6000fd5b505050506040513d601f19601f820116820180604052508101906106b9919061547f565b6106c391906154c7565b4310155b15610cba576040828101516060840151608085015192517fb8878a2c0000000000000000000000000000000000000000000000000000000081526001600160a01b039283166004820152602481019190915260448101929092526000917f00000000000000000000000000000000000000000000000000000000000000009091169063b8878a2c906064016101a060405180830381865afa158015610770573d6000803e3d6000fd5b505050506040513d601f19601f8201168201806040525081019061079491906154df565b6040808501516060860151608087015192517fd4de65ea0000000000000000000000000000000000000000000000000000000081526001600160a01b0392831660048201526024810191909152604481019290925291925060009184169063d4de65ea90606401602060405180830381865afa158015610818573d6000803e3d6000fd5b505050506040513d601f19601f8201168201806040525081019061083c9190615592565b90506000807f00000000000000000000000000000000000000000000000000000000000000006001600160a01b0316637ea95f3261088c89602001518a6040015188608001518960a0015161399e565b86602001518760a001518860c0015189606001516108aa91906155b3565b6040517fffffffff0000000000000000000000000000000000000000000000000000000060e087901b168152600481019490945260248401929092521515604483015260648201526084016040805180830381865afa158015610911573d6000803e3d6000fd5b505050506040513d601f19601f8201168201806040525081019061093591906155f0565b602089018190529092509050600083600281111561095557610955615614565b146109cd57600183600281111561096e5761096e615614565b146109a0578360a0015161098e57836101400151876020015111156109ef565b836101200151876020015110156109ef565b8360a001516109bb57836101200151876020015110156109ef565b836101400151876020015111156109ef565b8361012001518760200151101580156109ef5750836101400151876020015111155b8015610a125750610a1284602001518560a0015186606001518760c00151613a12565b8015610aad57507f00000000000000000000000000000000000000000000000000000000000000006001600160a01b03166380f6cfc26040518163ffffffff1660e01b8152600401602060405180830381865afa158015610a77573d6000803e3d6000fd5b505050506040513d601f19601f82011682018060405250810190610a9b919061547f565b60c0850151610aaa90846155b3565b11155b15610cb557600080610b8560405180610140016040528088600001516001600160a01b031681526020018860200151815260200160008152602001600081526020018860600151815260200160016002811115610b0c57610b0c615614565b886002811115610b1e57610b1e615614565b14610b2d578b60200151610b48565b8860a00151610b4157886101200151610b48565b8861014001515b81526020018860a00151151581526020018860c0015181526020018860e00151815260200188610100015181525089602001518a60800151613da4565b875160208901516040808b015190517fb4b0f5670000000000000000000000000000000000000000000000000000000081526001600160a01b039384166004820152602481019290925260448201529294509092507f0000000000000000000000000000000000000000000000000000000000000000169063b4b0f56790606401600060405180830381600087803b158015610c2057600080fd5b505af1158015610c34573d6000803e3d6000fd5b505050507f165b0f8d6347f7ebe92729625b03ace41aeea8fd7ebf640f89f2593ab0db63d189600001518960800151848b6000015160038760a001518a6402540be400898b60600151610c8791906155b3565b610c919190615672565b600080604051610caa9a99989796959493929190615735565b60405180910390a150505b505050505b806001600160a01b031663bf654d2b604051806080016040528085604001516001600160a01b0316815260200185606001518152602001856080015181526020018560a001516003811115610d1157610d11615614565b8152506040518263ffffffff1660e01b8152600401610d3091906157d8565b600060405180830381600087803b158015610d4a57600080fd5b505af1158015610d5e573d6000803e3d6000fd5b505084516040517f201d8bdb00000000000000000000000000000000000000000000000000000000815260048101919091527f00000000000000000000000000000000000000000000000000000000000000006001600160a01b0316925063201d8bdb91506024015b600060405180830381600087803b158015610de157600080fd5b505af1158015610df5573d6000803e3d6000fd5b50505050505050565b7f00000000000000000000000000000000000000000000000000000000000000006001600160a01b0316633078fff56040518163ffffffff1660e01b8152600401602060405180830381865afa158015610e5c573d6000803e3d6000fd5b505050506040513d601f19601f82011682018060405250810190610e8091906153a8565b6001600160a01b0316336001600160a01b031614610efa576040517f08c379a000000000000000000000000000000000000000000000000000000000815260206004820152600f60248201527f41474752454741544f525f4f4e4c5900000000000000000000000000000000006044820152606401610295565b600154610100900460ff1615610f6e576040517f08c379a00000000000000000000000000000000000000000000000000000000081526004016102959060208082526004908201527f444f4e4500000000000000000000000000000000000000000000000000000000604082015260600190565b60007f00000000000000000000000000000000000000000000000000000000000000006001600160a01b0316633078fff56040518163ffffffff1660e01b8152600401602060405180830381865afa158015610fce573d6000803e3d6000fd5b505050506040513d601f19601f82011682018060405250810190610ff291906153a8565b82516040517f37a3dba300000000000000000000000000000000000000000000000000000000815260048101919091529091506000906001600160a01b038316906337a3dba39060240160c060405180830381865afa158015611059573d6000803e3d6000fd5b505050506040513d601f19601f8201168201806040525081019061107d91906157ec565b8051602082015160408084015190517fa3a80ffe0000000000000000000000000000000000000000000000000000000081526001600160a01b039384166004820152602481019290925260448201529192506000917f00000000000000000000000000000000000000000000000000000000000000009091169063a3a80ffe9060640161014060405180830381865afa15801561111e573d6000803e3d6000fd5b505050506040513d601f19601f8201168201806040525081019061114291906158eb565b9050836020015160001415801561115d575060008160e00151115b80156111745750816080015115158160c001511515145b8015611187575081606001518160a00151145b80156111b557508060c001516111a85783602001518260a0015110156111b5565b83602001518260a0015111155b156112eb578151602083015160408085015160a086015191517fa35441810000000000000000000000000000000000000000000000000000000081526001600160a01b0394851660048201526024810193909352604483015260648201527f00000000000000000000000000000000000000000000000000000000000000009091169063a354418190608401600060405180830381600087803b15801561125b57600080fd5b505af115801561126f573d6000803e3d6000fd5b505085518451602086015160408088015160a089015191517fe57d6aa2ba102529f6f4f17498f4a95f866a5513e746e676e6cd037c991b6fe997506112de96509091909485526001600160a01b0393909316602085015260408401919091526060830152608082015260a00190565b60405180910390a1611349565b8351825160208085015160408087015181519586526001600160a01b03909416928501929092529083015260608201527f9f8afe891d3a14944e4640a13f6655d57305c4fe858e7b541a931c5b70d8f8c29060800160405180910390a15b83516040517f61417a4300000000000000000000000000000000000000000000000000000000815260048101919091526001600160a01b038416906361417a4390602401600060405180830381600087803b1580156113a757600080fd5b505af11580156113bb573d6000803e3d6000fd5b5050505050505050565b7f00000000000000000000000000000000000000000000000000000000000000006001600160a01b03166312d43a516040518163ffffffff1660e01b8152600401602060405180830381865afa158015611423573d6000803e3d6000fd5b505050506040513d601f19601f8201168201806040525081019061144791906153a8565b6001600160a01b0316336001600160a01b0316146114c1576040517f08c379a000000000000000000000000000000000000000000000000000000000815260206004820152600860248201527f474f565f4f4e4c590000000000000000000000000000000000000000000000006044820152606401610295565b603281111561152c576040517f08c379a000000000000000000000000000000000000000000000000000000000815260206004820152600860248201527f41424f56455f35300000000000000000000000000000000000000000000000006044820152606401610295565b6000819055604080518181526009818301527f7661756c7446656550000000000000000000000000000000000000000000000060608201526020810183905290517f8cf3e35f6221b16e1670a3413180c9484bf5aa71787905909fa82a6a2662e9ab9181900360800190a150565b7f00000000000000000000000000000000000000000000000000000000000000006001600160a01b0316633078fff56040518163ffffffff1660e01b8152600401602060405180830381865afa1580156115f8573d6000803e3d6000fd5b505050506040513d601f19601f8201168201806040525081019061161c91906153a8565b6001600160a01b0316336001600160a01b031614611696576040517f08c379a000000000000000000000000000000000000000000000000000000000815260206004820152600f60248201527f41474752454741544f525f4f4e4c5900000000000000000000000000000000006044820152606401610295565b600154610100900460ff161561170a576040517f08c379a00000000000000000000000000000000000000000000000000000000081526004016102959060208082526004908201527f444f4e4500000000000000000000000000000000000000000000000000000000604082015260600190565b80516040517f99794d350000000000000000000000000000000000000000000000000000000081526000916001600160a01b037f000000000000000000000000000000000000000000000000000000000000000016916399794d35916117769160040190815260200190565b60c060405180830381865afa158015611793573d6000803e3d6000fd5b505050506040513d601f19601f820116820180604052508101906117b791906153dc565b6040808201516060830151608084015192517fa3a80ffe0000000000000000000000000000000000000000000000000000000081526001600160a01b039283166004820152602481019190915260448101929092529192506000917f0000000000000000000000000000000000000000000000000000000000000000169063a3a80ffe9060640161014060405180830381865afa15801561185c573d6000803e3d6000fd5b505050506040513d601f19601f8201168201806040525081019061188091906158eb565b905060007f00000000000000000000000000000000000000000000000000000000000000006001600160a01b0316633078fff56040518163ffffffff1660e01b8152600401602060405180830381865afa1580156118e2573d6000803e3d6000fd5b505050506040513d601f19601f8201168201806040525081019061190691906153a8565b90506000816001600160a01b0316635ad9f9936040518163ffffffff1660e01b8152600401602060405180830381865afa158015611948573d6000803e3d6000fd5b505050506040513d601f19601f8201168201806040525081019061196c91906153a8565b90508460200151600014158015611987575060008360e00151115b8015611ac657507f00000000000000000000000000000000000000000000000000000000000000006001600160a01b031663f8d24b486040518163ffffffff1660e01b8152600401602060405180830381865afa1580156119ec573d6000803e3d6000fd5b505050506040513d601f19601f82011682018060405250810190611a10919061547f565b60208501516040517faa3b7d7700000000000000000000000000000000000000000000000000000000815260048101919091527f00000000000000000000000000000000000000000000000000000000000000006001600160a01b03169063aa3b7d7790602401602060405180830381865afa158015611a94573d6000803e3d6000fd5b505050506040513d601f19601f82011682018060405250810190611ab8919061547f565b611ac291906154c7565b4310155b1561239f578251602084015160408086015190517f8c8ff1d50000000000000000000000000000000000000000000000000000000081526001600160a01b039384166004820152602481019290925260448201526000917f00000000000000000000000000000000000000000000000000000000000000001690638c8ff1d59060640160c060405180830381865afa158015611b66573d6000803e3d6000fd5b505050506040513d601f19601f82011682018060405250810190611b8a9190615908565b90506000836001600160a01b03166335b03c176040518163ffffffff1660e01b8152600401602060405180830381865afa158015611bcc573d6000803e3d6000fd5b505050506040513d601f19601f82011682018060405250810190611bf091906153a8565b9050611c2b6040518060c001604052806000815260200160008152602001600081526020016000815260200160008152602001600081525090565b60208601516040517f24abd3fb00000000000000000000000000000000000000000000000000000000815260048101919091526001600160a01b038316906324abd3fb90602401602060405180830381865afa158015611c8f573d6000803e3d6000fd5b505050506040513d601f19601f82011682018060405250810190611cb39190615464565b611cc1578760200151611d17565b60008760a001516003811115611cd957611cd9615614565b14611d105760018760a001516003811115611cf657611cf6615614565b14611d05578760200151611d17565b856101200151611d17565b8561010001515b80825260a087015160c088015160e0890151611d34939190614a4c565b816020018181525050846001600160a01b0316633c88e8826040518163ffffffff1660e01b8152600401602060405180830381865afa158015611d7b573d6000803e3d6000fd5b505050506040513d601f19601f82011682018060405250810190611d9f919061547f565b6040820181905260208401516060880151611dba91906155b3565b611dc49190615672565b8160600181815250506402540be40083602001518760600151611de791906155b3565b611df19190615672565b608082015260028760a001516003811115611e0e57611e0e615614565b03611f56578551602087015160408089015160a08a015160c08b0151608087015160e08d015194517f6bc84d590000000000000000000000000000000000000000000000000000000081526001600160a01b0397881660048201526024810196909652604486019390935260648501919091521515608484015260a483015260c48201526000917f00000000000000000000000000000000000000000000000000000000000000001690636bc84d599060e401602060405180830381865afa158015611ede573d6000803e3d6000fd5b505050506040513d601f19601f82011682018060405250810190611f02919061547f565b90508660c00151611f1a578089602001511015611f23565b80896020015111155b611f2e576000611f4b565b606482606001516005611f4191906155b3565b611f4b9190615672565b60a0830152506120ce565b60008760a001516003811115611f6e57611f6e615614565b148015611f8057506000866101000151115b8015611fb057508560c00151611fa25785610100015188602001511115611fb0565b856101000151886020015110155b80612010575060018760a001516003811115611fce57611fce615614565b148015611fe057506000866101200151115b801561201057508560c001516120025785610120015188602001511015612010565b856101200151886020015111155b61201b5760006120c8565b6402540be4006064836001600160a01b0316639c8dd2fa89602001516040518263ffffffff1660e01b815260040161205591815260200190565b602060405180830381865afa158015612072573d6000803e3d6000fd5b505050506040513d601f19601f82011682018060405250810190612096919061547f565b8860e0015184606001516120aa91906155b3565b6120b491906155b3565b6120be9190615672565b6120c89190615672565b60a08201525b60a08101511561239b5760006121e087836020015184608001518a60e0015188604001516120fc9190615672565b60028d60a00151600381111561211457612114615614565b146121cb576402540be4006064896001600160a01b031663836a341a8f602001516040518263ffffffff1660e01b815260040161215391815260200190565b602060405180830381865afa158015612170573d6000803e3d6000fd5b505050506040513d601f19601f82011682018060405250810190612194919061547f565b8e60e001518a606001516121a891906155b3565b6121b291906155b3565b6121bc9190615672565b6121c69190615672565b6121d1565b8660a001515b8760a001518860400151614ad1565b9050846001600160a01b0316633076778760405180608001604052808b604001516001600160a01b031681526020018b6060015181526020018b6080015181526020018b60a00151600381111561223957612239615614565b8152508460a001516040518363ffffffff1660e01b815260040161225e92919061595a565b600060405180830381600087803b15801561227857600080fd5b505af115801561228c573d6000803e3d6000fd5b50505050602088015160a08301516040517f7395d79e000000000000000000000000000000000000000000000000000000008152600481019290925260248201527f00000000000000000000000000000000000000000000000000000000000000006001600160a01b031690637395d79e90604401600060405180830381600087803b15801561231b57600080fd5b505af115801561232f573d6000803e3d6000fd5b505050507f165b0f8d6347f7ebe92729625b03ace41aeea8fd7ebf640f89f2593ab0db63d189600001518960800151898b600001518c60a001518760000151600089608001518a602001518a6040516123919a99989796959493929190615735565b60405180910390a1505b5050505b806001600160a01b031663bf654d2b604051806080016040528087604001516001600160a01b0316815260200187606001518152602001876080015181526020018760a0015160038111156123f6576123f6615614565b8152506040518263ffffffff1660e01b815260040161241591906157d8565b600060405180830381600087803b15801561242f57600080fd5b505af1158015612443573d6000803e3d6000fd5b505086516040517f201d8bdb00000000000000000000000000000000000000000000000000000000815260048101919091527f00000000000000000000000000000000000000000000000000000000000000006001600160a01b0316925063201d8bdb9150602401600060405180830381600087803b1580156124c557600080fd5b505af11580156124d9573d6000803e3d6000fd5b505050505050505050565b7f00000000000000000000000000000000000000000000000000000000000000006001600160a01b03166312d43a516040518163ffffffff1660e01b8152600401602060405180830381865afa158015612542573d6000803e3d6000fd5b505050506040513d601f19601f8201168201806040525081019061256691906153a8565b6001600160a01b0316336001600160a01b0316146125e0576040517f08c379a000000000000000000000000000000000000000000000000000000000815260206004820152600860248201527f474f565f4f4e4c590000000000000000000000000000000000000000000000006044820152606401610295565b6001805460ff808216157fffffffffffffffffffffffffffffffffffffffffffffffffffffffffffffff0090921682179092556040519116151581527f9422424b175dda897495a07b091ef74a3ef715cf6d866fc972954c1c7f459304906020015b60405180910390a1565b7f00000000000000000000000000000000000000000000000000000000000000006001600160a01b03166312d43a516040518163ffffffff1660e01b8152600401602060405180830381865afa1580156126aa573d6000803e3d6000fd5b505050506040513d601f19601f820116820180604052508101906126ce91906153a8565b6001600160a01b0316336001600160a01b031614612748576040517f08c379a000000000000000000000000000000000000000000000000000000000815260206004820152600860248201527f474f565f4f4e4c590000000000000000000000000000000000000000000000006044820152606401610295565b6001805460ff61010080830482161581027fffffffffffffffffffffffffffffffffffffffffffffffffffffffffffff00ff90931692909217928390556040517fc3a6f986261de9467c2838c6df8ef74f9107855159205600c0bc7a14cdfd3888936126429390049091161515815260200190565b7f00000000000000000000000000000000000000000000000000000000000000006001600160a01b0316633078fff56040518163ffffffff1660e01b8152600401602060405180830381865afa15801561281b573d6000803e3d6000fd5b505050506040513d601f19601f8201168201806040525081019061283f91906153a8565b6001600160a01b0316336001600160a01b0316146128b9576040517f08c379a000000000000000000000000000000000000000000000000000000000815260206004820152600f60248201527f41474752454741544f525f4f4e4c5900000000000000000000000000000000006044820152606401610295565b600154610100900460ff161561292d576040517f08c379a00000000000000000000000000000000000000000000000000000000081526004016102959060208082526004908201527f444f4e4500000000000000000000000000000000000000000000000000000000604082015260600190565b80516040517fb66e6b050000000000000000000000000000000000000000000000000000000081526000916001600160a01b037f0000000000000000000000000000000000000000000000000000000000000000169163b66e6b05916129999160040190815260200190565b6101e060405180830381865afa1580156129b7573d6000803e3d6000fd5b505050506040513d601f19601f820116820180604052508101906129db9190615975565b905080602001516000036129ed575050565b6000816000015190506000807f00000000000000000000000000000000000000000000000000000000000000006001600160a01b0316637ea95f32612a448760200151886040015188608001518860c0015161399e565b85602001518660c001518760e001518860800151612a6291906155b3565b6040517fffffffff0000000000000000000000000000000000000000000000000000000060e087901b168152600481019490945260248401929092521515604483015260648201526084016040805180830381865afa158015612ac9573d6000803e3d6000fd5b505050506040513d601f19601f82011682018060405250810190612aed91906155f0565b91509150808360a001818152505060006402540be400606486606001518760400151612b1991906155b3565b612b239190615672565b612b2d9190615672565b60015490915060ff1680612b4357506020860151155b80612b8457508360c00151612b6d57808560400151612b629190615a1f565b8460a0015110612b84565b808560400151612b7d91906154c7565b8460a00151115b80612bc357506000846101000151118015612bc357508360c00151612bb5578361010001518460a001511115612bc3565b8361010001518460a0015110155b80612c0257506000846101200151118015612c0257508360c00151612bf4578361012001518460a001511015612c02565b8361012001518460a0015111155b80612c265750612c2484602001518560c0015186608001518760e00151613a12565b155b80612cbf57507f00000000000000000000000000000000000000000000000000000000000000006001600160a01b03166380f6cfc26040518163ffffffff1660e01b8152600401602060405180830381865afa158015612c8a573d6000803e3d6000fd5b505050506040513d601f19601f82011682018060405250810190612cae919061547f565b60e0850151612cbd90856155b3565b115b15612eda577f00000000000000000000000000000000000000000000000000000000000000006001600160a01b0316636e70e7b67f000000000000000000000000000000000000000000000000000000000000000086600001517f00000000000000000000000000000000000000000000000000000000000000006001600160a01b031663cfbacc1489602001518a60e001518b60800151612d6191906155b3565b6040517fffffffff0000000000000000000000000000000000000000000000000000000060e085901b1681526004810192909252602482015260016044820181905260648201526084016020604051808303816000875af1158015612dca573d6000803e3d6000fd5b505050506040513d601f19601f82011682018060405250810190612dee919061547f565b8860800151612dfd9190615a1f565b6040517fffffffff0000000000000000000000000000000000000000000000000000000060e086901b1681526001600160a01b0393841660048201529290911660248301526044820152606401600060405180830381600087803b158015612e6457600080fd5b505af1158015612e78573d6000803e3d6000fd5b50508751865160208801516040517f4b2ef4d80a0964a9a8f43256d8111558389b384d2029743c1eeb6950b14d9c659550612ecd94509283526001600160a01b03919091166020830152604082015260600190565b60405180910390a1612f60565b600080612eeb866105dc6000613da4565b915091507f2739a12dffae5d66bd9e126a286078ed771840f2288f0afa5709ce38c333099788600001518360018560a00151896402540be400878960600151612f3491906155b3565b612f3e9190615672565b600080604051612f55989796959493929190615a36565b60405180910390a150505b85516040517fcab945800000000000000000000000000000000000000000000000000000000081526004810191909152600160248201527f00000000000000000000000000000000000000000000000000000000000000006001600160a01b03169063cab9458090604401600060405180830381600087803b158015612fe557600080fd5b505af1158015612ff9573d6000803e3d6000fd5b5050505050505050505b50565b7f00000000000000000000000000000000000000000000000000000000000000006001600160a01b0316633078fff56040518163ffffffff1660e01b8152600401602060405180830381865afa158015613064573d6000803e3d6000fd5b505050506040513d601f19601f8201168201806040525081019061308891906153a8565b6001600160a01b0316336001600160a01b031614613102576040517f08c379a000000000000000000000000000000000000000000000000000000000815260206004820152600f60248201527f41474752454741544f525f4f4e4c5900000000000000000000000000000000006044820152606401610295565b600154610100900460ff1615613176576040517f08c379a00000000000000000000000000000000000000000000000000000000081526004016102959060208082526004908201527f444f4e4500000000000000000000000000000000000000000000000000000000604082015260600190565b80516040517fb66e6b050000000000000000000000000000000000000000000000000000000081526000916001600160a01b037f0000000000000000000000000000000000000000000000000000000000000000169163b66e6b05916131e29160040190815260200190565b6101e060405180830381865afa158015613200573d6000803e3d6000fd5b505050506040513d601f19601f820116820180604052508101906132249190615975565b90508060200151600003613236575050565b80518051602082015160409283015192517fa3a80ffe0000000000000000000000000000000000000000000000000000000081526001600160a01b039283166004820152602481019190915260448101929092526000917f00000000000000000000000000000000000000000000000000000000000000009091169063a3a80ffe9060640161014060405180830381865afa1580156132d9573d6000803e3d6000fd5b505050506040513d601f19601f820116820180604052508101906132fd91906158eb565b60e08101519091501561392e578051602082015160408084015190517f8c8ff1d50000000000000000000000000000000000000000000000000000000081526001600160a01b039384166004820152602481019290925260448201526000917f00000000000000000000000000000000000000000000000000000000000000001690638c8ff1d59060640160c060405180830381865afa1580156133a5573d6000803e3d6000fd5b505050506040513d601f19601f820116820180604052508101906133c99190615908565b905060007f00000000000000000000000000000000000000000000000000000000000000006001600160a01b0316633078fff56040518163ffffffff1660e01b8152600401602060405180830381865afa15801561342b573d6000803e3d6000fd5b505050506040513d601f19601f8201168201806040525081019061344f91906153a8565b90506000816001600160a01b0316633c88e8826040518163ffffffff1660e01b8152600401602060405180830381865afa158015613491573d6000803e3d6000fd5b505050506040513d601f19601f820116820180604052508101906134b5919061547f565b90506000818560e00151856020015187606001516134d391906155b3565b6134dd91906155b3565b6134e79190615672565b905086602001516000036137205760208501516040517fcfbacc1400000000000000000000000000000000000000000000000000000000815260048101919091526024810182905260006044820181905260016064830152907f00000000000000000000000000000000000000000000000000000000000000006001600160a01b03169063cfbacc14906084016020604051808303816000875af1158015613593573d6000803e3d6000fd5b505050506040513d601f19601f820116820180604052508101906135b7919061547f565b905080866060015111156136765780866060018181516135d79190615a1f565b9052506040517fd4bda9080000000000000000000000000000000000000000000000000000000081526001600160a01b037f0000000000000000000000000000000000000000000000000000000000000000169063d4bda9089061363f908990600401615a82565b600060405180830381600087803b15801561365957600080fd5b505af115801561366d573d6000803e3d6000fd5b505050506136bd565b6136bb867fffffffffffffffffffffffffffffffffffffffffffffffffffffffffffffff9c60008960e0015189604001516136b19190615672565b6000806000614ad1565b505b875186516020808901516040808b015181519586526001600160a01b03909416928501929092529083015260608201527f48fd47dc6dddc9ad741367983847ae75e3bf20755d74d84ef0090562727f92a59060800160405180910390a150613929565b6137596040518060c001604052806000815260200160008152602001600081526020016000815260200160008152602001600081525090565b6137758660a0015189602001518860c001518960e00151614a4c565b60208083019190915285015160608701516402540be40091613796916155b3565b6137a09190615672565b60808201819052602082015160e088015160408801516000936138cd938b9390926137cb9190615672565b6402540be40060648b6001600160a01b03166335b03c176040518163ffffffff1660e01b8152600401602060405180830381865afa158015613811573d6000803e3d6000fd5b505050506040513d601f19601f8201168201806040525081019061383591906153a8565b6001600160a01b031663836a341a8f602001516040518263ffffffff1660e01b815260040161386691815260200190565b602060405180830381865afa158015613883573d6000803e3d6000fd5b505050506040513d601f19601f820116820180604052508101906138a7919061547f565b6138b1908b6155b3565b6138bb9190615672565b6138c59190615672565b60008a614ad1565b90507f2739a12dffae5d66bd9e126a286078ed771840f2288f0afa5709ce38c333099789600001518860008c602001516000876080015188602001518860405161391e989796959493929190615a36565b60405180910390a150505b505050505b82516040517fcab945800000000000000000000000000000000000000000000000000000000081526004810191909152600060248201527f00000000000000000000000000000000000000000000000000000000000000006001600160a01b03169063cab9458090604401610dc7565b6000806402540be4006064806139b487896155b3565b6139be9190615672565b6139c89088615a1f565b6139d290896155b3565b6139dc9190615672565b6139e69190615672565b9050826139fc576139f78187615a1f565b613a06565b613a0681876154c7565b9150505b949350505050565b6000807f00000000000000000000000000000000000000000000000000000000000000006001600160a01b0316633078fff56040518163ffffffff1660e01b8152600401602060405180830381865afa158015613a73573d6000803e3d6000fd5b505050506040513d601f19601f82011682018060405250810190613a9791906153a8565b6001600160a01b03166335b03c176040518163ffffffff1660e01b8152600401602060405180830381865afa158015613ad4573d6000803e3d6000fd5b505050506040513d601f19601f82011682018060405250810190613af891906153a8565b6040517f28daca2100000000000000000000000000000000000000000000000000000000815260048101889052600260248201529091507f00000000000000000000000000000000000000000000000000000000000000006001600160a01b0316906328daca2190604401602060405180830381865afa158015613b80573d6000803e3d6000fd5b505050506040513d601f19601f82011682018060405250810190613ba4919061547f565b613bae84866155b3565b7f00000000000000000000000000000000000000000000000000000000000000006001600160a01b03166328daca218989613bea576001613bed565b60005b6040517fffffffff0000000000000000000000000000000000000000000000000000000060e085901b168152600481019290925260ff166024820152604401602060405180830381865afa158015613c49573d6000803e3d6000fd5b505050506040513d601f19601f82011682018060405250810190613c6d919061547f565b613c7791906154c7565b11158015613a0657506040517f62614661000000000000000000000000000000000000000000000000000000008152600481018790526001600160a01b03821690636261466190602401602060405180830381865afa158015613cde573d6000803e3d6000fd5b505050506040513d601f19601f82011682018060405250810190613d02919061547f565b6040517f9521753e00000000000000000000000000000000000000000000000000000000815260048101889052861515602482015285906001600160a01b03841690639521753e90604401602060405180830381865afa158015613d6a573d6000803e3d6000fd5b505050506040513d601f19601f82011682018060405250810190613d8e919061547f565b613d9891906154c7565b11159695505050505050565b613e0560405180610140016040528060006001600160a01b0316815260200160008152602001600081526020016000815260200160008152602001600081526020016000151581526020016000815260200160008152602001600081525090565b6000807f00000000000000000000000000000000000000000000000000000000000000006001600160a01b0316633078fff56040518163ffffffff1660e01b8152600401602060405180830381865afa158015613e66573d6000803e3d6000fd5b505050506040513d601f19601f82011682018060405250810190613e8a91906153a8565b90506000816001600160a01b03166335b03c176040518163ffffffff1660e01b8152600401602060405180830381865afa158015613ecc573d6000803e3d6000fd5b505050506040513d601f19601f82011682018060405250810190613ef091906153a8565b90507f00000000000000000000000000000000000000000000000000000000000000006001600160a01b031663cfbacc1488602001518960e001518a60800151613f3a91906155b3565b6040517fffffffff0000000000000000000000000000000000000000000000000000000060e085901b1681526004810192909252602482015260016044820181905260648201526084016020604051808303816000875af1158015613fa3573d6000803e3d6000fd5b505050506040513d601f19601f82011682018060405250810190613fc7919061547f565b87608001818151613fd89190615a1f565b915081815250507f00000000000000000000000000000000000000000000000000000000000000006001600160a01b031663fbfa77cf6040518163ffffffff1660e01b8152600401602060405180830381865afa15801561403d573d6000803e3d6000fd5b505050506040513d601f19601f8201168201806040525081019061406191906153a8565b875160808901516040517ffe80dd160000000000000000000000000000000000000000000000000000000081526001600160a01b03928316600482015260248101919091526000604482015291169063fe80dd1690606401600060405180830381600087803b1580156140d357600080fd5b505af11580156140e7573d6000803e3d6000fd5b505050506000826001600160a01b0316633c88e8826040518163ffffffff1660e01b8152600401602060405180830381865afa15801561412b573d6000803e3d6000fd5b505050506040513d601f19601f8201168201806040525081019061414f919061547f565b9050806402540be400896080015161416791906155b3565b6141719190615672565b606089015260006080890181905260208901516040517f9848a68d00000000000000000000000000000000000000000000000000000000815260048101919091526402540be400906064906001600160a01b03861690639848a68d90602401602060405180830381865afa1580156141ed573d6000803e3d6000fd5b505050506040513d601f19601f82011682018060405250810190614211919061547f565b8b60e001518c6060015161422591906155b3565b61422f91906155b3565b6142399190615672565b6142439190615672565b89516040517f3b0f0f2f0000000000000000000000000000000000000000000000000000000081526001600160a01b0391821660048201529192506000917f000000000000000000000000000000000000000000000000000000000000000090911690633b0f0f2f90602401602060405180830381865afa1580156142cc573d6000803e3d6000fd5b505050506040513d601f19601f820116820180604052508101906142f091906153a8565b90506001600160a01b0381161561444f5761430c600283615672565b6040517f5378143e0000000000000000000000000000000000000000000000000000000081526001600160a01b03838116600483015260248201839052600160448301529193507f000000000000000000000000000000000000000000000000000000000000000090911690635378143e90606401600060405180830381600087803b15801561439b57600080fd5b505af11580156143af573d6000803e3d6000fd5b50506040517f21f7a30b0000000000000000000000000000000000000000000000000000000081526001600160a01b038481166004830152602482018690527f00000000000000000000000000000000000000000000000000000000000000001692506321f7a30b9150604401600060405180830381600087803b15801561443657600080fd5b505af115801561444a573d6000803e3d6000fd5b505050505b818a6060018181516144619190615a1f565b90525050506105dc8710156146d95760006402540be4006064846001600160a01b0316639c8dd2fa8c602001516040518263ffffffff1660e01b81526004016144ac91815260200190565b602060405180830381865afa1580156144c9573d6000803e3d6000fd5b505050506040513d601f19601f820116820180604052508101906144ed919061547f565b8b60e001518c6060015161450191906155b3565b61450b91906155b3565b6145159190615672565b61451f9190615672565b905080896060018181516145339190615a1f565b91508181525050836001600160a01b0316635ad9f9936040518163ffffffff1660e01b8152600401602060405180830381865afa158015614578573d6000803e3d6000fd5b505050506040513d601f19601f8201168201806040525081019061459c91906153a8565b6001600160a01b0316633076778760405180608001604052808c600001516001600160a01b031681526020018c6020015181526020018a81526020016003808111156145ea576145ea615614565b815250836040518363ffffffff1660e01b815260040161460b92919061595a565b600060405180830381600087803b15801561462557600080fd5b505af1158015614639573d6000803e3d6000fd5b50506040517f7395d79e000000000000000000000000000000000000000000000000000000008152600481018b9052602481018490527f00000000000000000000000000000000000000000000000000000000000000006001600160a01b03169250637395d79e9150604401600060405180830381600087803b1580156146bf57600080fd5b505af11580156146d3573d6000803e3d6000fd5b50505050505b875160208901516040517f292c16170000000000000000000000000000000000000000000000000000000081526001600160a01b037f0000000000000000000000000000000000000000000000000000000000000000169263292c161792614757926004016001600160a01b03929092168252602082015260400190565b602060405180830381865afa158015614774573d6000803e3d6000fd5b505050506040513d601f19601f82011682018060405250810190614798919061547f565b8860400181815250506147be8860a001518960e001518a61010001518b60c001516150e6565b886101000181815250506147e58860a001518960e001518a61012001518b60c00151615179565b610120890152875160208901516040808b015160c08c015191517f0e6bc39a0000000000000000000000000000000000000000000000000000000081526001600160a01b03948516600482015260248101939093526044830152151560648201527f000000000000000000000000000000000000000000000000000000000000000090911690630e6bc39a90608401600060405180830381600087803b15801561488e57600080fd5b505af11580156148a2573d6000803e3d6000fd5b50505050816001600160a01b03166320f0fc5e89602001516402540be400848c606001516148d091906155b3565b6148da9190615672565b60c08c01516040517fffffffff0000000000000000000000000000000000000000000000000000000060e086901b168152600481019390935260248301919091521515604482015260016064820152608401600060405180830381600087803b15801561494657600080fd5b505af115801561495a573d6000803e3d6000fd5b505050507f00000000000000000000000000000000000000000000000000000000000000006001600160a01b031663c311ab31896040518060c00160405280600081526020018581526020016402540be400868e60e001518f606001516149c191906155b3565b6149cb91906155b3565b6149d59190615672565b81526020016000815260200160008152602001600015158152506040518363ffffffff1660e01b8152600401614a0c929190615a91565b600060405180830381600087803b158015614a2657600080fd5b505af1158015614a3a573d6000803e3d6000fd5b50999a92995091975050505050505050565b60008083614a6357614a5e8587615ae8565b614a6d565b614a6d8686615ae8565b90506000614a826402540be400610384615b5c565b905086846402540be400614a97856064615b5c565b614aa19190615b5c565b614aab9190615b5c565b614ab59190615c18565b9250808313614ac45782614ac6565b805b979650505050505050565b60007f00000000000000000000000000000000000000000000000000000000000000006001600160a01b031663e3f04eba60646000546064614b139190615a1f565b614b1d90886155b3565b614b279190615672565b6040518263ffffffff1660e01b8152600401614b4591815260200190565b600060405180830381600087803b158015614b5f57600080fd5b505af1158015614b73573d6000803e3d6000fd5b505050507f00000000000000000000000000000000000000000000000000000000000000006001600160a01b031663fbfa77cf6040518163ffffffff1660e01b8152600401602060405180830381865afa158015614bd5573d6000803e3d6000fd5b505050506040513d601f19601f82011682018060405250810190614bf991906153a8565b6001600160a01b031663b243fb016402540be40060648560005489614c1e91906155b3565b614c2891906155b3565b614c329190615672565b614c3c9190615672565b6040518263ffffffff1660e01b8152600401614c5a91815260200190565b600060405180830381600087803b158015614c7457600080fd5b505af1158015614c88573d6000803e3d6000fd5b505050507f00000000000000000000000000000000000000000000000000000000000000006001600160a01b0316636ceaca6789600001518a602001518b604001518c60c001518b8e60e001518e6402540be4008b8d8f614ce991906154c7565b614cf391906155b3565b614cfd9190615672565b6040517fffffffff0000000000000000000000000000000000000000000000000000000060e08b901b1681526001600160a01b039098166004890152602488019690965260448701949094529115156064860152608485015260a484015260c483015260e4820152610104016020604051808303816000875af1158015614d88573d6000803e3d6000fd5b505050506040513d601f19601f82011682018060405250810190614dac919061547f565b90508015614eb4577f00000000000000000000000000000000000000000000000000000000000000006001600160a01b031663fbfa77cf6040518163ffffffff1660e01b8152600401602060405180830381865afa158015614e12573d6000803e3d6000fd5b505050506040513d601f19601f82011682018060405250810190614e3691906153a8565b88516040517f214a9a330000000000000000000000000000000000000000000000000000000081526001600160a01b0391821660048201526024810184905291169063214a9a3390604401600060405180830381600087803b158015614e9b57600080fd5b505af1158015614eaf573d6000803e3d6000fd5b505050505b7f00000000000000000000000000000000000000000000000000000000000000006001600160a01b0316633078fff56040518163ffffffff1660e01b8152600401602060405180830381865afa158015614f12573d6000803e3d6000fd5b505050506040513d601f19601f82011682018060405250810190614f3691906153a8565b6001600160a01b03166335b03c176040518163ffffffff1660e01b8152600401602060405180830381865afa158015614f73573d6000803e3d6000fd5b505050506040513d601f19601f82011682018060405250810190614f9791906153a8565b602089015160c08a01516040517f20f0fc5e00000000000000000000000000000000000000000000000000000000815260048101929092526024820188905215156044820152600060648201526001600160a01b0391909116906320f0fc5e90608401600060405180830381600087803b15801561501457600080fd5b505af1158015615028573d6000803e3d6000fd5b5050895160208b01516040808d015190517f90d112b90000000000000000000000000000000000000000000000000000000081526001600160a01b039384166004820152602481019290925260448201527f000000000000000000000000000000000000000000000000000000000000000090911692506390d112b99150606401600060405180830381600087803b1580156150c357600080fd5b505af11580156150d7573d6000803e3d6000fd5b50505050979650505050505050565b600082158061510f57506151016402540be400610384615b5c565b61510d86858588614a4c565b145b15615170576000606485615125610384896155b3565b61512f9190615672565b6151399190615672565b90508261515e578581111561514f576000615168565b6151598187615a1f565b615168565b61516881876154c7565b915050613a0a565b50909392505050565b600080831180156151cd57506151956402540be400604b615b5c565b6151bf907fffffffffffffffffffffffffffffffffffffffffffffffffffffffffffffffff615b5c565b6151cb86858588614a4c565b125b156151705760006064856151e2604b896155b3565b6151ec9190615672565b6151f69190615672565b9050826152075761515981876154c7565b6151688187615a1f565b60405160c0810167ffffffffffffffff8111828210171561525b577f4e487b7100000000000000000000000000000000000000000000000000000000600052604160045260246000fd5b60405290565b6040516101a0810167ffffffffffffffff8111828210171561525b577f4e487b7100000000000000000000000000000000000000000000000000000000600052604160045260246000fd5b604051610140810167ffffffffffffffff8111828210171561525b577f4e487b7100000000000000000000000000000000000000000000000000000000600052604160045260246000fd5b60006060828403121561530957600080fd5b6040516060810181811067ffffffffffffffff82111715615353577f4e487b7100000000000000000000000000000000000000000000000000000000600052604160045260246000fd5b80604052508235815260208301356020820152604083013560408201528091505092915050565b60006020828403121561538c57600080fd5b5035919050565b6001600160a01b038116811461300357600080fd5b6000602082840312156153ba57600080fd5b81516153c581615393565b9392505050565b80516153d781615393565b919050565b600060c082840312156153ee57600080fd5b6153f6615211565b825161540181615393565b815260208381015190820152604083015161541b81615393565b80604083015250606083015160608201526080830151608082015260a08301516004811061544857600080fd5b60a08201529392505050565b805180151581146153d757600080fd5b60006020828403121561547657600080fd5b6153c582615454565b60006020828403121561549157600080fd5b5051919050565b7f4e487b7100000000000000000000000000000000000000000000000000000000600052601160045260246000fd5b600082198211156154da576154da615498565b500190565b60006101a082840312156154f257600080fd5b6154fa615261565b615503836153cc565b81526020830151602082015260408301516040820152606083015160608201526080830151608082015261553960a08401615454565b60a082015260c0838101519082015260e080840151908201526101008084015190820152610120808401519082015261014080840151908201526101608084015190820152610180928301519281019290925250919050565b6000602082840312156155a457600080fd5b8151600381106153c557600080fd5b6000817fffffffffffffffffffffffffffffffffffffffffffffffffffffffffffffffff04831182151516156155eb576155eb615498565b500290565b6000806040838503121561560357600080fd5b505080516020909101519092909150565b7f4e487b7100000000000000000000000000000000000000000000000000000000600052602160045260246000fd5b7f4e487b7100000000000000000000000000000000000000000000000000000000600052601260045260246000fd5b60008261568157615681615643565b500490565b80516001600160a01b031682526020810151602083015260408101516040830152606081015160608301526080810151608083015260a081015160a083015260c08101516156d860c084018215159052565b5060e08181015190830152610100808201519083015261012090810151910152565b60048110615731577f4e487b7100000000000000000000000000000000000000000000000000000000600052602160045260246000fd5b9052565b8a8152602081018a90526102608101615751604083018b615686565b6001600160a01b03891661018083015261576f6101a08301896156fa565b6101c08201969096526101e08101949094526102008401929092526102208301526102409091015295945050505050565b6001600160a01b038151168252602081015160208301526040810151604083015260608101516157d360608401826156fa565b505050565b608081016157e682846157a0565b92915050565b600060c082840312156157fe57600080fd5b615806615211565b825161581181615393565b8082525060208301516020820152604083015160408201526060830151606082015261583f60808401615454565b608082015260a083015160a08201528091505092915050565b6000610140828403121561586b57600080fd5b6158736152ac565b905061587e826153cc565b81526020820151602082015260408201516040820152606082015160608201526080820151608082015260a082015160a08201526158be60c08301615454565b60c082015260e082015160e082015261010080830151818301525061012080830151818301525092915050565b600061014082840312156158fe57600080fd5b6153c58383615858565b600060c0828403121561591a57600080fd5b615922615211565b825181526020830151602082015260408301516040820152606083015160608201526080830151608082015261544860a08401615454565b60a0810161596882856157a0565b8260808301529392505050565b60006101e0828403121561598857600080fd5b60405160c0810181811067ffffffffffffffff821117156159d2577f4e487b7100000000000000000000000000000000000000000000000000000000600052604160045260246000fd5b6040526159df8484615858565b81526101408301516020820152610160830151604082015261018083015160608201526101a083015160808201526101c09092015160a083015250919050565b600082821015615a3157615a31615498565b500390565b8881526102208101615a4b602083018a615686565b9615156101608201526101808101959095526101a08501939093526101c08401919091526101e08301526102009091015292915050565b61014081016157e68284615686565b6102008101615aa08285615686565b82516101408301526020830151610160830152604083015161018083015260608301516101a083015260808301516101c083015260a083015115156101e08301529392505050565b6000808312837f800000000000000000000000000000000000000000000000000000000000000001831281151615615b2257615b22615498565b837f7fffffffffffffffffffffffffffffffffffffffffffffffffffffffffffffff018313811615615b5657615b56615498565b50500390565b60007f7fffffffffffffffffffffffffffffffffffffffffffffffffffffffffffffff600084136000841385830485118282161615615b9d57615b9d615498565b7f80000000000000000000000000000000000000000000000000000000000000006000871286820588128184161615615bd857615bd8615498565b60008712925087820587128484161615615bf457615bf4615498565b87850587128184161615615c0a57615c0a615498565b505050929093029392505050565b600082615c2757615c27615643565b7fffffffffffffffffffffffffffffffffffffffffffffffffffffffffffffffff83147f800000000000000000000000000000000000000000000000000000000000000083141615615c7b57615c7b615498565b50059056fea264697066735822122013988ea7a32f907d7e0a96707dc9f25adafbc952cb9bbbffd82bd30830425dd064736f6c634300080e0033",
  "immutableReferences": {
    "1652": [
      {
        "length": 32,
        "start": 415
      },
      {
        "length": 32,
        "start": 839
      },
      {
        "length": 32,
        "start": 965
      },
      {
        "length": 32,
        "start": 1309
      },
      {
        "length": 32,
        "start": 1425
      },
      {
        "length": 32,
        "start": 1606
      },
      {
        "length": 32,
        "start": 1830
      },
      {
        "length": 32,
        "start": 3036
      },
      {
        "length": 32,
        "start": 3474
      },
      {
        "length": 32,
        "start": 3584
      },
      {
        "length": 32,
        "start": 3954
      },
      {
        "length": 32,
        "start": 4308
      },
      {
        "length": 32,
        "start": 4629
      },
      {
        "length": 32,
        "start": 5063
      },
      {
        "length": 32,
        "start": 5532
      },
      {
        "length": 32,
        "start": 5951
      },
      {
        "length": 32,
        "start": 6164
      },
      {
        "length": 32,
        "start": 6278
      },
      {
        "length": 32,
        "start": 6544
      },
      {
        "length": 32,
        "start": 6725
      },
      {
        "length": 32,
        "start": 6943
      },
      {
        "length": 32,
        "start": 8911
      },
      {
        "length": 32,
        "start": 9335
      },
      {
        "length": 32,
        "start": 9446
      },
      {
        "length": 32,
        "start": 9806
      },
      {
        "length": 32,
        "start": 10175
      },
      {
        "length": 32,
        "start": 10594
      },
      {
        "length": 32,
        "start": 11462
      },
      {
        "length": 32,
        "start": 11509
      },
      {
        "length": 32,
        "start": 11547
      },
      {
        "length": 32,
        "start": 12185
      },
      {
        "length": 32,
        "start": 12296
      },
      {
        "length": 32,
        "start": 12715
      },
      {
        "length": 32,
        "start": 12943
      },
      {
        "length": 32,
        "start": 13150
      },
      {
        "length": 32,
        "start": 13263
      },
      {
        "length": 32,
        "start": 13634
      },
      {
        "length": 32,
        "start": 13834
      },
      {
        "length": 32,
        "start": 14695
      },
      {
        "length": 32,
        "start": 14871
      },
      {
        "length": 32,
        "start": 15153
      },
      {
        "length": 32,
        "start": 15280
      },
      {
        "length": 32,
        "start": 15882
      },
      {
        "length": 32,
        "start": 16116
      },
      {
        "length": 32,
        "start": 16353
      },
      {
        "length": 32,
        "start": 17027
      },
      {
        "length": 32,
        "start": 17237
      },
      {
        "length": 32,
        "start": 17392
      },
      {
        "length": 32,
        "start": 18033
      },
      {
        "length": 32,
        "start": 18192
      },
      {
        "length": 32,
        "start": 18784
      },
      {
        "length": 32,
        "start": 19157
      },
      {
        "length": 32,
        "start": 19321
      },
      {
        "length": 32,
        "start": 19894
      },
      {
        "length": 32,
        "start": 20150
      },
      {
        "length": 32,
        "start": 20603
      }
    ],
    "1655": [
      {
        "length": 32,
        "start": 2115
      },
      {
        "length": 32,
        "start": 2587
      },
      {
        "length": 32,
        "start": 7831
      },
      {
        "length": 32,
        "start": 10747
      },
      {
        "length": 32,
        "start": 11310
      },
      {
        "length": 32,
        "start": 18504
      },
      {
        "length": 32,
        "start": 19598
      }
    ]
  },
  "source": "// SPDX-License-Identifier: MIT\nimport './interfaces/StorageInterfaceV5.sol';\nimport './interfaces/GNSPairInfosInterfaceV6.sol';\npragma solidity 0.8.14;\n\ncontract GNSTradingCallbacksV6_1{\n\n    // Contracts (constant)\n    StorageInterfaceV5 immutable storageT;\n    GNSPairInfosInterfaceV6 immutable pairInfos;\n\n    // Params (constant)\n    uint constant PRECISION = 1e10;     // 10 decimals\n\n    uint constant MAX_SL_P = 75;        // -75% PNL\n    uint constant MAX_GAIN_P = 900;     // 900% PnL (10x)\n\n    // Params (adjustable)\n    uint public vaultFeeP = 10;         // %\n\n    // State\n    bool public isPaused;               // Prevent opening new trades\n    bool public isDone;                 // Prevent any interaction with the contract\n\n    // Custom data types\n    struct AggregatorAnswer{ uint orderId; uint price; uint spreadP; }\n    struct Values{ uint price; int profitP; uint tokenPriceDai; uint posToken; uint posDai; uint nftReward; }\n\n    // Events\n    event MarketExecuted(\n        uint orderId,\n        StorageInterfaceV5.Trade t,\n        bool open,\n        uint price,\n        uint priceImpactP,\n        uint positionSizeDai,\n        int percentProfit,\n        uint daiSentToTrader\n    );\n    event LimitExecuted(\n        uint orderId,\n        uint limitIndex,\n        StorageInterfaceV5.Trade t,\n        address nftHolder,\n        StorageInterfaceV5.LimitOrder orderType,\n        uint price,\n        uint priceImpactP,\n        uint positionSizeDai,\n        int percentProfit,\n        uint daiSentToTrader\n    );\n\n    event MarketOpenCanceled(uint orderId, address trader, uint pairIndex);\n    event MarketCloseCanceled(uint orderId, address trader, uint pairIndex, uint index);\n\n    event SlUpdated(uint orderId, address trader, uint pairIndex, uint index, uint newSl);\n    event SlCanceled(uint orderId, address trader, uint pairIndex, uint index);\n\n    event AddressUpdated(string name, address a);\n    event NumberUpdated(string name, uint value);\n    \n    event Pause(bool paused);\n    event Done(bool done);\n\n    constructor(StorageInterfaceV5 _storageT, GNSPairInfosInterfaceV6 _pairInfos) {\n        storageT = _storageT;\n        pairInfos = _pairInfos;\n    }\n\n    // Modifiers\n    modifier onlyGov(){ require(msg.sender == storageT.gov(), \"GOV_ONLY\"); _; }\n    modifier onlyPriceAggregator(){ require(msg.sender == address(storageT.priceAggregator()), \"AGGREGATOR_ONLY\"); _; }\n    modifier notDone(){ require(!isDone, \"DONE\"); _; }\n\n    // Manage params\n    function setVaultFeeP(uint _vaultFeeP) external onlyGov{\n        require(_vaultFeeP <= 50, \"ABOVE_50\");\n        vaultFeeP = _vaultFeeP;\n        emit NumberUpdated(\"vaultFeeP\", _vaultFeeP);\n    }\n\n    // Manage state\n    function pause() external onlyGov{ isPaused = !isPaused; emit Pause(isPaused); }\n    function done() external onlyGov{ isDone = !isDone; emit Done(isDone); }\n\n    // Callbacks\n    function openTradeMarketCallback(AggregatorAnswer memory a) external onlyPriceAggregator notDone{\n\n        StorageInterfaceV5.PendingMarketOrder memory o = storageT.reqID_pendingMarketOrder(a.orderId);\n        if(o.block == 0){ return; }\n        \n        StorageInterfaceV5.Trade memory t = o.trade;\n\n        (uint priceImpactP, uint priceAfterImpact) = pairInfos.getTradePriceImpact(\n            marketExecutionPrice(a.price, a.spreadP, o.spreadReductionP, t.buy),\n            t.pairIndex,\n            t.buy,\n            t.positionSizeDai * t.leverage\n        );\n\n        t.openPrice = priceAfterImpact;\n\n        uint maxSlippage = o.wantedPrice * o.slippageP / 100 / PRECISION;\n\n        if(isPaused || a.price == 0\n        || (t.buy ? t.openPrice > o.wantedPrice + maxSlippage : t.openPrice < o.wantedPrice - maxSlippage)\n        || (t.tp > 0 && (t.buy ? t.openPrice >= t.tp : t.openPrice <= t.tp))\n        || (t.sl > 0 && (t.buy ? t.openPrice <= t.sl : t.openPrice >= t.sl))\n        || !withinExposureLimits(t.pairIndex, t.buy, t.positionSizeDai, t.leverage)\n        || priceImpactP * t.leverage > pairInfos.maxNegativePnlOnOpenP()){\n\n            storageT.transferDai(\n                address(storageT), \n                t.trader, \n                t.positionSizeDai - storageT.handleDevGovFees(\n                    t.pairIndex, \n                    t.positionSizeDai * t.leverage, \n                    true, \n                    true\n                )\n            );\n\n            emit MarketOpenCanceled(a.orderId, t.trader, t.pairIndex);\n\n        }else{\n            (StorageInterfaceV5.Trade memory finalTrade, uint tokenPriceDai) = registerTrade(t, 1500, 0);\n\n            emit MarketExecuted(\n                a.orderId,\n                finalTrade,\n                true,\n                finalTrade.openPrice,\n                priceImpactP,\n                finalTrade.initialPosToken * tokenPriceDai / PRECISION,\n                0,\n                0\n            );\n        }\n\n        storageT.unregisterPendingMarketOrder(a.orderId, true);\n    }\n    function closeTradeMarketCallback(AggregatorAnswer memory a) external onlyPriceAggregator notDone{\n        \n        StorageInterfaceV5.PendingMarketOrder memory o = storageT.reqID_pendingMarketOrder(a.orderId);\n        if(o.block == 0){ return; }\n\n        StorageInterfaceV5.Trade memory t = storageT.openTrades(o.trade.trader, o.trade.pairIndex, o.trade.index);\n\n        if(t.leverage > 0){\n\n            StorageInterfaceV5.TradeInfo memory i = storageT.openTradesInfo(t.trader, t.pairIndex, t.index);\n            AggregatorInterfaceV6 aggregator = storageT.priceAggregator();\n            \n            uint tokenPriceDai = aggregator.tokenPriceDai();\n            uint levPosToken = t.initialPosToken * i.tokenPriceDai * t.leverage / tokenPriceDai;\n\n            if(a.price == 0){\n               \n                uint feeToken = storageT.handleDevGovFees(t.pairIndex, levPosToken, false, true);\n\n                if(t.initialPosToken > feeToken){\n                    t.initialPosToken -= feeToken;\n                    storageT.updateTrade(t);\n                }else{\n                    unregisterTrade(t, -100, 0, i.openInterestDai/t.leverage, 0, 0, 0);\n                }\n\n                emit MarketCloseCanceled(a.orderId, t.trader, t.pairIndex, t.index);\n\n            }else{\n                Values memory v;\n                v.profitP = currentPercentProfit(t.openPrice, a.price, t.buy, t.leverage);\n                v.posDai = t.initialPosToken * i.tokenPriceDai / PRECISION;\n\n                uint daiSentToTrader = unregisterTrade(\n                    t,\n                    v.profitP,\n                    v.posDai,\n                    i.openInterestDai / t.leverage,\n                    levPosToken * aggregator.pairsStorage().pairCloseFeeP(t.pairIndex) / 100 / PRECISION,\n                    0,\n                    tokenPriceDai\n                );\n\n                emit MarketExecuted(a.orderId, t, false, a.price, 0, v.posDai, v.profitP, daiSentToTrader);\n            }\n        }\n\n        storageT.unregisterPendingMarketOrder(a.orderId, false);\n    }\n    function executeNftOpenOrderCallback(AggregatorAnswer memory a) external onlyPriceAggregator notDone{\n\n        StorageInterfaceV5.PendingNftOrder memory n = storageT.reqID_pendingNftOrder(a.orderId);\n        NftRewardsInterfaceV6 nftIncentives = storageT.priceAggregator().nftRewards();\n\n        if(!isPaused && a.price != 0\n        && storageT.hasOpenLimitOrder(n.trader, n.pairIndex, n.index)\n        && block.number >= storageT.nftLastSuccess(n.nftId) + storageT.nftSuccessTimelock()){\n\n            StorageInterfaceV5.OpenLimitOrder memory o = storageT.getOpenLimitOrder(n.trader, n.pairIndex, n.index);\n            NftRewardsInterfaceV6.OpenLimitOrderType t = nftIncentives.openLimitOrderTypes(n.trader, n.pairIndex, n.index);\n\n            (uint priceImpactP, uint priceAfterImpact) = pairInfos.getTradePriceImpact(\n                marketExecutionPrice(a.price, a.spreadP, o.spreadReductionP, o.buy),\n                o.pairIndex,\n                o.buy,\n                o.positionSize * o.leverage\n            );\n\n            a.price = priceAfterImpact;\n\n            if((t == NftRewardsInterfaceV6.OpenLimitOrderType.LEGACY ? (a.price >= o.minPrice && a.price <= o.maxPrice) :\n                t == NftRewardsInterfaceV6.OpenLimitOrderType.REVERSAL ? (o.buy ? a.price <= o.maxPrice : a.price >= o.minPrice) :\n                (o.buy ? a.price >= o.minPrice : a.price <= o.maxPrice))\n            && withinExposureLimits(o.pairIndex, o.buy, o.positionSize, o.leverage)\n            && priceImpactP * o.leverage <= pairInfos.maxNegativePnlOnOpenP()){\n\n                (StorageInterfaceV5.Trade memory finalTrade, uint tokenPriceDai) = registerTrade(\n                    StorageInterfaceV5.Trade(\n                        o.trader,\n                        o.pairIndex,\n                        0, 0,\n                        o.positionSize,\n                        t == NftRewardsInterfaceV6.OpenLimitOrderType.REVERSAL ? o.buy ? o.maxPrice : o.minPrice : a.price,\n                        o.buy,\n                        o.leverage,\n                        o.tp,\n                        o.sl\n                    ), \n                    n.nftId,\n                    n.index\n                );\n\n                storageT.unregisterOpenLimitOrder(o.trader, o.pairIndex, o.index);\n\n                emit LimitExecuted(\n                    a.orderId,\n                    n.index,\n                    finalTrade,\n                    n.nftHolder,\n                    StorageInterfaceV5.LimitOrder.OPEN,\n                    finalTrade.openPrice,\n                    priceImpactP,\n                    finalTrade.initialPosToken * tokenPriceDai / PRECISION,\n                    0,\n                    0\n                );\n            }\n        }\n\n        nftIncentives.unregisterTrigger(NftRewardsInterfaceV6.TriggeredLimitId(n.trader, n.pairIndex, n.index, n.orderType));\n        storageT.unregisterPendingNftOrder(a.orderId);\n    }\n    function executeNftCloseOrderCallback(AggregatorAnswer memory a) external onlyPriceAggregator notDone{\n        \n        StorageInterfaceV5.PendingNftOrder memory o = storageT.reqID_pendingNftOrder(a.orderId);\n        StorageInterfaceV5.Trade memory t = storageT.openTrades(o.trader, o.pairIndex, o.index);\n\n        AggregatorInterfaceV6 aggregator = storageT.priceAggregator();\n        NftRewardsInterfaceV6 nftIncentives = aggregator.nftRewards();\n\n        if(a.price != 0\n        && t.leverage > 0 && block.number >= storageT.nftLastSuccess(o.nftId) + storageT.nftSuccessTimelock()){\n\n            StorageInterfaceV5.TradeInfo memory i = storageT.openTradesInfo(t.trader, t.pairIndex, t.index);\n            PairsStorageInterfaceV6 pairsStored = aggregator.pairsStorage();\n            Values memory v;\n\n            v.price = pairsStored.guaranteedSlEnabled(t.pairIndex) ?\n                        o.orderType == StorageInterfaceV5.LimitOrder.TP ? t.tp : \n                        o.orderType == StorageInterfaceV5.LimitOrder.SL ? t.sl : a.price : a.price;\n\n            v.profitP = currentPercentProfit(t.openPrice, v.price, t.buy, t.leverage);\n\n            v.tokenPriceDai = aggregator.tokenPriceDai();\n            v.posToken = t.initialPosToken * i.tokenPriceDai / v.tokenPriceDai;\n            v.posDai = t.initialPosToken * i.tokenPriceDai / PRECISION;\n\n            if(o.orderType == StorageInterfaceV5.LimitOrder.LIQ){\n                uint liqPrice = pairInfos.getTradeLiquidationPrice(\n                    t.trader,\n                    t.pairIndex,\n                    t.index,\n                    t.openPrice,\n                    t.buy,\n                    v.posDai,\n                    t.leverage\n                );\n\n                v.nftReward = (t.buy ? a.price <= liqPrice : a.price >= liqPrice) ? v.posToken * 5 / 100 : 0;\n            }else{\n                v.nftReward = \n                    (o.orderType == StorageInterfaceV5.LimitOrder.TP && t.tp > 0 && (t.buy ? a.price >= t.tp : a.price <= t.tp))\n                    || (o.orderType == StorageInterfaceV5.LimitOrder.SL && t.sl > 0 && (t.buy ? a.price <= t.sl : a.price >= t.sl)) ? \n                    v.posToken * t.leverage * pairsStored.pairNftLimitOrderFeeP(t.pairIndex) / 100 / PRECISION : 0;\n            }\n\n            if(v.nftReward > 0){\n                uint daiSentToTrader = unregisterTrade(\n                    t,\n                    v.profitP,\n                    v.posDai,\n                    i.openInterestDai/t.leverage,\n                    o.orderType == StorageInterfaceV5.LimitOrder.LIQ ?\n                        v.nftReward :\n                        v.posToken * t.leverage * pairsStored.pairCloseFeeP(t.pairIndex) / 100 / PRECISION,\n                    v.nftReward,\n                    v.tokenPriceDai\n                );\n\n                nftIncentives.distributeNftReward(\n                    NftRewardsInterfaceV6.TriggeredLimitId(o.trader, o.pairIndex, o.index, o.orderType),\n                    v.nftReward\n                );\n\n                storageT.increaseNftRewards(o.nftId, v.nftReward);\n\n                emit LimitExecuted(a.orderId, o.index, t, o.nftHolder, o.orderType, v.price, 0, v.posDai, v.profitP, daiSentToTrader);\n            }\n        }\n\n        nftIncentives.unregisterTrigger(NftRewardsInterfaceV6.TriggeredLimitId(o.trader, o.pairIndex, o.index, o.orderType));\n        storageT.unregisterPendingNftOrder(a.orderId);\n    }\n    function updateSlCallback(AggregatorAnswer memory a) external onlyPriceAggregator notDone{\n        \n        AggregatorInterfaceV6 aggregator = storageT.priceAggregator();\n        AggregatorInterfaceV6.PendingSl memory o = aggregator.pendingSlOrders(a.orderId);\n        \n        StorageInterfaceV5.Trade memory t = storageT.openTrades(o.trader, o.pairIndex, o.index);\n\n        if(a.price != 0 && t.leverage > 0 \n        && t.buy == o.buy && t.openPrice == o.openPrice\n        && (t.buy ? o.newSl <= a.price : o.newSl >= a.price)){\n\n            storageT.updateSl(o.trader, o.pairIndex, o.index, o.newSl);\n            emit SlUpdated(a.orderId, o.trader, o.pairIndex, o.index, o.newSl);\n            \n        }else{\n            emit SlCanceled(a.orderId, o.trader, o.pairIndex, o.index);\n        }\n\n        aggregator.unregisterPendingSlOrder(a.orderId);\n    }\n\n    // Shared code between market & limit callbacks\n    function registerTrade(\n        StorageInterfaceV5.Trade memory _trade, \n        uint _nftId, \n        uint _limitIndex\n    ) private returns(StorageInterfaceV5.Trade memory, uint){\n\n        AggregatorInterfaceV6 aggregator = storageT.priceAggregator();\n        PairsStorageInterfaceV6 pairsStored = aggregator.pairsStorage();\n\n        _trade.positionSizeDai -= storageT.handleDevGovFees(_trade.pairIndex, _trade.positionSizeDai * _trade.leverage, true, true);\n\n        storageT.vault().receiveDaiFromTrader(_trade.trader, _trade.positionSizeDai, 0);\n\n        uint tokenPriceDai = aggregator.tokenPriceDai();\n        _trade.initialPosToken = _trade.positionSizeDai * PRECISION / tokenPriceDai;\n        _trade.positionSizeDai = 0;\n\n        {\n            uint rTokens = _trade.initialPosToken * _trade.leverage * pairsStored.pairReferralFeeP(_trade.pairIndex) / 100 / PRECISION;\n            address referral = storageT.getReferral(_trade.trader);\n\n            if(referral != address(0)){ \n                rTokens /= 2;\n                storageT.handleTokens(referral, rTokens, true);\n                storageT.increaseReferralRewards(referral, rTokens);\n            }\n\n            _trade.initialPosToken -= rTokens;\n        }\n\n        if(_nftId < 1500){\n            uint nTokens = _trade.initialPosToken * _trade.leverage * pairsStored.pairNftLimitOrderFeeP(_trade.pairIndex) / 100 / PRECISION;\n            _trade.initialPosToken -= nTokens;\n            \n            aggregator.nftRewards().distributeNftReward(\n                NftRewardsInterfaceV6.TriggeredLimitId(\n                    _trade.trader, _trade.pairIndex, _limitIndex, StorageInterfaceV5.LimitOrder.OPEN\n                ), nTokens\n            );\n\n            storageT.increaseNftRewards(_nftId, nTokens);\n        }\n\n        _trade.index = storageT.firstEmptyTradeIndex(_trade.trader, _trade.pairIndex);\n        _trade.tp = correctTp(_trade.openPrice, _trade.leverage, _trade.tp, _trade.buy);\n        _trade.sl = correctSl(_trade.openPrice, _trade.leverage, _trade.sl, _trade.buy);\n        \n        pairInfos.storeTradeInitialAccFees(_trade.trader, _trade.pairIndex, _trade.index, _trade.buy);\n\n        pairsStored.updateGroupCollateral(_trade.pairIndex, _trade.initialPosToken * tokenPriceDai / PRECISION, _trade.buy, true);\n\n        storageT.storeTrade(\n            _trade,\n            StorageInterfaceV5.TradeInfo(\n                0, \n                tokenPriceDai, \n                _trade.initialPosToken * _trade.leverage * tokenPriceDai / PRECISION,\n                0,\n                0,\n                false\n            )\n        );\n\n        return (_trade, tokenPriceDai);\n    }\n    function unregisterTrade(\n        StorageInterfaceV5.Trade memory _trade,\n        int _percentProfit,    // PRECISION\n        uint _currentDaiPos,   // 1e18\n        uint _initialDaiPos,   // 1e18\n        uint _lpFeeToken,      // 1e18\n        uint _amountNftToken,  // 1e18\n        uint _tokenPriceDai    // PRECISION\n    ) private returns(uint daiSentToTrader){\n\n        storageT.distributeLpRewards(_lpFeeToken * (100 - vaultFeeP) / 100);\n        storageT.vault().distributeRewardDai(_lpFeeToken * vaultFeeP * _tokenPriceDai / 100 / PRECISION);\n\n        daiSentToTrader = pairInfos.getTradeValue(\n            _trade.trader,\n            _trade.pairIndex,\n            _trade.index,\n            _trade.buy,\n            _currentDaiPos,\n            _trade.leverage,\n            _percentProfit,\n            (_lpFeeToken + _amountNftToken) * _tokenPriceDai / PRECISION\n        );\n\n        if(daiSentToTrader > 0){\n            storageT.vault().sendDaiToTrader(_trade.trader, daiSentToTrader);\n        }\n\n        storageT.priceAggregator().pairsStorage().updateGroupCollateral(_trade.pairIndex, _initialDaiPos, _trade.buy, false);\n        storageT.unregisterTrade(_trade.trader, _trade.pairIndex, _trade.index);\n    }\n\n    // Utils\n    function withinExposureLimits(uint _pairIndex, bool _buy, uint _positionSizeDai, uint _leverage) private view returns(bool){\n        PairsStorageInterfaceV6 pairsStored = storageT.priceAggregator().pairsStorage();\n        return storageT.openInterestDai(_pairIndex, _buy ? 0 : 1) + _positionSizeDai * _leverage <= storageT.openInterestDai(_pairIndex, 2)\n            && pairsStored.groupCollateral(_pairIndex, _buy) + _positionSizeDai <= pairsStored.groupMaxCollateral(_pairIndex);\n    }\n    function currentPercentProfit(uint openPrice, uint currentPrice, bool buy, uint leverage) private pure returns(int p){\n        int diff = buy ? int(currentPrice) - int(openPrice) : int(openPrice) - int(currentPrice);\n        int maxPnlP = int(MAX_GAIN_P) * int(PRECISION);\n        \n        p = diff * 100 * int(PRECISION) * int(leverage) / int(openPrice);\n        p = p > maxPnlP ? maxPnlP : p;\n    }\n    function correctTp(uint openPrice, uint leverage, uint tp, bool buy) private pure returns(uint){\n        if(tp == 0 || currentPercentProfit(openPrice, tp, buy, leverage) == int(MAX_GAIN_P) * int(PRECISION)){\n            uint tpDiff = openPrice * MAX_GAIN_P / leverage / 100;\n            return buy ? openPrice + tpDiff : tpDiff <= openPrice ? openPrice - tpDiff : 0;\n        }\n        return tp;\n    }\n    function correctSl(uint openPrice, uint leverage, uint sl, bool buy) private pure returns(uint){\n        if(sl > 0 && currentPercentProfit(openPrice, sl, buy, leverage) < int(MAX_SL_P) * int(PRECISION) * (-1)){\n            uint slDiff = openPrice * MAX_SL_P / leverage / 100;\n            return buy ? openPrice - slDiff : openPrice + slDiff;\n        }\n        return sl;\n    }\n    function marketExecutionPrice(uint _price, uint _spreadP, uint _spreadReductionP, bool _long) private pure returns (uint){\n        uint priceDiff = _price * (_spreadP - _spreadP * _spreadReductionP / 100) / 100 / PRECISION;\n        return _long ? _price + priceDiff : _price - priceDiff;\n    }\n}",
  "sourcePath": "/Users/jnai/clones/gTrade-v6.1/contracts/GNSTradingCallbacksV6_1.sol",
  "compiler": {
    "name": "solc",
    "version": "0.8.14+commit.80d49f37.Emscripten.clang"
  },
  "schemaVersion": "3.4.16",
  "updatedAt": "2024-06-11T10:08:40.208Z",
  "devdoc": {
    "kind": "dev",
    "methods": {},
    "version": 1
  },
  "userdoc": {
    "kind": "user",
    "methods": {},
    "version": 1
  }
}