{
  "contractName": "GNSTradingV6_1",
  "abi": [
    {
      "inputs": [
        {
          "internalType": "contract StorageInterfaceV5",
          "name": "_storageT",
          "type": "address"
        },
        {
          "internalType": "contract GNSPairInfosInterfaceV6",
          "name": "_pairInfos",
          "type": "address"
        }
      ],
      "stateMutability": "nonpayable",
      "type": "constructor"
    },
    {
      "anonymous": false,
      "inputs": [
        {
          "indexed": false,
          "internalType": "string",
          "name": "name",
          "type": "string"
        },
        {
          "indexed": false,
          "internalType": "address",
          "name": "a",
          "type": "address"
        }
      ],
      "name": "AddressUpdated",
      "type": "event"
    },
    {
      "anonymous": false,
      "inputs": [
        {
          "indexed": false,
          "internalType": "uint256",
          "name": "orderId",
          "type": "uint256"
        },
        {
          "components": [
            {
              "components": [
                {
                  "internalType": "address",
                  "name": "trader",
                  "type": "address"
                },
                {
                  "internalType": "uint256",
                  "name": "pairIndex",
                  "type": "uint256"
                },
                {
                  "internalType": "uint256",
                  "name": "index",
                  "type": "uint256"
                },
                {
                  "internalType": "uint256",
                  "name": "initialPosToken",
                  "type": "uint256"
                },
                {
                  "internalType": "uint256",
                  "name": "positionSizeDai",
                  "type": "uint256"
                },
                {
                  "internalType": "uint256",
                  "name": "openPrice",
                  "type": "uint256"
                },
                {
                  "internalType": "bool",
                  "name": "buy",
                  "type": "bool"
                },
                {
                  "internalType": "uint256",
                  "name": "leverage",
                  "type": "uint256"
                },
                {
                  "internalType": "uint256",
                  "name": "tp",
                  "type": "uint256"
                },
                {
                  "internalType": "uint256",
                  "name": "sl",
                  "type": "uint256"
                }
              ],
              "internalType": "struct StorageInterfaceV5.Trade",
              "name": "trade",
              "type": "tuple"
            },
            {
              "internalType": "uint256",
              "name": "block",
              "type": "uint256"
            },
            {
              "internalType": "uint256",
              "name": "wantedPrice",
              "type": "uint256"
            },
            {
              "internalType": "uint256",
              "name": "slippageP",
              "type": "uint256"
            },
            {
              "internalType": "uint256",
              "name": "spreadReductionP",
              "type": "uint256"
            },
            {
              "internalType": "uint256",
              "name": "tokenId",
              "type": "uint256"
            }
          ],
          "indexed": false,
          "internalType": "struct StorageInterfaceV5.PendingMarketOrder",
          "name": "order",
          "type": "tuple"
        }
      ],
      "name": "ChainlinkCallbackTimeout",
      "type": "event"
    },
    {
      "anonymous": false,
      "inputs": [
        {
          "indexed": false,
          "internalType": "address",
          "name": "trader",
          "type": "address"
        },
        {
          "indexed": false,
          "internalType": "uint256",
          "name": "pairIndex",
          "type": "uint256"
        },
        {
          "indexed": false,
          "internalType": "uint256",
          "name": "index",
          "type": "uint256"
        }
      ],
      "name": "CouldNotCloseTrade",
      "type": "event"
    },
    {
      "anonymous": false,
      "inputs": [
        {
          "indexed": false,
          "internalType": "bool",
          "name": "done",
          "type": "bool"
        }
      ],
      "name": "Done",
      "type": "event"
    },
    {
      "anonymous": false,
      "inputs": [
        {
          "indexed": false,
          "internalType": "address",
          "name": "trader",
          "type": "address"
        },
        {
          "indexed": false,
          "internalType": "uint256",
          "name": "pairIndex",
          "type": "uint256"
        },
        {
          "indexed": false,
          "internalType": "bool",
          "name": "open",
          "type": "bool"
        },
        {
          "indexed": false,
          "internalType": "uint256",
          "name": "orderId",
          "type": "uint256"
        }
      ],
      "name": "MarketOrderInitiated",
      "type": "event"
    },
    {
      "anonymous": false,
      "inputs": [
        {
          "indexed": false,
          "internalType": "address",
          "name": "nftHolder",
          "type": "address"
        },
        {
          "indexed": false,
          "internalType": "address",
          "name": "trader",
          "type": "address"
        },
        {
          "indexed": false,
          "internalType": "uint256",
          "name": "pairIndex",
          "type": "uint256"
        },
        {
          "indexed": false,
          "internalType": "uint256",
          "name": "orderId",
          "type": "uint256"
        }
      ],
      "name": "NftOrderInitiated",
      "type": "event"
    },
    {
      "anonymous": false,
      "inputs": [
        {
          "indexed": false,
          "internalType": "address",
          "name": "nftHolder",
          "type": "address"
        },
        {
          "indexed": false,
          "internalType": "address",
          "name": "trader",
          "type": "address"
        },
        {
          "indexed": false,
          "internalType": "uint256",
          "name": "pairIndex",
          "type": "uint256"
        }
      ],
      "name": "NftOrderSameBlock",
      "type": "event"
    },
    {
      "anonymous": false,
      "inputs": [
        {
          "indexed": false,
          "internalType": "string",
          "name": "name",
          "type": "string"
        },
        {
          "indexed": false,
          "internalType": "uint256",
          "name": "value",
          "type": "uint256"
        }
      ],
      "name": "NumberUpdated",
      "type": "event"
    },
    {
      "anonymous": false,
      "inputs": [
        {
          "indexed": false,
          "internalType": "address",
          "name": "trader",
          "type": "address"
        },
        {
          "indexed": false,
          "internalType": "uint256",
          "name": "pairIndex",
          "type": "uint256"
        },
        {
          "indexed": false,
          "internalType": "uint256",
          "name": "index",
          "type": "uint256"
        }
      ],
      "name": "OpenLimitCanceled",
      "type": "event"
    },
    {
      "anonymous": false,
      "inputs": [
        {
          "indexed": false,
          "internalType": "address",
          "name": "trader",
          "type": "address"
        },
        {
          "indexed": false,
          "internalType": "uint256",
          "name": "pairIndex",
          "type": "uint256"
        },
        {
          "indexed": false,
          "internalType": "uint256",
          "name": "index",
          "type": "uint256"
        }
      ],
      "name": "OpenLimitPlaced",
      "type": "event"
    },
    {
      "anonymous": false,
      "inputs": [
        {
          "indexed": false,
          "internalType": "address",
          "name": "trader",
          "type": "address"
        },
        {
          "indexed": false,
          "internalType": "uint256",
          "name": "pairIndex",
          "type": "uint256"
        },
        {
          "indexed": false,
          "internalType": "uint256",
          "name": "index",
          "type": "uint256"
        },
        {
          "indexed": false,
          "internalType": "uint256",
          "name": "newPrice",
          "type": "uint256"
        },
        {
          "indexed": false,
          "internalType": "uint256",
          "name": "newTp",
          "type": "uint256"
        },
        {
          "indexed": false,
          "internalType": "uint256",
          "name": "newSl",
          "type": "uint256"
        }
      ],
      "name": "OpenLimitUpdated",
      "type": "event"
    },
    {
      "anonymous": false,
      "inputs": [
        {
          "indexed": false,
          "internalType": "bool",
          "name": "paused",
          "type": "bool"
        }
      ],
      "name": "Paused",
      "type": "event"
    },
    {
      "anonymous": false,
      "inputs": [
        {
          "indexed": false,
          "internalType": "address",
          "name": "trader",
          "type": "address"
        },
        {
          "indexed": false,
          "internalType": "uint256",
          "name": "pairIndex",
          "type": "uint256"
        },
        {
          "indexed": false,
          "internalType": "uint256",
          "name": "index",
          "type": "uint256"
        },
        {
          "indexed": false,
          "internalType": "uint256",
          "name": "newSl",
          "type": "uint256"
        },
        {
          "indexed": false,
          "internalType": "uint256",
          "name": "orderId",
          "type": "uint256"
        }
      ],
      "name": "SlUpdateInitiated",
      "type": "event"
    },
    {
      "anonymous": false,
      "inputs": [
        {
          "indexed": false,
          "internalType": "address",
          "name": "trader",
          "type": "address"
        },
        {
          "indexed": false,
          "internalType": "uint256",
          "name": "pairIndex",
          "type": "uint256"
        },
        {
          "indexed": false,
          "internalType": "uint256",
          "name": "index",
          "type": "uint256"
        },
        {
          "indexed": false,
          "internalType": "uint256",
          "name": "newSl",
          "type": "uint256"
        }
      ],
      "name": "SlUpdated",
      "type": "event"
    },
    {
      "anonymous": false,
      "inputs": [
        {
          "indexed": false,
          "internalType": "address",
          "name": "trader",
          "type": "address"
        },
        {
          "indexed": false,
          "internalType": "uint256",
          "name": "pairIndex",
          "type": "uint256"
        },
        {
          "indexed": false,
          "internalType": "uint256",
          "name": "index",
          "type": "uint256"
        },
        {
          "indexed": false,
          "internalType": "uint256",
          "name": "newTp",
          "type": "uint256"
        }
      ],
      "name": "TpUpdated",
      "type": "event"
    },
    {
      "inputs": [],
      "name": "isDone",
      "outputs": [
        {
          "internalType": "bool",
          "name": "",
          "type": "bool"
        }
      ],
      "stateMutability": "view",
      "type": "function"
    },
    {
      "inputs": [],
      "name": "isPaused",
      "outputs": [
        {
          "internalType": "bool",
          "name": "",
          "type": "bool"
        }
      ],
      "stateMutability": "view",
      "type": "function"
    },
    {
      "inputs": [],
      "name": "limitOrdersTimelock",
      "outputs": [
        {
          "internalType": "uint256",
          "name": "",
          "type": "uint256"
        }
      ],
      "stateMutability": "view",
      "type": "function"
    },
    {
      "inputs": [],
      "name": "marketOrdersTimeout",
      "outputs": [
        {
          "internalType": "uint256",
          "name": "",
          "type": "uint256"
        }
      ],
      "stateMutability": "view",
      "type": "function"
    },
    {
      "inputs": [],
      "name": "maxPosDai",
      "outputs": [
        {
          "internalType": "uint256",
          "name": "",
          "type": "uint256"
        }
      ],
      "stateMutability": "view",
      "type": "function"
    },
    {
      "inputs": [
        {
          "internalType": "uint256",
          "name": "_max",
          "type": "uint256"
        }
      ],
      "name": "setMaxPosDai",
      "outputs": [],
      "stateMutability": "nonpayable",
      "type": "function"
    },
    {
      "inputs": [
        {
          "internalType": "uint256",
          "name": "_blocks",
          "type": "uint256"
        }
      ],
      "name": "setLimitOrdersTimelock",
      "outputs": [],
      "stateMutability": "nonpayable",
      "type": "function"
    },
    {
      "inputs": [
        {
          "internalType": "uint256",
          "name": "_marketOrdersTimeout",
          "type": "uint256"
        }
      ],
      "name": "setMarketOrdersTimeout",
      "outputs": [],
      "stateMutability": "nonpayable",
      "type": "function"
    },
    {
      "inputs": [],
      "name": "pause",
      "outputs": [],
      "stateMutability": "nonpayable",
      "type": "function"
    },
    {
      "inputs": [],
      "name": "done",
      "outputs": [],
      "stateMutability": "nonpayable",
      "type": "function"
    },
    {
      "inputs": [
        {
          "components": [
            {
              "internalType": "address",
              "name": "trader",
              "type": "address"
            },
            {
              "internalType": "uint256",
              "name": "pairIndex",
              "type": "uint256"
            },
            {
              "internalType": "uint256",
              "name": "index",
              "type": "uint256"
            },
            {
              "internalType": "uint256",
              "name": "initialPosToken",
              "type": "uint256"
            },
            {
              "internalType": "uint256",
              "name": "positionSizeDai",
              "type": "uint256"
            },
            {
              "internalType": "uint256",
              "name": "openPrice",
              "type": "uint256"
            },
            {
              "internalType": "bool",
              "name": "buy",
              "type": "bool"
            },
            {
              "internalType": "uint256",
              "name": "leverage",
              "type": "uint256"
            },
            {
              "internalType": "uint256",
              "name": "tp",
              "type": "uint256"
            },
            {
              "internalType": "uint256",
              "name": "sl",
              "type": "uint256"
            }
          ],
          "internalType": "struct StorageInterfaceV5.Trade",
          "name": "t",
          "type": "tuple"
        },
        {
          "internalType": "enum NftRewardsInterfaceV6.OpenLimitOrderType",
          "name": "_type",
          "type": "uint8"
        },
        {
          "internalType": "uint256",
          "name": "_spreadReductionId",
          "type": "uint256"
        },
        {
          "internalType": "uint256",
          "name": "_slippageP",
          "type": "uint256"
        },
        {
          "internalType": "address",
          "name": "_referral",
          "type": "address"
        }
      ],
      "name": "openTrade",
      "outputs": [],
      "stateMutability": "nonpayable",
      "type": "function"
    },
    {
      "inputs": [
        {
          "internalType": "uint256",
          "name": "_pairIndex",
          "type": "uint256"
        },
        {
          "internalType": "uint256",
          "name": "_index",
          "type": "uint256"
        }
      ],
      "name": "closeTradeMarket",
      "outputs": [],
      "stateMutability": "nonpayable",
      "type": "function"
    },
    {
      "inputs": [
        {
          "internalType": "uint256",
          "name": "_pairIndex",
          "type": "uint256"
        },
        {
          "internalType": "uint256",
          "name": "_index",
          "type": "uint256"
        },
        {
          "internalType": "uint256",
          "name": "_price",
          "type": "uint256"
        },
        {
          "internalType": "uint256",
          "name": "_tp",
          "type": "uint256"
        },
        {
          "internalType": "uint256",
          "name": "_sl",
          "type": "uint256"
        }
      ],
      "name": "updateOpenLimitOrder",
      "outputs": [],
      "stateMutability": "nonpayable",
      "type": "function"
    },
    {
      "inputs": [
        {
          "internalType": "uint256",
          "name": "_pairIndex",
          "type": "uint256"
        },
        {
          "internalType": "uint256",
          "name": "_index",
          "type": "uint256"
        }
      ],
      "name": "cancelOpenLimitOrder",
      "outputs": [],
      "stateMutability": "nonpayable",
      "type": "function"
    },
    {
      "inputs": [
        {
          "internalType": "uint256",
          "name": "_pairIndex",
          "type": "uint256"
        },
        {
          "internalType": "uint256",
          "name": "_index",
          "type": "uint256"
        },
        {
          "internalType": "uint256",
          "name": "_newTp",
          "type": "uint256"
        }
      ],
      "name": "updateTp",
      "outputs": [],
      "stateMutability": "nonpayable",
      "type": "function"
    },
    {
      "inputs": [
        {
          "internalType": "uint256",
          "name": "_pairIndex",
          "type": "uint256"
        },
        {
          "internalType": "uint256",
          "name": "_index",
          "type": "uint256"
        },
        {
          "internalType": "uint256",
          "name": "_newSl",
          "type": "uint256"
        }
      ],
      "name": "updateSl",
      "outputs": [],
      "stateMutability": "nonpayable",
      "type": "function"
    },
    {
      "inputs": [
        {
          "internalType": "enum StorageInterfaceV5.LimitOrder",
          "name": "_orderType",
          "type": "uint8"
        },
        {
          "internalType": "address",
          "name": "_trader",
          "type": "address"
        },
        {
          "internalType": "uint256",
          "name": "_pairIndex",
          "type": "uint256"
        },
        {
          "internalType": "uint256",
          "name": "_index",
          "type": "uint256"
        },
        {
          "internalType": "uint256",
          "name": "_nftId",
          "type": "uint256"
        },
        {
          "internalType": "uint256",
          "name": "_nftType",
          "type": "uint256"
        }
      ],
      "name": "executeNftOrder",
      "outputs": [],
      "stateMutability": "nonpayable",
      "type": "function"
    },
    {
      "inputs": [
        {
          "internalType": "uint256",
          "name": "_order",
          "type": "uint256"
        }
      ],
      "name": "openTradeMarketTimeout",
      "outputs": [],
      "stateMutability": "nonpayable",
      "type": "function"
    },
    {
      "inputs": [
        {
          "internalType": "uint256",
          "name": "_order",
          "type": "uint256"
        }
      ],
      "name": "closeTradeMarketTimeout",
      "outputs": [],
      "stateMutability": "nonpayable",
      "type": "function"
    }
  ],
  "bytecode": "0x60c0604052690fe1c215e8f838e00000600055601e600155601e6002553480156200002957600080fd5b5060405162006133380380620061338339810160408190526200004c916200007d565b6001600160a01b039182166080521660a052620000bc565b6001600160a01b03811681146200007a57600080fd5b50565b600080604083850312156200009157600080fd5b82516200009e8162000064565b6020840151909250620000b18162000064565b809150509250929050565b60805160a051615ead6200028660003960008181611df801528181611ed501528181613a0b01528181613a7a01526152c3015260008181610354015281816104520152818161064b01528181610713015281816108f701528181610abb01528181610b6701528181610c0d01528181610e4801528181611013015281816112a8015281816113aa0152818161143d015281816114f8015281816115a6015281816116540152818161172a015281816117d801528181611b6e01528181611fe5015281816120b50152818161212c015281816123d30152818161257f0152818161268b01528181612749015281816127b801528181612866015281816129d001528181612af901528181612c5801528181612daf015281816130120152818161316f0152818161321e015281816133aa015281816134ac015281816136860152818161392901528181613ba701528181613c8901528181613d8901528181614099015281816141970152818161429c0152818161434e015281816144980152818161455601528181614734015281816148d8015281816149b301528181614b2d01528181614d5701528181614f9801528181615056015281816151ba01526152fc0152615ead6000f3fe608060405234801561001057600080fd5b50600436106101515760003560e01c80639aa7c0e5116100cd578063b8ebd5cc11610081578063be73fb9911610066578063be73fb9914610270578063d4a1caa714610283578063d8defd151461029657600080fd5b8063b8ebd5cc1461024a578063b9b6573a1461025d57600080fd5b8063ae8421e1116100b2578063ae8421e114610222578063b187bd261461022a578063b81bfa051461023757600080fd5b80639aa7c0e5146101fc578063a2a3c0cb1461020f57600080fd5b80638456cb59116101245780638f062227116101095780638f062227146101b4578063934d1cf4146101d6578063990382cf146101e957600080fd5b80638456cb5914610199578063876d3abd146101a157600080fd5b80630890d22a14610156578063279a165c14610172578063318a368b1461017b578063410c0b7c14610190575b600080fd5b61015f60015481565b6040519081526020015b60405180910390f35b61015f60005481565b61018e61018936600461543e565b6102a9565b005b61015f60025481565b61018e610711565b61018e6101af366004615479565b61085f565b6003546101c690610100900460ff1681565b6040519015158152602001610169565b61018e6101e4366004615479565b610c0b565b61018e6101f7366004615479565b610db0565b61018e61020a36600461557e565b6111eb565b61018e61021d36600461565d565b6125e6565b61018e612c56565b6003546101c69060ff1681565b61018e610245366004615479565b612dad565b61018e61025836600461567f565b612f4b565b61018e61026b36600461565d565b613ff7565b61018e61027e3660046156dc565b6143f3565b61018e610291366004615479565b614d55565b61018e6102a43660046156dc565b614ef3565b3233146102b557600080fd5b600354610100900460ff16156103185760405162461bcd60e51b815260040161030f9060208082526004908201527f444f4e4500000000000000000000000000000000000000000000000000000000604082015260600190565b60405180910390fd5b6040517fdcdf339a00000000000000000000000000000000000000000000000000000000815233600482015260248101869052604481018590527f00000000000000000000000000000000000000000000000000000000000000006001600160a01b03169063dcdf339a90606401602060405180830381865afa1580156103a3573d6000803e3d6000fd5b505050506040513d601f19601f820116820180604052508101906103c79190615713565b6104135760405162461bcd60e51b815260206004820152600860248201527f4e4f5f4c494d4954000000000000000000000000000000000000000000000000604482015260640161030f565b6040517fb8878a2c00000000000000000000000000000000000000000000000000000000815233600482015260248101869052604481018590526000907f00000000000000000000000000000000000000000000000000000000000000006001600160a01b03169063b8878a2c906064016101a060405180830381865afa1580156104a2573d6000803e3d6000fd5b505050506040513d601f19601f820116820180604052508101906104c69190615742565b9050600154816101600151436104dc9190615824565b101561052a5760405162461bcd60e51b815260206004820152600e60248201527f4c494d49545f54494d454c4f434b000000000000000000000000000000000000604482015260640161030f565b82158061054757508060a0015161054357828411610547565b8284105b6105935760405162461bcd60e51b815260206004820152600860248201527f57524f4e475f5450000000000000000000000000000000000000000000000000604482015260640161030f565b8115806105b057508060a001516105ac578184106105b0565b8184115b6105fc5760405162461bcd60e51b815260206004820152600860248201527f57524f4e475f534c000000000000000000000000000000000000000000000000604482015260640161030f565b6101208101849052610140810184905260e0810183905261010081018290526040517fb767608a0000000000000000000000000000000000000000000000000000000081526001600160a01b037f0000000000000000000000000000000000000000000000000000000000000000169063b767608a9061068090849060040161583b565b600060405180830381600087803b15801561069a57600080fd5b505af11580156106ae573d6000803e3d6000fd5b505060408051338152602081018a9052908101889052606081018790526080810186905260a081018590527f21e15d62c2ece17c1dc11c5fa45dcefdc6f99f199aa111d1363ff242f23e1c5c925060c001905060405180910390a1505050505050565b7f00000000000000000000000000000000000000000000000000000000000000006001600160a01b03166312d43a516040518163ffffffff1660e01b8152600401602060405180830381865afa15801561076f573d6000803e3d6000fd5b505050506040513d601f19601f8201168201806040525081019061079391906158db565b6001600160a01b0316336001600160a01b0316146107f35760405162461bcd60e51b815260206004820152600860248201527f474f565f4f4e4c59000000000000000000000000000000000000000000000000604482015260640161030f565b6003805460ff808216157fffffffffffffffffffffffffffffffffffffffffffffffffffffffffffffff0090921682179092556040519116151581527f0e2fb031ee032dc02d8011dc50b816eb450cf856abd8261680dac74f72165bd2906020015b60405180910390a1565b32331461086b57600080fd5b600354610100900460ff16156108c55760405162461bcd60e51b815260040161030f9060208082526004908201527f444f4e4500000000000000000000000000000000000000000000000000000000604082015260600190565b6040517fb66e6b05000000000000000000000000000000000000000000000000000000008152600481018290526000907f00000000000000000000000000000000000000000000000000000000000000006001600160a01b03169063b66e6b05906024016101e060405180830381865afa158015610947573d6000803e3d6000fd5b505050506040513d601f19601f8201168201806040525081019061096b919061598b565b805160208201519192509015801590610995575060025482602001516109919190615a35565b4310155b6109e15760405162461bcd60e51b815260206004820152600c60248201527f574149545f54494d454f55540000000000000000000000000000000000000000604482015260640161030f565b80516001600160a01b03163314610a3a5760405162461bcd60e51b815260206004820152600e60248201527f4e4f545f594f55525f4f52444552000000000000000000000000000000000000604482015260640161030f565b60008160e0015111610a8e5760405162461bcd60e51b815260206004820152601760248201527f57524f4e475f4d41524b45545f4f524445525f54595045000000000000000000604482015260640161030f565b60808101516040517f6e70e7b60000000000000000000000000000000000000000000000000000000081527f00000000000000000000000000000000000000000000000000000000000000006001600160a01b0316600482018190523360248301526044820192909252636e70e7b690606401600060405180830381600087803b158015610b1b57600080fd5b505af1158015610b2f573d6000803e3d6000fd5b50506040517fcab9458000000000000000000000000000000000000000000000000000000000815260048101869052600160248201527f00000000000000000000000000000000000000000000000000000000000000006001600160a01b0316925063cab945809150604401600060405180830381600087803b158015610bb557600080fd5b505af1158015610bc9573d6000803e3d6000fd5b505050507f3adaa586cdbe84dd24e45bd7dada6da933d7c2d1c7b4e4cd02fce033356decb18383604051610bfe929190615b05565b60405180910390a1505050565b7f00000000000000000000000000000000000000000000000000000000000000006001600160a01b03166312d43a516040518163ffffffff1660e01b8152600401602060405180830381865afa158015610c69573d6000803e3d6000fd5b505050506040513d601f19601f82011682018060405250810190610c8d91906158db565b6001600160a01b0316336001600160a01b031614610ced5760405162461bcd60e51b815260206004820152600860248201527f474f565f4f4e4c59000000000000000000000000000000000000000000000000604482015260640161030f565b60008111610d3d5760405162461bcd60e51b815260206004820152600760248201527f56414c55455f3000000000000000000000000000000000000000000000000000604482015260640161030f565b6000819055604080518181526009918101919091527f6d6178506f7344616900000000000000000000000000000000000000000000006060820152602081018290527f8cf3e35f6221b16e1670a3413180c9484bf5aa71787905909fa82a6a2662e9ab906080015b60405180910390a150565b323314610dbc57600080fd5b600354610100900460ff1615610e165760405162461bcd60e51b815260040161030f9060208082526004908201527f444f4e4500000000000000000000000000000000000000000000000000000000604082015260600190565b6040517fb66e6b05000000000000000000000000000000000000000000000000000000008152600481018290526000907f00000000000000000000000000000000000000000000000000000000000000006001600160a01b03169063b66e6b05906024016101e060405180830381865afa158015610e98573d6000803e3d6000fd5b505050506040513d601f19601f82011682018060405250810190610ebc919061598b565b805160208201519192509015801590610ee657506002548260200151610ee29190615a35565b4310155b610f325760405162461bcd60e51b815260206004820152600c60248201527f574149545f54494d454f55540000000000000000000000000000000000000000604482015260640161030f565b80516001600160a01b03163314610f8b5760405162461bcd60e51b815260206004820152600e60248201527f4e4f545f594f55525f4f52444552000000000000000000000000000000000000604482015260640161030f565b60e081015115610fdd5760405162461bcd60e51b815260206004820152601760248201527f57524f4e475f4d41524b45545f4f524445525f54595045000000000000000000604482015260640161030f565b6040517fcab9458000000000000000000000000000000000000000000000000000000000815260048101849052600060248201527f00000000000000000000000000000000000000000000000000000000000000006001600160a01b03169063cab9458090604401600060405180830381600087803b15801561105f57600080fd5b505af1158015611073573d6000803e3d6000fd5b5050506020820151604080840151905160248101929092526044820152600091503090606401604080517fffffffffffffffffffffffffffffffffffffffffffffffffffffffffffffffe08184030181529181526020820180517bffffffffffffffffffffffffffffffffffffffffffffffffffffffff167fa2a3c0cb000000000000000000000000000000000000000000000000000000001790525161111a9190615b1a565b600060405180830381855af49150503d8060008114611155576040519150601f19603f3d011682016040523d82523d6000602084013e61115a565b606091505b50509050806111ac576020808301516040808501518151338152938401929092528201527f60e497734ddabcd7293fd91739aaf65cf525eb539c97be528125a235a89288d89060600160405180910390a15b7f3adaa586cdbe84dd24e45bd7dada6da933d7c2d1c7b4e4cd02fce033356decb184846040516111dd929190615b05565b60405180910390a150505050565b3233146111f757600080fd5b600354610100900460ff16156112515760405162461bcd60e51b815260040161030f9060208082526004908201527f444f4e4500000000000000000000000000000000000000000000000000000000604082015260600190565b60035460ff16156112a45760405162461bcd60e51b815260206004820152600660248201527f5041555345440000000000000000000000000000000000000000000000000000604482015260640161030f565b60007f00000000000000000000000000000000000000000000000000000000000000006001600160a01b0316633078fff56040518163ffffffff1660e01b8152600401602060405180830381865afa158015611304573d6000803e3d6000fd5b505050506040513d601f19601f8201168201806040525081019061132891906158db565b90506000816001600160a01b03166335b03c176040518163ffffffff1660e01b8152600401602060405180830381865afa15801561136a573d6000803e3d6000fd5b505050506040513d601f19601f8201168201806040525081019061138e91906158db565b905060008086116113a0576000611439565b6001600160a01b037f000000000000000000000000000000000000000000000000000000000000000016633dae10a06113da600189615824565b6040518263ffffffff1660e01b81526004016113f891815260200190565b602060405180830381865afa158015611415573d6000803e3d6000fd5b505050506040513d601f19601f820116820180604052508101906114399190615b55565b90507f00000000000000000000000000000000000000000000000000000000000000006001600160a01b031663f65d9dbe6040518163ffffffff1660e01b8152600401602060405180830381865afa158015611499573d6000803e3d6000fd5b505050506040513d601f19601f820116820180604052508101906114bd9190615b55565b60208901516040517f97e7995a00000000000000000000000000000000000000000000000000000000815233600482015260248101919091527f00000000000000000000000000000000000000000000000000000000000000006001600160a01b0316906397e7995a90604401602060405180830381865afa158015611547573d6000803e3d6000fd5b505050506040513d601f19601f8201168201806040525081019061156b9190615b55565b60208a01516040517f9c8912f100000000000000000000000000000000000000000000000000000000815233600482015260248101919091527f00000000000000000000000000000000000000000000000000000000000000006001600160a01b031690639c8912f190604401602060405180830381865afa1580156115f5573d6000803e3d6000fd5b505050506040513d601f19601f820116820180604052508101906116199190615b55565b60208b01516040517f1c8636b400000000000000000000000000000000000000000000000000000000815233600482015260248101919091527f00000000000000000000000000000000000000000000000000000000000000006001600160a01b031690631c8636b490604401602060405180830381865afa1580156116a3573d6000803e3d6000fd5b505050506040513d601f19601f820116820180604052508101906116c79190615b55565b6116d19190615a35565b6116db9190615a35565b106117285760405162461bcd60e51b815260206004820152601360248201527f4d41585f5452414445535f5045525f5041495200000000000000000000000000604482015260640161030f565b7f00000000000000000000000000000000000000000000000000000000000000006001600160a01b0316638049fde76040518163ffffffff1660e01b8152600401602060405180830381865afa158015611786573d6000803e3d6000fd5b505050506040513d601f19601f820116820180604052508101906117aa9190615b55565b6040517ff7b3c6fd0000000000000000000000000000000000000000000000000000000081523360048201527f00000000000000000000000000000000000000000000000000000000000000006001600160a01b03169063f7b3c6fd90602401602060405180830381865afa158015611827573d6000803e3d6000fd5b505050506040513d601f19601f8201168201806040525081019061184b9190615b55565b106118985760405162461bcd60e51b815260206004820152601260248201527f4d41585f50454e44494e475f4f52444552530000000000000000000000000000604482015260640161030f565b600054886080015111156118ee5760405162461bcd60e51b815260206004820152600d60248201527f41424f56455f4d41585f504f5300000000000000000000000000000000000000604482015260640161030f565b60208801516040517f0cd8b02200000000000000000000000000000000000000000000000000000000815260048101919091526001600160a01b03831690630cd8b02290602401602060405180830381865afa158015611952573d6000803e3d6000fd5b505050506040513d601f19601f820116820180604052508101906119769190615b55565b8860e00151896080015161198a9190615b6e565b10156119d85760405162461bcd60e51b815260206004820152600d60248201527f42454c4f575f4d494e5f504f5300000000000000000000000000000000000000604482015260640161030f565b60008860e00151118015611a77575060208801516040517f59a992d000000000000000000000000000000000000000000000000000000000815260048101919091526001600160a01b038316906359a992d090602401602060405180830381865afa158015611a4b573d6000803e3d6000fd5b505050506040513d601f19601f82011682018060405250810190611a6f9190615b55565b8860e0015110155b8015611b0e575060208801516040517f281b693c00000000000000000000000000000000000000000000000000000000815260048101919091526001600160a01b0383169063281b693c90602401602060405180830381865afa158015611ae2573d6000803e3d6000fd5b505050506040513d601f19601f82011682018060405250810190611b069190615b55565b8860e0015111155b611b5a5760405162461bcd60e51b815260206004820152601260248201527f4c455645524147455f494e434f52524543540000000000000000000000000000604482015260640161030f565b851580611c82575060006001600160a01b037f00000000000000000000000000000000000000000000000000000000000000001663265aa621611b9e60018a615824565b6040518263ffffffff1660e01b8152600401611bbc91815260200190565b602060405180830381865afa158015611bd9573d6000803e3d6000fd5b505050506040513d601f19601f82011682018060405250810190611bfd91906158db565b6040517f70a082310000000000000000000000000000000000000000000000000000000081523360048201526001600160a01b0391909116906370a0823190602401602060405180830381865afa158015611c5c573d6000803e3d6000fd5b505050506040513d601f19601f82011682018060405250810190611c809190615b55565b115b611cf45760405162461bcd60e51b815260206004820152602560248201527f4e4f5f434f52524553504f4e44494e475f4e46545f5350524541445f5245445560448201527f4354494f4e000000000000000000000000000000000000000000000000000000606482015260840161030f565b6101008801511580611d2857508760c00151611d1b578760a0015188610100015110611d28565b8760a00151886101000151115b611d745760405162461bcd60e51b815260206004820152600860248201527f57524f4e475f5450000000000000000000000000000000000000000000000000604482015260640161030f565b6101208801511580611da857508760c00151611d9b578760a0015188610120015111611da8565b8760a00151886101200151105b611df45760405162461bcd60e51b815260206004820152600860248201527f57524f4e475f534c000000000000000000000000000000000000000000000000604482015260640161030f565b60007f00000000000000000000000000000000000000000000000000000000000000006001600160a01b0316637ea95f3260008b602001518c60c001518d60e001518e60800151611e459190615b6e565b6040517fffffffff0000000000000000000000000000000000000000000000000000000060e087901b168152600481019490945260248401929092521515604483015260648201526084016040805180830381865afa158015611eac573d6000803e3d6000fd5b505050506040513d601f19601f82011682018060405250810190611ed09190615bab565b5090507f00000000000000000000000000000000000000000000000000000000000000006001600160a01b03166380f6cfc26040518163ffffffff1660e01b8152600401602060405180830381865afa158015611f31573d6000803e3d6000fd5b505050506040513d601f19601f82011682018060405250810190611f559190615b55565b60e08a0151611f649083615b6e565b1115611fb25760405162461bcd60e51b815260206004820152601560248201527f50524943455f494d504143545f544f4f5f484947480000000000000000000000604482015260640161030f565b60808901516040517f6e70e7b60000000000000000000000000000000000000000000000000000000081523360048201527f00000000000000000000000000000000000000000000000000000000000000006001600160a01b0316602482018190526044820192909252636e70e7b690606401600060405180830381600087803b15801561203f57600080fd5b505af1158015612053573d6000803e3d6000fd5b5060009250612060915050565b88600281111561207257612072615bcf565b146123425760208901516040517f44d44f5a00000000000000000000000000000000000000000000000000000000815233600482015260248101919091526000907f00000000000000000000000000000000000000000000000000000000000000006001600160a01b0316906344d44f5a90604401602060405180830381865afa158015612104573d6000803e3d6000fd5b505050506040513d601f19601f820116820180604052508101906121289190615b55565b90507f00000000000000000000000000000000000000000000000000000000000000006001600160a01b031663d3b5fe70604051806101a00160405280336001600160a01b031681526020018d6020015181526020018481526020018d6080015181526020018681526020018d60c00151151581526020018d60e0015181526020018d610100015181526020018d610120015181526020018d60a0015181526020018d60a00151815260200143815260200160008152506040518263ffffffff1660e01b81526004016121fb919061583b565b600060405180830381600087803b15801561221557600080fd5b505af1158015612229573d6000803e3d6000fd5b50505050846001600160a01b0316635ad9f9936040518163ffffffff1660e01b8152600401602060405180830381865afa15801561226b573d6000803e3d6000fd5b505050506040513d601f19601f8201168201806040525081019061228f91906158db565b6001600160a01b031663ec570610338c60200151848d6040518563ffffffff1660e01b81526004016122c49493929190615bfe565b600060405180830381600087803b1580156122de57600080fd5b505af11580156122f2573d6000803e3d6000fd5b5050506020808c0151604080513381529283019190915281018390527fdfabd6f206f17b7f2e1f9e0d33c40d30d1e8d7b6a4f520a03fdc1c1811059343915060600160405180910390a150612541565b6000846001600160a01b031663fa8dd4988b6020015160008d60e001518e6080015161236e9190615b6e565b6040518463ffffffff1660e01b815260040161238c93929190615c3b565b6020604051808303816000875af11580156123ab573d6000803e3d6000fd5b505050506040513d601f19601f820116820180604052508101906123cf9190615b55565b90507f00000000000000000000000000000000000000000000000000000000000000006001600160a01b031663c76faf786040518060c00160405280604051806101400160405280336001600160a01b031681526020018f60200151815260200160008152602001600081526020018f608001518152602001600081526020018f60c00151151581526020018f60e0015181526020018f610100015181526020018f61012001518152508152602001600081526020018d60a0015181526020018a815260200186815260200160008152508360016040518463ffffffff1660e01b81526004016124c193929190615c63565b600060405180830381600087803b1580156124db57600080fd5b505af11580156124ef573d6000803e3d6000fd5b5050505060208a810151604080513381529283019190915260018282015260608201839052517f38d5a346bb323dfce6ee611d2fbbfc595310c725ab7ab45bfe0adf3b81b7adab9181900360800190a1505b6040517f9d1a10730000000000000000000000000000000000000000000000000000000081523360048201526001600160a01b0386811660248301527f00000000000000000000000000000000000000000000000000000000000000001690639d1a107390604401600060405180830381600087803b1580156125c357600080fd5b505af11580156125d7573d6000803e3d6000fd5b50505050505050505050505050565b3233146125f257600080fd5b600354610100900460ff161561264c5760405162461bcd60e51b815260040161030f9060208082526004908201527f444f4e4500000000000000000000000000000000000000000000000000000000604082015260600190565b6040517fa3a80ffe00000000000000000000000000000000000000000000000000000000815233600482015260248101839052604481018290526000907f00000000000000000000000000000000000000000000000000000000000000006001600160a01b03169063a3a80ffe9060640161014060405180830381865afa1580156126db573d6000803e3d6000fd5b505050506040513d601f19601f820116820180604052508101906126ff9190615c8a565b6040517f8c8ff1d500000000000000000000000000000000000000000000000000000000815233600482015260248101859052604481018490529091506000906001600160a01b037f00000000000000000000000000000000000000000000000000000000000000001690638c8ff1d59060640160c060405180830381865afa158015612790573d6000803e3d6000fd5b505050506040513d601f19601f820116820180604052508101906127b49190615ca7565b90507f00000000000000000000000000000000000000000000000000000000000000006001600160a01b0316638049fde76040518163ffffffff1660e01b8152600401602060405180830381865afa158015612814573d6000803e3d6000fd5b505050506040513d601f19601f820116820180604052508101906128389190615b55565b6040517ff7b3c6fd0000000000000000000000000000000000000000000000000000000081523360048201527f00000000000000000000000000000000000000000000000000000000000000006001600160a01b03169063f7b3c6fd90602401602060405180830381865afa1580156128b5573d6000803e3d6000fd5b505050506040513d601f19601f820116820180604052508101906128d99190615b55565b106129265760405162461bcd60e51b815260206004820152601260248201527f4d41585f50454e44494e475f4f52444552530000000000000000000000000000604482015260640161030f565b8060a00151156129785760405162461bcd60e51b815260206004820152601460248201527f414c52454144595f4245494e475f434c4f534544000000000000000000000000604482015260640161030f565b60008260e00151116129cc5760405162461bcd60e51b815260206004820152600860248201527f4e4f5f5452414445000000000000000000000000000000000000000000000000604482015260640161030f565b60007f00000000000000000000000000000000000000000000000000000000000000006001600160a01b0316633078fff56040518163ffffffff1660e01b8152600401602060405180830381865afa158015612a2c573d6000803e3d6000fd5b505050506040513d601f19601f82011682018060405250810190612a5091906158db565b6001600160a01b031663fa8dd4988660016402540be40086602001518860e001518960600151612a809190615b6e565b612a8a9190615b6e565b612a949190615d4e565b6040518463ffffffff1660e01b8152600401612ab293929190615c3b565b6020604051808303816000875af1158015612ad1573d6000803e3d6000fd5b505050506040513d601f19601f82011682018060405250810190612af59190615b55565b90507f00000000000000000000000000000000000000000000000000000000000000006001600160a01b031663c76faf786040518060c00160405280604051806101400160405280336001600160a01b031681526020018a81526020018981526020016000815260200160008152602001600081526020016000151581526020016000815260200160008152602001600081525081526020016000815260200160008152602001600081526020016000815260200160008152508360006040518463ffffffff1660e01b8152600401612bd093929190615c63565b600060405180830381600087803b158015612bea57600080fd5b505af1158015612bfe573d6000803e3d6000fd5b50506040805133815260208101899052600091810191909152606081018490527f38d5a346bb323dfce6ee611d2fbbfc595310c725ab7ab45bfe0adf3b81b7adab925060800190505b60405180910390a15050505050565b7f00000000000000000000000000000000000000000000000000000000000000006001600160a01b03166312d43a516040518163ffffffff1660e01b8152600401602060405180830381865afa158015612cb4573d6000803e3d6000fd5b505050506040513d601f19601f82011682018060405250810190612cd891906158db565b6001600160a01b0316336001600160a01b031614612d385760405162461bcd60e51b815260206004820152600860248201527f474f565f4f4e4c59000000000000000000000000000000000000000000000000604482015260640161030f565b6003805460ff61010080830482161581027fffffffffffffffffffffffffffffffffffffffffffffffffffffffffffff00ff90931692909217928390556040517fc3a6f986261de9467c2838c6df8ef74f9107855159205600c0bc7a14cdfd3888936108559390049091161515815260200190565b7f00000000000000000000000000000000000000000000000000000000000000006001600160a01b03166312d43a516040518163ffffffff1660e01b8152600401602060405180830381865afa158015612e0b573d6000803e3d6000fd5b505050506040513d601f19601f82011682018060405250810190612e2f91906158db565b6001600160a01b0316336001600160a01b031614612e8f5760405162461bcd60e51b815260206004820152600860248201527f474f565f4f4e4c59000000000000000000000000000000000000000000000000604482015260640161030f565b60008111612edf5760405162461bcd60e51b815260206004820152600760248201527f56414c55455f3000000000000000000000000000000000000000000000000000604482015260640161030f565b6002819055604080518181526013918101919091527f6d61726b65744f726465727354696d656f7574000000000000000000000000006060820152602081018290527f8cf3e35f6221b16e1670a3413180c9484bf5aa71787905909fa82a6a2662e9ab90608001610da5565b323314612f5757600080fd5b600354610100900460ff1615612fb15760405162461bcd60e51b815260040161030f9060208082526004908201527f444f4e4500000000000000000000000000000000000000000000000000000000604082015260600190565b60018110158015612fc3575060058111155b61300f5760405162461bcd60e51b815260206004820152600e60248201527f57524f4e475f4e46545f54595045000000000000000000000000000000000000604482015260640161030f565b337f00000000000000000000000000000000000000000000000000000000000000006001600160a01b031663265aa62161304a600185615824565b6040518263ffffffff1660e01b815260040161306891815260200190565b602060405180830381865afa158015613085573d6000803e3d6000fd5b505050506040513d601f19601f820116820180604052508101906130a991906158db565b6001600160a01b0316636352211e846040518263ffffffff1660e01b81526004016130d691815260200190565b602060405180830381865afa1580156130f3573d6000803e3d6000fd5b505050506040513d601f19601f8201168201806040525081019061311791906158db565b6001600160a01b03161461316d5760405162461bcd60e51b815260206004820152600660248201527f4e4f5f4e46540000000000000000000000000000000000000000000000000000604482015260640161030f565b7f00000000000000000000000000000000000000000000000000000000000000006001600160a01b031663f8d24b486040518163ffffffff1660e01b8152600401602060405180830381865afa1580156131cb573d6000803e3d6000fd5b505050506040513d601f19601f820116820180604052508101906131ef9190615b55565b6040517faa3b7d77000000000000000000000000000000000000000000000000000000008152600481018490527f00000000000000000000000000000000000000000000000000000000000000006001600160a01b03169063aa3b7d7790602401602060405180830381865afa15801561326d573d6000803e3d6000fd5b505050506040513d601f19601f820116820180604052508101906132919190615b55565b61329b9190615a35565b4310156132ea5760405162461bcd60e51b815260206004820152601060248201527f535543434553535f54494d454c4f434b00000000000000000000000000000000604482015260640161030f565b61334b60405180610140016040528060006001600160a01b0316815260200160008152602001600081526020016000815260200160008152602001600081526020016000151581526020016000815260200160008152602001600081525090565b600387600381111561335f5761335f615bcf565b03613466576040517fdcdf339a0000000000000000000000000000000000000000000000000000000081526001600160a01b03878116600483015260248201879052604482018690527f0000000000000000000000000000000000000000000000000000000000000000169063dcdf339a90606401602060405180830381865afa1580156133f1573d6000803e3d6000fd5b505050506040513d601f19601f820116820180604052508101906134159190615713565b6134615760405162461bcd60e51b815260206004820152600860248201527f4e4f5f4c494d4954000000000000000000000000000000000000000000000000604482015260640161030f565b613682565b6040517fa3a80ffe0000000000000000000000000000000000000000000000000000000081526001600160a01b03878116600483015260248201879052604482018690527f0000000000000000000000000000000000000000000000000000000000000000169063a3a80ffe9060640161014060405180830381865afa1580156134f4573d6000803e3d6000fd5b505050506040513d601f19601f820116820180604052508101906135189190615c8a565b905060008160e001511161356e5760405162461bcd60e51b815260206004820152600860248201527f4e4f5f5452414445000000000000000000000000000000000000000000000000604482015260640161030f565b600187600381111561358257613582615bcf565b14158061359457506000816101200151115b6135e05760405162461bcd60e51b815260206004820152600560248201527f4e4f5f534c000000000000000000000000000000000000000000000000000000604482015260640161030f565b60028760038111156135f4576135f4615bcf565b0361368257600061360482615264565b90508161012001516000148061363457508160c0015161362b578161012001518110613634565b81610120015181115b6136805760405162461bcd60e51b815260206004820152600660248201527f4841535f534c0000000000000000000000000000000000000000000000000000604482015260640161030f565b505b60007f00000000000000000000000000000000000000000000000000000000000000006001600160a01b0316633078fff56040518163ffffffff1660e01b8152600401602060405180830381865afa1580156136e2573d6000803e3d6000fd5b505050506040513d601f19601f8201168201806040525081019061370691906158db565b90506000816001600160a01b0316635ad9f9936040518163ffffffff1660e01b8152600401602060405180830381865afa158015613748573d6000803e3d6000fd5b505050506040513d601f19601f8201168201806040525081019061376c91906158db565b9050600060405180608001604052808a6001600160a01b031681526020018981526020018881526020018b60038111156137a8576137a8615bcf565b90526040517f21187a920000000000000000000000000000000000000000000000000000000081529091506001600160a01b038316906321187a92906137f2908490600401615dd5565b602060405180830381865afa15801561380f573d6000803e3d6000fd5b505050506040513d601f19601f820116820180604052508101906138339190615713565b15806138c057506040517ffc6dcafc0000000000000000000000000000000000000000000000000000000081526001600160a01b0383169063fc6dcafc9061387f908490600401615dd5565b602060405180830381865afa15801561389c573d6000803e3d6000fd5b505050506040513d601f19601f820116820180604052508101906138c09190615713565b15613f2757600060038b60038111156138db576138db615bcf565b03613b5e576040517fb8878a2c0000000000000000000000000000000000000000000000000000000081526001600160a01b038b81166004830152602482018b9052604482018a90526000917f00000000000000000000000000000000000000000000000000000000000000009091169063b8878a2c906064016101a060405180830381865afa158015613973573d6000803e3d6000fd5b505050506040513d601f19601f820116820180604052508101906139979190615742565b90508060c0015181606001516139ad9190615b6e565b602082015160a08301516040517f7ea95f320000000000000000000000000000000000000000000000000000000081526000600482018190526024820193909352901515604482015260648101839052919350906001600160a01b037f00000000000000000000000000000000000000000000000000000000000000001690637ea95f32906084016040805180830381865afa158015613a51573d6000803e3d6000fd5b505050506040513d601f19601f82011682018060405250810190613a759190615bab565b5090507f00000000000000000000000000000000000000000000000000000000000000006001600160a01b03166380f6cfc26040518163ffffffff1660e01b8152600401602060405180830381865afa158015613ad6573d6000803e3d6000fd5b505050506040513d601f19601f82011682018060405250810190613afa9190615b55565b60c0830151613b099083615b6e565b1115613b575760405162461bcd60e51b815260206004820152601560248201527f50524943455f494d504143545f544f4f5f484947480000000000000000000000604482015260640161030f565b5050613c4d565b6040517f8c8ff1d50000000000000000000000000000000000000000000000000000000081526001600160a01b038b81166004830152602482018b9052604482018a90526000917f000000000000000000000000000000000000000000000000000000000000000090911690638c8ff1d59060640160c060405180830381865afa158015613bf0573d6000803e3d6000fd5b505050506040513d601f19601f82011682018060405250810190613c149190615ca7565b90506402540be4008660e0015182602001518860600151613c359190615b6e565b613c3f9190615b6e565b613c499190615d4e565b9150505b6040517f6690a806000000000000000000000000000000000000000000000000000000008152336004820152602481018a9052604481018290527f00000000000000000000000000000000000000000000000000000000000000006001600160a01b031690636690a80690606401600060405180830381600087803b158015613cd557600080fd5b505af1158015613ce9573d6000803e3d6000fd5b506000925050506001600160a01b03851663fa8dd4988b60038f6003811115613d1457613d14615bcf565b14613d20576003613d23565b60025b856040518463ffffffff1660e01b8152600401613d4293929190615c3b565b6020604051808303816000875af1158015613d61573d6000803e3d6000fd5b505050506040513d601f19601f82011682018060405250810190613d859190615b55565b90507f00000000000000000000000000000000000000000000000000000000000000006001600160a01b031663817fa1a46040518060c00160405280336001600160a01b031681526020018b81526020018e6001600160a01b031681526020018d81526020018c81526020018f6003811115613e0357613e03615bcf565b815250836040518363ffffffff1660e01b8152600401613e24929190615de3565b600060405180830381600087803b158015613e3e57600080fd5b505af1158015613e52573d6000803e3d6000fd5b50506040517fc23c886c0000000000000000000000000000000000000000000000000000000081526001600160a01b038716925063c23c886c9150613e9d9086903390600401615e44565b600060405180830381600087803b158015613eb757600080fd5b505af1158015613ecb573d6000803e3d6000fd5b5050604080513381526001600160a01b038f1660208201529081018d9052606081018490527f25a4615e0f832491882811af92c23aeadd8e4ea8679eda01bb90f5276ffdf44f9250608001905060405180910390a15050613feb565b6040517f46ea285b0000000000000000000000000000000000000000000000000000000081526001600160a01b038316906346ea285b90613f6e9084903390600401615e44565b600060405180830381600087803b158015613f8857600080fd5b505af1158015613f9c573d6000803e3d6000fd5b5050604080513381526001600160a01b038d1660208201529081018b90527fde7da272dc52e28c3b33c5c74b461da89b05bd790d845e82db2f69bbf08108e79250606001905060405180910390a15b50505050505050505050565b32331461400357600080fd5b600354610100900460ff161561405d5760405162461bcd60e51b815260040161030f9060208082526004908201527f444f4e4500000000000000000000000000000000000000000000000000000000604082015260600190565b6040517fdcdf339a00000000000000000000000000000000000000000000000000000000815233600482015260248101839052604481018290527f00000000000000000000000000000000000000000000000000000000000000006001600160a01b03169063dcdf339a90606401602060405180830381865afa1580156140e8573d6000803e3d6000fd5b505050506040513d601f19601f8201168201806040525081019061410c9190615713565b6141585760405162461bcd60e51b815260206004820152600860248201527f4e4f5f4c494d4954000000000000000000000000000000000000000000000000604482015260640161030f565b6040517fb8878a2c00000000000000000000000000000000000000000000000000000000815233600482015260248101839052604481018290526000907f00000000000000000000000000000000000000000000000000000000000000006001600160a01b03169063b8878a2c906064016101a060405180830381865afa1580156141e7573d6000803e3d6000fd5b505050506040513d601f19601f8201168201806040525081019061420b9190615742565b9050600154816101600151436142219190615824565b101561426f5760405162461bcd60e51b815260206004820152600e60248201527f4c494d49545f54494d454c4f434b000000000000000000000000000000000000604482015260640161030f565b60608101516040517f6e70e7b60000000000000000000000000000000000000000000000000000000081527f00000000000000000000000000000000000000000000000000000000000000006001600160a01b0316600482018190523360248301526044820192909252636e70e7b690606401600060405180830381600087803b1580156142fc57600080fd5b505af1158015614310573d6000803e3d6000fd5b50506040517fb4b0f56700000000000000000000000000000000000000000000000000000000815233600482015260248101869052604481018590527f00000000000000000000000000000000000000000000000000000000000000006001600160a01b0316925063b4b0f5679150606401600060405180830381600087803b15801561439c57600080fd5b505af11580156143b0573d6000803e3d6000fd5b505060408051338152602081018790529081018590527ff1b38881d7f4b2b12141c5f39c5124545d6112532eb6afbe9630cdbde3ee53e992506060019050610bfe565b3233146143ff57600080fd5b600354610100900460ff16156144595760405162461bcd60e51b815260040161030f9060208082526004908201527f444f4e4500000000000000000000000000000000000000000000000000000000604082015260600190565b6040517fa3a80ffe00000000000000000000000000000000000000000000000000000000815233600482015260248101849052604481018390526000907f00000000000000000000000000000000000000000000000000000000000000006001600160a01b03169063a3a80ffe9060640161014060405180830381865afa1580156144e8573d6000803e3d6000fd5b505050506040513d601f19601f8201168201806040525081019061450c9190615c8a565b6040517f8c8ff1d500000000000000000000000000000000000000000000000000000000815233600482015260248101869052604481018590529091506000906001600160a01b037f00000000000000000000000000000000000000000000000000000000000000001690638c8ff1d59060640160c060405180830381865afa15801561459d573d6000803e3d6000fd5b505050506040513d601f19601f820116820180604052508101906145c19190615ca7565b905060008260e00151116146175760405162461bcd60e51b815260206004820152600860248201527f4e4f5f5452414445000000000000000000000000000000000000000000000000604482015260640161030f565b60008260e001516064604b8560a001516146319190615b6e565b61463b9190615d4e565b6146459190615d4e565b905083158061468457508260c0015161467057808360a001516146689190615a35565b841115614684565b808360a001516146809190615824565b8410155b6146d05760405162461bcd60e51b815260206004820152600a60248201527f534c5f544f4f5f42494700000000000000000000000000000000000000000000604482015260640161030f565b60015460808301516146e29043615824565b10156147305760405162461bcd60e51b815260206004820152600e60248201527f4c494d49545f54494d454c4f434b000000000000000000000000000000000000604482015260640161030f565b60007f00000000000000000000000000000000000000000000000000000000000000006001600160a01b0316633078fff56040518163ffffffff1660e01b8152600401602060405180830381865afa158015614790573d6000803e3d6000fd5b505050506040513d601f19601f820116820180604052508101906147b491906158db565b90508415806148905750806001600160a01b03166335b03c176040518163ffffffff1660e01b8152600401602060405180830381865afa1580156147fc573d6000803e3d6000fd5b505050506040513d601f19601f8201168201806040525081019061482091906158db565b6001600160a01b03166324abd3fb886040518263ffffffff1660e01b815260040161484d91815260200190565b602060405180830381865afa15801561486a573d6000803e3d6000fd5b505050506040513d601f19601f8201168201806040525081019061488e9190615713565b155b1561498a576040517fa35441810000000000000000000000000000000000000000000000000000000081523360048201526024810188905260448101879052606481018690527f00000000000000000000000000000000000000000000000000000000000000006001600160a01b03169063a354418190608401600060405180830381600087803b15801561492457600080fd5b505af1158015614938573d6000803e3d6000fd5b505060408051338152602081018b9052908101899052606081018890527f1fc4a6c7ffe506697979b8ed54dc4135cd1ecd26a2745f70b760a2492222b3169250608001905060405180910390a1614d4c565b60008460e00151846020015186606001516149a59190615b6e565b6149af9190615b6e565b90507f00000000000000000000000000000000000000000000000000000000000000006001600160a01b031663cfbacc148660200151846001600160a01b0316633c88e8826040518163ffffffff1660e01b8152600401602060405180830381865afa158015614a23573d6000803e3d6000fd5b505050506040513d601f19601f82011682018060405250810190614a479190615b55565b614a52600286615d4e565b614a5c9190615d4e565b6040517fffffffff0000000000000000000000000000000000000000000000000000000060e085901b1681526004810192909252602482015260006044820181905260648201526084016020604051808303816000875af1158015614ac5573d6000803e3d6000fd5b505050506040513d601f19601f82011682018060405250810190614ae99190615b55565b85606001818151614afa9190615824565b9052506040517fd4bda9080000000000000000000000000000000000000000000000000000000081526001600160a01b037f0000000000000000000000000000000000000000000000000000000000000000169063d4bda90890614b62908890600401615e68565b600060405180830381600087803b158015614b7c57600080fd5b505af1158015614b90573d6000803e3d6000fd5b505050506000826001600160a01b031663fa8dd4988a60046402540be40086614bb99190615d4e565b6040518463ffffffff1660e01b8152600401614bd793929190615c3b565b6020604051808303816000875af1158015614bf6573d6000803e3d6000fd5b505050506040513d601f19601f82011682018060405250810190614c1a9190615b55565b6040805160c08082018352338252602082018d81528284018d815260a0808d015160608601908152938d01511515608086019081529085018e815295517fb8213bfa0000000000000000000000000000000000000000000000000000000081526004810188905294516001600160a01b0390811660248701529251604486015290516064850152915160848401529051151560a4830152915160c482015291925084169063b8213bfa9060e401600060405180830381600087803b158015614ce157600080fd5b505af1158015614cf5573d6000803e3d6000fd5b505060408051338152602081018d90529081018b9052606081018a9052608081018490527feab935bd2d632c4b4e1573d123433c1ec04a6fde3f29909c2bbe5d8ca4c01037925060a001905060405180910390a150505b50505050505050565b7f00000000000000000000000000000000000000000000000000000000000000006001600160a01b03166312d43a516040518163ffffffff1660e01b8152600401602060405180830381865afa158015614db3573d6000803e3d6000fd5b505050506040513d601f19601f82011682018060405250810190614dd791906158db565b6001600160a01b0316336001600160a01b031614614e375760405162461bcd60e51b815260206004820152600860248201527f474f565f4f4e4c59000000000000000000000000000000000000000000000000604482015260640161030f565b60008111614e875760405162461bcd60e51b815260206004820152600760248201527f56414c55455f3000000000000000000000000000000000000000000000000000604482015260640161030f565b6001819055604080518181526013918101919091527f6c696d69744f726465727354696d656c6f636b000000000000000000000000006060820152602081018290527f8cf3e35f6221b16e1670a3413180c9484bf5aa71787905909fa82a6a2662e9ab90608001610da5565b323314614eff57600080fd5b600354610100900460ff1615614f595760405162461bcd60e51b815260040161030f9060208082526004908201527f444f4e4500000000000000000000000000000000000000000000000000000000604082015260600190565b6040517fa3a80ffe00000000000000000000000000000000000000000000000000000000815233600482015260248101849052604481018390526000907f00000000000000000000000000000000000000000000000000000000000000006001600160a01b03169063a3a80ffe9060640161014060405180830381865afa158015614fe8573d6000803e3d6000fd5b505050506040513d601f19601f8201168201806040525081019061500c9190615c8a565b6040517f8c8ff1d500000000000000000000000000000000000000000000000000000000815233600482015260248101869052604481018590529091506000906001600160a01b037f00000000000000000000000000000000000000000000000000000000000000001690638c8ff1d59060640160c060405180830381865afa15801561509d573d6000803e3d6000fd5b505050506040513d601f19601f820116820180604052508101906150c19190615ca7565b905060008260e00151116151175760405162461bcd60e51b815260206004820152600860248201527f4e4f5f5452414445000000000000000000000000000000000000000000000000604482015260640161030f565b60015460608201516151299043615824565b10156151775760405162461bcd60e51b815260206004820152600e60248201527f4c494d49545f54494d454c4f434b000000000000000000000000000000000000604482015260640161030f565b6040517f7fdb96f30000000000000000000000000000000000000000000000000000000081523360048201526024810186905260448101859052606481018490527f00000000000000000000000000000000000000000000000000000000000000006001600160a01b031690637fdb96f390608401600060405180830381600087803b15801561520657600080fd5b505af115801561521a573d6000803e3d6000fd5b50506040805133815260208101899052908101879052606081018690527f7e06a81c7a47891ccc7455b5ccb2ed850e32bb655ccda67eb3ebaaeed83242a492506080019050612c47565b8051602082015160408084015160a085015160c086015192517f8c8ff1d50000000000000000000000000000000000000000000000000000000081526001600160a01b03868116600483015260248201869052604482018490526000967f0000000000000000000000000000000000000000000000000000000000000000821696636bc84d599691959094909390926402540be400917f000000000000000000000000000000000000000000000000000000000000000090911690638c8ff1d59060640160c060405180830381865afa158015615345573d6000803e3d6000fd5b505050506040513d601f19601f820116820180604052508101906153699190615ca7565b602001518a6060015161537c9190615b6e565b6153869190615d4e565b60e08a8101516040519189901b7fffffffff000000000000000000000000000000000000000000000000000000001682526001600160a01b039790971660048201526024810195909552604485019390935260648401919091521515608483015260a482015260c481019190915260e401602060405180830381865afa158015615414573d6000803e3d6000fd5b505050506040513d601f19601f820116820180604052508101906154389190615b55565b92915050565b600080600080600060a0868803121561545657600080fd5b505083359560208501359550604085013594606081013594506080013592509050565b60006020828403121561548b57600080fd5b5035919050565b604051610140810167ffffffffffffffff811182821017156154dd577f4e487b7100000000000000000000000000000000000000000000000000000000600052604160045260246000fd5b60405290565b6040516101a0810167ffffffffffffffff811182821017156154dd577f4e487b7100000000000000000000000000000000000000000000000000000000600052604160045260246000fd5b6001600160a01b038116811461554357600080fd5b50565b80356155518161552e565b919050565b801515811461554357600080fd5b803561555181615556565b80356003811061555157600080fd5b60008060008060008587036101c081121561559857600080fd5b610140808212156155a857600080fd5b6155b0615492565b91506155bb88615546565b82526020880135602083015260408801356040830152606088013560608301526080880135608083015260a088013560a08301526155fb60c08901615564565b60c083015260e088013560e083015261010080890135818401525061012080890135818401525081965061563081890161556f565b95505050610160860135925061018086013591506156516101a08701615546565b90509295509295909350565b6000806040838503121561567057600080fd5b50508035926020909101359150565b60008060008060008060c0878903121561569857600080fd5b8635600481106156a757600080fd5b955060208701356156b78161552e565b95989597505050506040840135936060810135936080820135935060a0909101359150565b6000806000606084860312156156f157600080fd5b505081359360208301359350604090920135919050565b805161555181615556565b60006020828403121561572557600080fd5b815161573081615556565b9392505050565b80516155518161552e565b60006101a0828403121561575557600080fd5b61575d6154e3565b61576683615737565b81526020830151602082015260408301516040820152606083015160608201526080830151608082015261579c60a08401615708565b60a082015260c0838101519082015260e080840151908201526101008084015190820152610120808401519082015261014080840151908201526101608084015190820152610180928301519281019290925250919050565b7f4e487b7100000000000000000000000000000000000000000000000000000000600052601160045260246000fd5b600082821015615836576158366157f5565b500390565b81516001600160a01b031681526101a081016020830151602083015260408301516040830152606083015160608301526080830151608083015260a083015161588860a084018215159052565b5060c0838101519083015260e08084015190830152610100808401519083015261012080840151908301526101408084015190830152610160808401519083015261018092830151929091019190915290565b6000602082840312156158ed57600080fd5b81516157308161552e565b6000610140828403121561590b57600080fd5b615913615492565b905061591e82615737565b81526020820151602082015260408201516040820152606082015160608201526080820151608082015260a082015160a082015261595e60c08301615708565b60c082015260e082015160e082015261010080830151818301525061012080830151818301525092915050565b60006101e0828403121561599e57600080fd5b60405160c0810181811067ffffffffffffffff821117156159e8577f4e487b7100000000000000000000000000000000000000000000000000000000600052604160045260246000fd5b6040526159f584846158f8565b81526101408301516020820152610160830151604082015261018083015160608201526101a083015160808201526101c09092015160a083015250919050565b60008219821115615a4857615a486157f5565b500190565b80516001600160a01b031682526020810151602083015260408101516040830152606081015160608301526080810151608083015260a081015160a083015260c0810151615a9f60c084018215159052565b5060e08181015190830152610100808201519083015261012090810151910152565b615acc828251615a4d565b60208101516101408301526040810151610160830152606081015161018083015260808101516101a083015260a001516101c090910152565b82815261020081016157306020830184615ac1565b6000825160005b81811015615b3b5760208186018101518583015201615b21565b81811115615b4a576000828501525b509190910192915050565b600060208284031215615b6757600080fd5b5051919050565b6000817fffffffffffffffffffffffffffffffffffffffffffffffffffffffffffffffff0483118215151615615ba657615ba66157f5565b500290565b60008060408385031215615bbe57600080fd5b505080516020909101519092909150565b7f4e487b7100000000000000000000000000000000000000000000000000000000600052602160045260246000fd5b6001600160a01b038516815260208101849052604081018390526080810160038310615c2c57615c2c615bcf565b82606083015295945050505050565b8381526060810160058410615c5257615c52615bcf565b602082019390935260400152919050565b6102208101615c728286615ac1565b836101e0830152821515610200830152949350505050565b60006101408284031215615c9d57600080fd5b61573083836158f8565b600060c08284031215615cb957600080fd5b60405160c0810181811067ffffffffffffffff82111715615d03577f4e487b7100000000000000000000000000000000000000000000000000000000600052604160045260246000fd5b8060405250825181526020830151602082015260408301516040820152606083015160608201526080830151608082015260a0830151615d4281615556565b60a08201529392505050565b600082615d84577f4e487b7100000000000000000000000000000000000000000000000000000000600052601260045260246000fd5b500490565b60048110615d9957615d99615bcf565b9052565b6001600160a01b03815116825260208101516020830152604081015160408301526060810151615dd06060840182615d89565b505050565b608081016154388284615d9d565b600060e0820190506001600160a01b038085511683526020850151602084015280604086015116604084015250606084015160608301526080840151608083015260a0840151615e3660a0840182615d89565b508260c08301529392505050565b60a08101615e528285615d9d565b6001600160a01b03831660808301529392505050565b61014081016154388284615a4d56fea26469706673582212201ecf66d9a03d583efe277fbf41dc715577662ed7dfe7a88237bc8ea86397014764736f6c634300080e0033",
  "immutableReferences": {
    "3978": [
      {
        "length": 32,
        "start": 852
      },
      {
        "length": 32,
        "start": 1106
      },
      {
        "length": 32,
        "start": 1611
      },
      {
        "length": 32,
        "start": 1811
      },
      {
        "length": 32,
        "start": 2295
      },
      {
        "length": 32,
        "start": 2747
      },
      {
        "length": 32,
        "start": 2919
      },
      {
        "length": 32,
        "start": 3085
      },
      {
        "length": 32,
        "start": 3656
      },
      {
        "length": 32,
        "start": 4115
      },
      {
        "length": 32,
        "start": 4776
      },
      {
        "length": 32,
        "start": 5034
      },
      {
        "length": 32,
        "start": 5181
      },
      {
        "length": 32,
        "start": 5368
      },
      {
        "length": 32,
        "start": 5542
      },
      {
        "length": 32,
        "start": 5716
      },
      {
        "length": 32,
        "start": 5930
      },
      {
        "length": 32,
        "start": 6104
      },
      {
        "length": 32,
        "start": 7022
      },
      {
        "length": 32,
        "start": 8165
      },
      {
        "length": 32,
        "start": 8373
      },
      {
        "length": 32,
        "start": 8492
      },
      {
        "length": 32,
        "start": 9171
      },
      {
        "length": 32,
        "start": 9599
      },
      {
        "length": 32,
        "start": 9867
      },
      {
        "length": 32,
        "start": 10057
      },
      {
        "length": 32,
        "start": 10168
      },
      {
        "length": 32,
        "start": 10342
      },
      {
        "length": 32,
        "start": 10704
      },
      {
        "length": 32,
        "start": 11001
      },
      {
        "length": 32,
        "start": 11352
      },
      {
        "length": 32,
        "start": 11695
      },
      {
        "length": 32,
        "start": 12306
      },
      {
        "length": 32,
        "start": 12655
      },
      {
        "length": 32,
        "start": 12830
      },
      {
        "length": 32,
        "start": 13226
      },
      {
        "length": 32,
        "start": 13484
      },
      {
        "length": 32,
        "start": 13958
      },
      {
        "length": 32,
        "start": 14633
      },
      {
        "length": 32,
        "start": 15271
      },
      {
        "length": 32,
        "start": 15497
      },
      {
        "length": 32,
        "start": 15753
      },
      {
        "length": 32,
        "start": 16537
      },
      {
        "length": 32,
        "start": 16791
      },
      {
        "length": 32,
        "start": 17052
      },
      {
        "length": 32,
        "start": 17230
      },
      {
        "length": 32,
        "start": 17560
      },
      {
        "length": 32,
        "start": 17750
      },
      {
        "length": 32,
        "start": 18228
      },
      {
        "length": 32,
        "start": 18648
      },
      {
        "length": 32,
        "start": 18867
      },
      {
        "length": 32,
        "start": 19245
      },
      {
        "length": 32,
        "start": 19799
      },
      {
        "length": 32,
        "start": 20376
      },
      {
        "length": 32,
        "start": 20566
      },
      {
        "length": 32,
        "start": 20922
      },
      {
        "length": 32,
        "start": 21244
      }
    ],
    "3981": [
      {
        "length": 32,
        "start": 7672
      },
      {
        "length": 32,
        "start": 7893
      },
      {
        "length": 32,
        "start": 14859
      },
      {
        "length": 32,
        "start": 14970
      },
      {
        "length": 32,
        "start": 21187
      }
    ]
  },
  "source": "// SPDX-License-Identifier: MIT\nimport './interfaces/StorageInterfaceV5.sol';\nimport './interfaces/GNSPairInfosInterfaceV6.sol';\npragma solidity 0.8.14;\n\ncontract GNSTradingV6_1{\n\n    // Contracts (constant)\n    StorageInterfaceV5 immutable storageT;\n    GNSPairInfosInterfaceV6 immutable pairInfos;\n\n    // Params (constant)\n    uint constant PRECISION = 1e10;\n    uint constant MAX_SL_P = 75;            // -75% PNL\n\n    // Params (adjustable)\n    uint public maxPosDai = 75000 * 1e18;   // 1e18 ($)\n\n    uint public limitOrdersTimelock = 30;   // block\n    uint public marketOrdersTimeout = 30;   // block\n\n    // State\n    bool public isPaused;   // Prevent opening new trades\n    bool public isDone;     // Prevent any interaction with the contract\n\n    // Events\n    event Done(bool done);\n    event Paused(bool paused);\n\n    event NumberUpdated(string name, uint value);\n    event AddressUpdated(string name, address a);\n\n    event MarketOrderInitiated(address trader, uint pairIndex, bool open, uint orderId);\n\n    event NftOrderInitiated(address nftHolder, address trader, uint pairIndex, uint orderId);\n    event NftOrderSameBlock(address nftHolder, address trader, uint pairIndex);\n\n    event OpenLimitPlaced(address trader, uint pairIndex, uint index);\n    event OpenLimitUpdated(address trader, uint pairIndex, uint index, uint newPrice, uint newTp, uint newSl);\n    event OpenLimitCanceled(address trader, uint pairIndex, uint index);\n\n    event TpUpdated(address trader, uint pairIndex, uint index, uint newTp);\n    event SlUpdated(address trader, uint pairIndex, uint index, uint newSl);\n    event SlUpdateInitiated(address trader, uint pairIndex, uint index, uint newSl, uint orderId);\n\n    event ChainlinkCallbackTimeout(uint orderId, StorageInterfaceV5.PendingMarketOrder order);\n    event CouldNotCloseTrade(address trader, uint pairIndex, uint index);\n\n    constructor(StorageInterfaceV5 _storageT, GNSPairInfosInterfaceV6 _pairInfos) {\n        storageT = _storageT;\n        pairInfos = _pairInfos;\n    }\n\n    // Modifiers\n    modifier onlyGov(){ require(msg.sender == storageT.gov(), \"GOV_ONLY\"); _; }\n    modifier notContract(){ require(tx.origin == msg.sender); _; }\n    modifier notDone(){ require(!isDone, \"DONE\"); _; }\n\n    // Manage params\n    function setMaxPosDai(uint _max) external onlyGov{\n        require(_max > 0, \"VALUE_0\");\n        maxPosDai = _max;\n        emit NumberUpdated(\"maxPosDai\", _max);\n    }\n    function setLimitOrdersTimelock(uint _blocks) external onlyGov{\n        require(_blocks > 0, \"VALUE_0\");\n        limitOrdersTimelock = _blocks;\n        emit NumberUpdated(\"limitOrdersTimelock\", _blocks);\n    }\n    function setMarketOrdersTimeout(uint _marketOrdersTimeout) external onlyGov{\n        require(_marketOrdersTimeout > 0, \"VALUE_0\");\n        marketOrdersTimeout = _marketOrdersTimeout;\n        emit NumberUpdated(\"marketOrdersTimeout\", _marketOrdersTimeout);\n    }\n\n    // Manage state\n    function pause() external onlyGov{ isPaused = !isPaused; emit Paused(isPaused); }\n    function done() external onlyGov{ isDone = !isDone; emit Done(isDone); }\n\n    // Open new trade (MARKET/LIMIT)\n    function openTrade(\n        StorageInterfaceV5.Trade memory t,\n        NftRewardsInterfaceV6.OpenLimitOrderType _type,\n        uint _spreadReductionId,\n        uint _slippageP,            // for market orders\n        address _referral\n    ) external notContract notDone{\n\n        require(!isPaused, \"PAUSED\");\n\n        AggregatorInterfaceV6 aggregator = storageT.priceAggregator();\n        PairsStorageInterfaceV6 pairsStored = aggregator.pairsStorage();\n\n        uint spreadReductionP = _spreadReductionId > 0 ? storageT.spreadReductionsP(_spreadReductionId-1) : 0;\n\n        require(storageT.openTradesCount(msg.sender, t.pairIndex) + storageT.pendingMarketOpenCount(msg.sender, t.pairIndex) \n            + storageT.openLimitOrdersCount(msg.sender, t.pairIndex) < storageT.maxTradesPerPair(), \n            \"MAX_TRADES_PER_PAIR\");\n\n        require(storageT.pendingOrderIdsCount(msg.sender) < storageT.maxPendingMarketOrders(), \n            \"MAX_PENDING_ORDERS\");\n\n        require(t.positionSizeDai <= maxPosDai, \"ABOVE_MAX_POS\");\n        require(t.positionSizeDai * t.leverage >= pairsStored.pairMinLevPosDai(t.pairIndex), \"BELOW_MIN_POS\");\n\n        require(t.leverage > 0 && t.leverage >= pairsStored.pairMinLeverage(t.pairIndex) \n            && t.leverage <= pairsStored.pairMaxLeverage(t.pairIndex), \n            \"LEVERAGE_INCORRECT\");\n\n        require(_spreadReductionId == 0 || storageT.nfts(_spreadReductionId-1).balanceOf(msg.sender) > 0,\n            \"NO_CORRESPONDING_NFT_SPREAD_REDUCTION\");\n\n        require(t.tp == 0 || (t.buy ? t.tp > t.openPrice : t.tp < t.openPrice), \"WRONG_TP\");\n        require(t.sl == 0 || (t.buy ? t.sl < t.openPrice : t.sl > t.openPrice), \"WRONG_SL\");\n\n        (uint priceImpactP, ) = pairInfos.getTradePriceImpact(\n            0,\n            t.pairIndex,\n            t.buy,\n            t.positionSizeDai * t.leverage\n        );\n\n        require(priceImpactP * t.leverage <= pairInfos.maxNegativePnlOnOpenP(), \"PRICE_IMPACT_TOO_HIGH\");\n\n        storageT.transferDai(msg.sender, address(storageT), t.positionSizeDai);\n\n        if(_type != NftRewardsInterfaceV6.OpenLimitOrderType.LEGACY){\n            uint index = storageT.firstEmptyOpenLimitIndex(msg.sender, t.pairIndex);\n\n            storageT.storeOpenLimitOrder(\n                StorageInterfaceV5.OpenLimitOrder(\n                    msg.sender,\n                    t.pairIndex,\n                    index,\n                    t.positionSizeDai,\n                    spreadReductionP,\n                    t.buy,\n                    t.leverage,\n                    t.tp,\n                    t.sl,\n                    t.openPrice,\n                    t.openPrice,\n                    block.number,\n                    0\n                )\n            );\n\n            aggregator.nftRewards().setOpenLimitOrderType(msg.sender, t.pairIndex, index, _type);\n\n            emit OpenLimitPlaced(msg.sender, t.pairIndex, index);\n\n        }else{\n            uint orderId = aggregator.getPrice(\n                t.pairIndex, \n                AggregatorInterfaceV6.OrderType.MARKET_OPEN, \n                t.positionSizeDai * t.leverage\n            );\n\n            storageT.storePendingMarketOrder(\n                StorageInterfaceV5.PendingMarketOrder(\n                    StorageInterfaceV5.Trade(\n                        msg.sender,\n                        t.pairIndex,\n                        0, 0,\n                        t.positionSizeDai,\n                        0, \n                        t.buy,\n                        t.leverage,\n                        t.tp,\n                        t.sl\n                    ),\n                    0,\n                    t.openPrice,\n                    _slippageP,\n                    spreadReductionP,\n                    0\n                ), orderId, true\n            );\n\n            emit MarketOrderInitiated(msg.sender, t.pairIndex, true, orderId);\n        }\n\n        storageT.storeReferral(msg.sender, _referral);\n    }\n\n    // Close trade (MARKET)\n    function closeTradeMarket(uint _pairIndex, uint _index) external notContract notDone{\n        \n        StorageInterfaceV5.Trade memory t = storageT.openTrades(msg.sender, _pairIndex, _index);\n        StorageInterfaceV5.TradeInfo memory i = storageT.openTradesInfo(msg.sender, _pairIndex, _index);\n\n        require(storageT.pendingOrderIdsCount(msg.sender) < storageT.maxPendingMarketOrders(), \n            \"MAX_PENDING_ORDERS\");\n        require(!i.beingMarketClosed, \"ALREADY_BEING_CLOSED\");\n        require(t.leverage > 0, \"NO_TRADE\");\n\n        uint orderId = storageT.priceAggregator().getPrice(\n            _pairIndex, \n            AggregatorInterfaceV6.OrderType.MARKET_CLOSE, \n            t.initialPosToken * t.leverage * i.tokenPriceDai / PRECISION\n        );\n\n        storageT.storePendingMarketOrder(\n            StorageInterfaceV5.PendingMarketOrder(\n                StorageInterfaceV5.Trade(msg.sender, _pairIndex, _index, 0, 0, 0, false, 0, 0, 0),\n                0, 0, 0, 0, 0\n            ), orderId, false\n        );\n\n        emit MarketOrderInitiated(msg.sender, _pairIndex, false, orderId);\n    }\n\n    // Manage limit order (OPEN)\n    function updateOpenLimitOrder(\n        uint _pairIndex, \n        uint _index, \n        uint _price,        // PRECISION\n        uint _tp,\n        uint _sl\n    ) external notContract notDone{\n\n        require(storageT.hasOpenLimitOrder(msg.sender, _pairIndex, _index), \"NO_LIMIT\");\n\n        StorageInterfaceV5.OpenLimitOrder memory o = storageT.getOpenLimitOrder(msg.sender, _pairIndex, _index);\n        require(block.number - o.block >= limitOrdersTimelock, \"LIMIT_TIMELOCK\");\n\n        require(_tp == 0 || (o.buy ? _price < _tp : _price > _tp), \"WRONG_TP\");\n        require(_sl == 0 || (o.buy ? _price > _sl : _price < _sl), \"WRONG_SL\");\n\n        o.minPrice = _price;\n        o.maxPrice = _price;\n\n        o.tp = _tp;\n        o.sl = _sl;\n\n        storageT.updateOpenLimitOrder(o);\n\n        emit OpenLimitUpdated(msg.sender, _pairIndex, _index, _price, _tp, _sl);\n    }\n    function cancelOpenLimitOrder(uint _pairIndex, uint _index) external notContract notDone{\n\n        require(storageT.hasOpenLimitOrder(msg.sender, _pairIndex, _index), \"NO_LIMIT\");\n\n        StorageInterfaceV5.OpenLimitOrder memory o = storageT.getOpenLimitOrder(msg.sender, _pairIndex, _index);\n        require(block.number - o.block >= limitOrdersTimelock, \"LIMIT_TIMELOCK\");\n\n        storageT.transferDai(address(storageT), msg.sender, o.positionSize);\n        storageT.unregisterOpenLimitOrder(msg.sender, _pairIndex, _index);\n\n        emit OpenLimitCanceled(msg.sender, _pairIndex, _index);\n    }\n\n    // Manage limit order (TP/SL)\n    function updateTp(uint _pairIndex, uint _index, uint _newTp) external notContract notDone{\n\n        StorageInterfaceV5.Trade memory t = storageT.openTrades(msg.sender, _pairIndex, _index);\n        StorageInterfaceV5.TradeInfo memory i = storageT.openTradesInfo(msg.sender, _pairIndex, _index);\n\n        require(t.leverage > 0, \"NO_TRADE\");\n        require(block.number - i.tpLastUpdated >= limitOrdersTimelock, \"LIMIT_TIMELOCK\");\n\n        storageT.updateTp(msg.sender, _pairIndex, _index, _newTp);\n\n        emit TpUpdated(msg.sender, _pairIndex, _index, _newTp);\n    }\n    function updateSl(uint _pairIndex, uint _index, uint _newSl) external notContract notDone{\n\n        StorageInterfaceV5.Trade memory t = storageT.openTrades(msg.sender, _pairIndex, _index);\n        StorageInterfaceV5.TradeInfo memory i = storageT.openTradesInfo(msg.sender, _pairIndex, _index);\n\n        require(t.leverage > 0, \"NO_TRADE\");\n\n        uint maxSlDist = t.openPrice * MAX_SL_P / 100 / t.leverage;\n        require(_newSl == 0 || (t.buy ? _newSl >= t.openPrice - maxSlDist : _newSl <= t.openPrice + maxSlDist), \n            \"SL_TOO_BIG\");\n        \n        require(block.number - i.slLastUpdated >= limitOrdersTimelock, \"LIMIT_TIMELOCK\");\n\n        AggregatorInterfaceV6 aggregator = storageT.priceAggregator();\n\n        if(_newSl == 0 || !aggregator.pairsStorage().guaranteedSlEnabled(_pairIndex)){\n\n            storageT.updateSl(msg.sender, _pairIndex, _index, _newSl);\n            emit SlUpdated(msg.sender, _pairIndex, _index, _newSl);\n\n        }else{\n            uint levPosDai = t.initialPosToken * i.tokenPriceDai * t.leverage;\n\n            t.initialPosToken -= storageT.handleDevGovFees(\n                t.pairIndex, \n                levPosDai / 2 / aggregator.tokenPriceDai(),\n                false,\n                false\n            );\n\n            storageT.updateTrade(t);\n\n            uint orderId = aggregator.getPrice(\n                _pairIndex,\n                AggregatorInterfaceV6.OrderType.UPDATE_SL, \n                levPosDai / PRECISION\n            );\n\n            aggregator.storePendingSlOrder(\n                orderId, \n                AggregatorInterfaceV6.PendingSl(msg.sender, _pairIndex, _index, t.openPrice, t.buy, _newSl)\n            );\n            \n            emit SlUpdateInitiated(msg.sender, _pairIndex, _index, _newSl, orderId);\n        }\n    }\n\n    // Execute limit order\n    function executeNftOrder(\n        StorageInterfaceV5.LimitOrder _orderType, \n        address _trader, \n        uint _pairIndex, \n        uint _index,\n        uint _nftId, \n        uint _nftType\n    ) external notContract notDone{\n\n        require(_nftType >= 1 && _nftType <= 5, \"WRONG_NFT_TYPE\");\n        require(storageT.nfts(_nftType-1).ownerOf(_nftId) == msg.sender, \"NO_NFT\");\n        require(block.number >= storageT.nftLastSuccess(_nftId) + storageT.nftSuccessTimelock(),\n            \"SUCCESS_TIMELOCK\");\n\n        StorageInterfaceV5.Trade memory t;\n\n        if(_orderType == StorageInterfaceV5.LimitOrder.OPEN){\n            require(storageT.hasOpenLimitOrder(_trader, _pairIndex, _index), \"NO_LIMIT\");\n\n        }else{\n            t = storageT.openTrades(_trader, _pairIndex, _index);\n\n            require(t.leverage > 0, \"NO_TRADE\");\n            require(_orderType != StorageInterfaceV5.LimitOrder.SL || t.sl > 0, \"NO_SL\");\n\n            if(_orderType == StorageInterfaceV5.LimitOrder.LIQ){\n                uint liqPrice = getTradeLiquidationPrice(t);\n                require(t.sl == 0 || (t.buy ? liqPrice > t.sl : liqPrice < t.sl), \"HAS_SL\");\n            }\n        }\n\n        AggregatorInterfaceV6 aggregator = storageT.priceAggregator();\n        NftRewardsInterfaceV6 nftIncentives = aggregator.nftRewards();\n\n        NftRewardsInterfaceV6.TriggeredLimitId memory triggeredLimitId = NftRewardsInterfaceV6.TriggeredLimitId(\n            _trader, _pairIndex, _index, _orderType\n        );\n\n        if(!nftIncentives.triggered(triggeredLimitId) || nftIncentives.timedOut(triggeredLimitId)){\n            \n            uint leveragedPosDai;\n\n            if(_orderType == StorageInterfaceV5.LimitOrder.OPEN){\n                StorageInterfaceV5.OpenLimitOrder memory l = storageT.getOpenLimitOrder(_trader, _pairIndex, _index);\n                leveragedPosDai = l.positionSize * l.leverage;\n\n                (uint priceImpactP, ) = pairInfos.getTradePriceImpact(\n                    0,\n                    l.pairIndex,\n                    l.buy,\n                    leveragedPosDai\n                );\n                \n                require(priceImpactP * l.leverage <= pairInfos.maxNegativePnlOnOpenP(), \"PRICE_IMPACT_TOO_HIGH\");\n            }else{\n                StorageInterfaceV5.TradeInfo memory i = storageT.openTradesInfo(_trader, _pairIndex, _index);\n                leveragedPosDai = t.initialPosToken * i.tokenPriceDai * t.leverage / PRECISION;\n            }\n\n            storageT.transferLinkToAggregator(msg.sender, _pairIndex, leveragedPosDai);\n\n            uint orderId = aggregator.getPrice(\n                _pairIndex, \n                _orderType == StorageInterfaceV5.LimitOrder.OPEN ? \n                    AggregatorInterfaceV6.OrderType.LIMIT_OPEN : \n                    AggregatorInterfaceV6.OrderType.LIMIT_CLOSE,\n                leveragedPosDai\n            );\n\n            storageT.storePendingNftOrder(\n                StorageInterfaceV5.PendingNftOrder(\n                    msg.sender,\n                    _nftId,\n                    _trader,\n                    _pairIndex,\n                    _index,\n                    _orderType\n                ), orderId\n            );\n\n            nftIncentives.storeFirstToTrigger(triggeredLimitId, msg.sender);\n            emit NftOrderInitiated(msg.sender, _trader, _pairIndex, orderId);\n\n        }else{\n            nftIncentives.storeTriggerSameBlock(triggeredLimitId, msg.sender);\n            emit NftOrderSameBlock(msg.sender, _trader, _pairIndex);\n        }\n    }\n    // Avoid stack too deep error in executeNftOrder\n    function getTradeLiquidationPrice(StorageInterfaceV5.Trade memory t) private view returns(uint){\n        return pairInfos.getTradeLiquidationPrice(\n            t.trader,\n            t.pairIndex,\n            t.index,\n            t.openPrice,\n            t.buy,\n            t.initialPosToken * storageT.openTradesInfo(t.trader, t.pairIndex, t.index).tokenPriceDai / PRECISION,\n            t.leverage\n        );\n    }\n\n    // Market timeout\n    function openTradeMarketTimeout(uint _order) external notContract notDone{\n\n        StorageInterfaceV5.PendingMarketOrder memory o = storageT.reqID_pendingMarketOrder(_order);\n        StorageInterfaceV5.Trade memory t = o.trade;\n\n        require(o.block > 0 && block.number >= o.block + marketOrdersTimeout, \n            \"WAIT_TIMEOUT\");\n        require(t.trader == msg.sender, \"NOT_YOUR_ORDER\");\n        require(t.leverage > 0, \"WRONG_MARKET_ORDER_TYPE\");\n\n        storageT.transferDai(address(storageT), msg.sender, t.positionSizeDai);\n        storageT.unregisterPendingMarketOrder(_order, true);\n\n        emit ChainlinkCallbackTimeout(_order, o);\n    }\n    function closeTradeMarketTimeout(uint _order) external notContract notDone{\n\n        StorageInterfaceV5.PendingMarketOrder memory o = storageT.reqID_pendingMarketOrder(_order);\n        StorageInterfaceV5.Trade memory t = o.trade;\n\n        require(o.block > 0 && block.number >= o.block + marketOrdersTimeout, \n            \"WAIT_TIMEOUT\");\n        require(t.trader == msg.sender, \"NOT_YOUR_ORDER\");\n        require(t.leverage == 0, \"WRONG_MARKET_ORDER_TYPE\");\n\n        storageT.unregisterPendingMarketOrder(_order, false);\n\n        (bool success, ) = address(this).delegatecall(\n            abi.encodeWithSignature(\n                \"closeTradeMarket(uint256,uint256)\",\n                t.pairIndex,\n                t.index\n            )\n        );\n\n        if(!success){\n            emit CouldNotCloseTrade(msg.sender, t.pairIndex, t.index);\n        }\n\n        emit ChainlinkCallbackTimeout(_order, o);\n    }\n}",
  "sourcePath": "/Users/jnai/clones/gTrade-v6.1/contracts/GNSTradingV6_1.sol",
  "compiler": {
    "name": "solc",
    "version": "0.8.14+commit.80d49f37.Emscripten.clang"
  },
  "schemaVersion": "3.4.16",
  "updatedAt": "2024-06-11T10:08:40.219Z",
  "devdoc": {
    "kind": "dev",
    "methods": {},
    "version": 1
  },
  "userdoc": {
    "kind": "user",
    "methods": {},
    "version": 1
  }
}